:100000000C94DB000C94280A0C94010A0C94DA0975
:100010000C94B3090C9403010C9403010C948C0907
:100020000C9403010C94C6080C944F0A0C94BE0A5D
:100030000C9403010C9403010C9403010C94030130
:100040000C9403010C9403010C9403010C94030120
:100050000C9403010C9403010C9403010C944209C9
:100060000C9403010C9403010C9403010C94030100
:100070000C9403010C9403010C9403010C940301F0
:100080000C9403010C9403010C9403010C940301E0
:100090000C9403010C9403010C9403010C940301D0
:1000A0000C9403010C94F00C0C940301000000006C
:1000B0002300260029002C002F00080B000202025A
:1000C00000000904000001020200000524001001E4
:1000D0000524010101042402060524060001070588
:1000E000810310004009040100020A000000070516
:1000F00002024000000705830240000004030904D7
:1001000012010002EF020140FB1F00230001010267
:100110000301506F6C6F6C7520436F72706F72616A
:1001200074696F6E00506F6C6F6C7520412D537445
:100130006172203332553400000000002400270093
:100140002A002D00300000000000250028002B00B0
:100150002E00310004040404040304050202020218
:100160000403020202020606060606060404020250
:100170000204040408020110408040102040804026
:1001800080080204018040201002011080102040ED
:1001900040200000000200090F0000030401000CD1
:1001A000000000000000000000000000000000004F
:1001B00000007A0D600D11241FBECFEFDAE0DEBF24
:1001C000CDBF23E0AEEEB1E001C01D92A633B20771
:1001D000E1F711E0A0E0B1E0E4E5FAE202C0059049
:1001E0000D92AE3EB107D9F710E0CAEDD0E004C0E1
:1001F0002197FE010E94AE12C93DD107C9F70E94A6
:100200007F0F0C941D150C940000FC0180911D02C1
:10021000882311F13FB7F89482E08093E9002091A0
:10022000F200822F90E01816190614F481E090E095
:10023000882339F0289844E640931C024091F1004D
:100240004083222339F02091F200211103C02BE6D4
:100250002093E8003FBF08958FEF9FEF08952FB7D9
:10026000F89483E08093E9009091E800892F8072F0
:1002700095FF04C09091F20080E4891B2FBF089580
:100280003FB131702CB126FB222720F92327E0E271
:10029000F3E08089418966857785082E000C990BEB
:1002A0008327042E000C550B4227841B950B860FC9
:1002B000971F97878687208B318B0895CF93DF9385
:1002C0008CB1482F50E0559547955595479593B17A
:1002D000892F90E024E0959587952A95E1F784276A
:1002E0009527EEE0F3E06089A189C685D7859A015C
:1002F00021703327062E000C770B26273727BC01E9
:10030000617077270A2E000CBB0B6A277B27261B00
:10031000370B2C0F3D1F378726878170808B4170EC
:10032000418BDF91CF9108958091040281110DC01E
:1003300082E08093000284E0809301021092030225
:100340001092020281E08093040280E092E008951E
:1003500081508F3008F047C0E82FF0E0EE54FE4F98
:100360000C94AE12CF01D301C101C701CB01F3013F
:10037000F301F301D601DC01E001E401EA01F3013C
:10038000EE01809180008F778093800008958091A6
:1003900080008F7DF9CF80918000877FF5CF84B575
:1003A0008F7784BD089584B58F7DFBCF80919000B9
:1003B0008F77809390000895809190008F7DF9CF82
:1003C00080919000877FF5CF8091C0008F778093D8
:1003D000C00008958091C0008F7DF9CF8091C20048
:1003E000877F8093C20008951F93CF93DF93282FB8
:1003F00030E0F901EE56FE4F8491F901ED58FE4FC1
:10040000D491F901EC5AFE4FC491CC23A9F0162FD8
:1004100081110E94A801EC2FF0E0EE0FFF1FEA5BB4
:10042000FE4FA591B4918FB7F894EC91111108C0CB
:10043000D095DE23DC938FBFDF91CF911F9108957C
:10044000DE2BF8CFCF93DF9390E0FC01ED58FE4F09
:1004500024918C5A9E4FFC0184918823D1F090E026
:10046000880F991FFC01E85CFE4FA591B491FC0137
:10047000EA5BFE4FC591D49161110EC09FB7F8940D
:100480008C91E22FE0958E238C932881E223E883E0
:100490009FBFDF91CF9108958FB7F894EC91E22B35
:1004A000EC938FBFF6CF3FB7F8948091FC01909109
:1004B000FD01A091FE01B091FF0126B5A89B05C0EA
:1004C0002F3F19F00196A11DB11D3FBFBA2FA92FD3
:1004D000982F8827BC01CD01620F711D811D911DD0
:1004E00042E0660F771F881F991F4A95D1F708953C
:1004F0008F929F92AF92BF92CF92DF92EF92FF9234
:100500004B015C010E9453026B017C010E9453026B
:100510006C197D098E099F09683E7340810591051C
:10052000A8F321E0821A9108A108B10888EEC80E4C
:1005300083E0D81EE11CF11C81149104A104B104D4
:1005400029F7FF90EF90DF90CF90BF90AF909F90F2
:100550008F90089508954091F1015091F2012091FA
:10056000EF013091F00142175307B4F49091E80085
:100570009570E1F39091E80092FD19C08093F1002D
:100580008091F1019091F20101968F739927892B47
:1005900019F48EEF8093E8008091F1019091F201BF
:1005A00001969093F2018093F10181E0089580E03B
:1005B0000895DF92EF92FF920F931F93CF93DF93F3
:1005C000D82E8A01EB017B01E40EF51ECE15DF0566
:1005D00059F0D7FE12C0FE0184910E94AB02219611
:1005E0008111F4CF0FEF1FEFC801DF91CF911F9161
:1005F0000F91FF90EF90DF9008958881EECF0F93D9
:100600001F93CF93DF931F92CDB7DEB782E089832C
:1006100042E450E06AEB70E080E80E94D9020E9458
:100620009401DC0112960D911C910115110589F0C0
:10063000D801ED91FC910280F381E02DBE016F5F46
:100640007F4FC801099597FD04C0F8010085118509
:10065000ECCF89810F90DF91CF911F910F91089579
:10066000615030F02091F100FC0120830196F8CF19
:10067000289884E680931C0208958F929F92AF92EF
:10068000BF92CF92DF92EF92FF920F931F93CF937F
:10069000DF936C017B018A0180910B01882309F4AF
:1006A0005CC080911D02882309F457C08091F50138
:1006B00080FF05C08091E00082608093E000E80147
:1006C000B12C8AEFA82E93E0892E2AE3922E209750
:1006D00011F4BB20D9F10E942F0181110AC0AA9404
:1006E000AA20D9F161E070E080E090E00E947802F9
:1006F000EECF8C171D0611F00CF08C2F9FB7F894DD
:100700008092E9002091E80025FD02C09FBFDFCF65
:10071000282F30E0C21BD30BF701815020F041910C
:100720004093F100FACFE20EF31EBB2021F090922D
:10073000E800B12CEBCF8091E80085FDE7CF9092E7
:10074000E800BB24B394209709F3F3CF5D9884E6C7
:100750008093F401101611063CF081E090E0F60160
:100760009383828310E000E0C801DF91CF911F9155
:100770000F91FF90EF90DF90CF90BF90AF909F9040
:100780008F900895CF93DF931F92CDB7DEB7698323
:10079000DC01ED91FC910280F381E02D41E050E01D
:1007A000BE016F5F7F4F09950F90DF91CF91089544
:1007B000682F83E292E00C94C20383E08093E90007
:1007C0008091F200882319F08AE38093E80008956D
:1007D0000E942F0190E00895CF93DF931F92CDB731
:1007E000DEB7FC018485958597FD08C02FEF3FEFAC
:1007F000358724870F90DF91CF910895CE01019620
:100800000E940501019719F4898190E0F3CF8FEFE1
:100810009FEFF0CF0F931F93CF93DF931F92CDB72E
:10082000DEB78C01FC018485958597FF0BC0CE0156
:1008300001960E940501019771F4898190E0F80109
:1008400095878487F801848595850F90DF91CF91F6
:100850001F910F9108958FEF9FEFF1CFFC018485D9
:10086000958597FD0BC09FB7F89482E08093E900CF
:100870008091F2009FBF90E0019608959FB7F89491
:1008800082E08093E9008091F2009FBF90E008959C
:100890000F931F93CF93DF93EC018B018F81811115
:1008A00007C0E881F9810190F081E02DCE01099522
:1008B0008A819B810817190730F08C819D81081768
:1008C000190708F4C8011092BF0025E09695879596
:1008D0002A95E1F781508093D200DF91CF911F914B
:1008E0000F910895DC01F8941092C200E1ECF0E061
:1008F00090819F779083789417961C920895CF9358
:10090000DF93EC0161E08CE00E942202F894E2ECBB
:10091000F0E0808185608083E1ECF0E08081806898
:100920008083789481E08F83DF91CF9108950F9336
:100930001F93CF93DF93EC018B018F81811107C04F
:10094000E881F9810190F081E02DCE0109958A813D
:100950009B810817190730F08C819D8108171907B2
:1009600008F4C801880F991F01979093990080930C
:100970009800DF91CF911F910F910895DC01F894B9
:10098000E0E9F0E090819F779083789417961C922D
:100990000895CF93DF93EC0161E085E00E9422028D
:1009A000F89482E8809390008AE1809391008FE32D
:1009B0009CE99093970080939600789481E08F83D0
:1009C000DF91CF910895CF93DF93EFE9F1E0849128
:1009D000E0E8F1E0D491E1E6F1E0C491CC2321F12B
:1009E00081110E94A801EC2FF0E0EE0FFF1FE455EB
:1009F000FF4FA591B491EC91ED23B1F080911E02CF
:100A000090911F02A0912002B09121020197A109AB
:100A1000B10980931E0290931F02A0932002B0930D
:100A20002102DF91CF91089580911E0290911F02C3
:100A3000A0912002B09121020196A11DB11DE9CF24
:100A400020E077FF04C071956195710921E0FC01F8
:100A500082859385681779070CF4CB01222339F03E
:100A60002A9A229A90938B0080938A0008952A985C
:100A7000F8CF20E077FF04C071956195710921E0FE
:100A8000FC0182859385681779070CF4CB0122233A
:100A900039F0299A219A90938900809388000895CB
:100AA0002998F8CFCF93DC0118968D919C911997D6
:100AB0001A962D913C911B978217930751F0AC0128
:100AC000421B530B49325105A0F41B969C938E9305
:100AD0001A97C1E01A966D917C911B97ED91FC914C
:100AE00011970480F581E02DCD0109958C2FCF91D0
:100AF00008952817390740F4285D3F4F1B963C9313
:100B00002E931A97C0E0E6CF82179307D8F72852A2
:100B10003109F4CF82E291E00E945205811107C0B1
:100B200064E170E080E090E00E947802F3CF0895E5
:100B300086E191E00E945205811107C064E170E0F6
:100B400080E090E00E947802F3CF08954F925F9288
:100B50006F927F928F929F92AF92BF92CF92DF92CD
:100B6000EF92FF92CF93DF9300D000D0CDB7DEB7E6
:100B70002B013C01F89480911E0290911F02A091DC
:100B80002002B091210289839A83AB83BC8378943D
:100B9000C301B2010E9496114B015C0120E030E0DC
:100BA00040E05FE30E94B5126B017C0120E030E081
:100BB00040E05FE3C501B4010E94B4124B015C0147
:100BC00069817A818B819C810E949611A70196018F
:100BD0000E948F1118161CF1F89460911E027091FA
:100BE0001F02809120029091210278940E94961118
:100BF000A50194010E948F1187FF44C060E080919D
:100C0000EC020E94F40161E08091EA020E94F4018A
:100C1000AAEFB0E0B0938D00A0938C00ABCFF89416
:100C200060911E0270911F0280912002909121021A
:100C300078940E949611A50194010E94211387FFC8
:100C4000CBCF60E08091EC020E94F40161E08091E2
:100C5000EA020E94F40110928D0010928C000F9015
:100C60000F900F900F90DF91CF91FF90EF90DF905A
:100C7000CF90BF90AF909F908F907F906F905F903C
:100C80004F900895F89460911E0270911F02809118
:100C900020029091210278940E9496119B01AC0150
:100CA000C701B6010E948F1187FF11C061E08091DA
:100CB000EC020E94F40160E08091EA020E94F401DB
:100CC0008AEF90E090938D0080938C0053CF60E08A
:100CD0008091EC020E94F40161E08091EA020E949E
:100CE000F40110928D0010928C00ABCFFC010190AA
:100CF0000020E9F73197AF01481B590BBC0183E293
:100D000092E00C943D038F929F92AF92BF920F930B
:100D10001F93CF93DF93CDB7DEB7A1970FB6F894AB
:100D2000DEBF0FBECDBF19A2423008F44AE08E01EB
:100D30000F5D1F4F842E912CB12CA12CA501940185
:100D40000E948C12E62FB901CA01EA30F4F4E05D8A
:100D5000D801EE938D01232B242B252B79F790E0DE
:100D600080E0109719F0CD010E947606A1960FB68B
:100D7000F894DEBF0FBECDBFDF91CF911F910F91D1
:100D8000BF90AF909F908F900895E95CE1CFCF9393
:100D9000DF930E947606EC018FE791E00E947606D1
:100DA0008C0F9D1FDF91CF910895CF93DF93EC01BE
:100DB0008EE30E94D803209719F0CE010E94760698
:100DC0008AE30E94D8034AE060E070E0CB010E9411
:100DD00083068EE20E94D8034AE060E070E0CB0117
:100DE0000E9483064AE060E070E0CB010E94830627
:100DF0008AE0DF91CF910C94D8038CE697E0909332
:100E00002B0180932A010E948A0564E670E080E04D
:100E100090E00E94780284EC99E090931F01809307
:100E20001E010E94980564E670E080E090E00E9458
:100E3000780282E891E00C94D5068CED95E09093D1
:100E40002B0180932A010E948A0564E670E080E00D
:100E500090E00E94780284EF91E090931F018093CC
:100E60001E010E94980564E670E080E090E00E9418
:100E7000780282E891E00C94D506FC018081918192
:100E8000009711F00C94C21308950E9408150F9357
:100E90001F93CF93DF93EC0188819981009759F0DC
:100EA0002A813B812617370730F081E0DF91CF910F
:100EB0001F910F9108958B016F5F7F4F0E944B141C
:100EC000009759F0998388831B830A832C813D8185
:100ED000232B59F7FC011082E8CF80E0E7CFEF9297
:100EE000FF920F931F93CF93DF93EC017B018A0155
:100EF000BA010E94470728813981811114C0211548
:100F0000310519F0C9010E94C213198218821D828D
:100F10001C821B821A82CE01DF91CF911F910F910B
:100F2000FF90EF9008951D830C83B701C9010E94C3
:100F30001615F1CFFB0101900020E9F73197AF01C1
:100F4000461B570B0C946F07FC0111821082138211
:100F5000128215821482FB0101900020E9F731977B
:100F6000AF01461B570B0C946F07EF92FF920F9344
:100F70001F93CF93DF93CDB7DEB72C970FB6F894BE
:100F8000DEBF0FBECDBF8C0161E871E0CE010796D8
:100F90000E94A4070115110509F050C01092E30248
:100FA0001092E20263E971E0CE0107960E949A076F
:100FB00060E070E0CB010E94A6056FEB71E0CE010E
:100FC00001960E94A407EF80F884E114F10409F46B
:100FD0006FC00B851C8501151105B9F08D819E81AF
:100FE000080F191FB801CE0101960E9447078823F8
:100FF00009F45EC029813A818D819E81B701820FFB
:10100000931F0E9416151E830D8389819A810E9469
:10101000D506CE0101960E943D07CE0107960E949B
:101020003D072C960FB6F894DEBF0FBECDBFDF9103
:10103000CF911F910F91FF90EF900895083E83E0AC
:10104000180779F41093E3020093E2026FE971E06C
:10105000CE0107960E949A0768EE73E080E090E068
:10106000AACF0C3D85E0180779F41093E3020093B2
:10107000E2026AEA71E0CE0107960E949A076CEDDF
:1010800075E080E090E097CF003D87E0180709F019
:1010900094CF1093E3020093E20266EB71E0CE017D
:1010A00007960E949A0760ED77E080E090E083CF9A
:1010B00089819A81009711F00E94C2131A821982C5
:1010C0001E821D821C821B82A0CFCF93DF93A2EED3
:1010D000B0E09C911C92E9EEF0E020811082C0EF1C
:1010E000D0E03881188240E0289941602099426020
:1010F0002098289A80E18A95F1F783B141FB0EF0A0
:10110000209840FB0EF028980EF4289A41FB0EF42C
:10111000209A1082388320839C9380958170DF9180
:10112000CF910895CF93DF93A2EEB0E09C911C92F3
:10113000E9EEF0E020811082C0EFD0E03881188223
:1011400040E05D9941605599426055985D9A80E113
:101150008A95F1F789B141FB0EF0559840FB0EF0EE
:101160005D980EF45D9A41FB0EF4559A1082388317
:1011700020839C9390E025E0959587952A95E1F74B
:10118000809590958170DF91CF9108951F920F9275
:101190000FB60F9211242F933F934F935F936F934A
:1011A0007F938F939F93AF93BF93EF93FF93CF93CF
:1011B000DF9300D01F92CDB7DEB783B189838981D9
:1011C0009091220289278A8380916B009A818923DA
:1011D0008B838B8180FF05C0E0910C02F0910D02A2
:1011E00009958B8181FF05C0E0910E02F0910F02FD
:1011F00009958B8182FF05C0E0911002F0911102E8
:1012000009958B8183FF05C0E0911202F0911302D2
:1012100009958B8184FF05C0E0911402F0911502BD
:1012200009958B8185FF05C0E0911602F0911702A8
:1012300009958B8186FF05C0E0911802F091190293
:1012400009958B8187FF05C0E0911A02F0911B027E
:1012500009958981809322020F900F900F90DF9162
:10126000CF91FF91EF91BF91AF919F918F917F911E
:101270006F915F914F913F912F910F900FBE0F9003
:101280001F9018951F920F920FB60F9211242F9353
:101290003F938F939F93AF93BF938091F801909169
:1012A000F901A091FA01B091FB013091F70123E01F
:1012B000230F2D3758F50196A11DB11D2093F7017D
:1012C0008093F8019093F901A093FA01B093FB0188
:1012D0008091FC019091FD01A091FE01B091FF0170
:1012E0000196A11DB11D8093FC019093FD01A09377
:1012F000FE01B093FF01BF91AF919F918F913F91FC
:101300002F910F900FBE0F901F90189526E8230F76
:101310000296A11DB11DD2CF1F920F920FB60F9250
:1013200011242F933F934F935F936F937F938F93EA
:101330009F93AF93BF93EF93FF93E0911401F091CC
:1013400015010995FF91EF91BF91AF919F918F91F9
:101350007F916F915F914F913F912F910F900FBEB1
:101360000F901F9018951F920F920FB60F92112495
:101370002F933F934F935F936F937F938F939F939D
:10138000AF93BF93EF93FF93E0911201F09113019C
:101390000995FF91EF91BF91AF919F918F917F91AF
:1013A0006F915F914F913F912F910F900FBE0F90D2
:1013B0001F9018951F920F920FB60F9211242F9322
:1013C0003F934F935F936F937F938F939F93AF93CD
:1013D000BF93EF93FF93E0911001F09111010995F4
:1013E000FF91EF91BF91AF919F918F917F916F91FD
:1013F0005F914F913F912F910F900FBE0F901F90D3
:1014000018951F920F920FB60F9211242F933F93AE
:101410004F935F936F937F938F939F93AF93BF93FC
:10142000EF93FF93E0910E01F0910F010995FF9169
:10143000EF91BF91AF919F918F917F916F915F914C
:101440004F913F912F910F900FBE0F901F901895C5
:101450001F920F920FB60F9211242F933F934F9329
:101460005F936F937F938F939F93AF93BF93EF930C
:10147000FF93E0910C01F0910D010995FF91EF911F
:10148000BF91AF919F918F917F916F915F914F919C
:101490003F912F910F900FBE0F901F9018951F92A4
:1014A0000F920FB60F9211248F939F938091E100BA
:1014B0009091E100937F9093E10083FF0FC0109221
:1014C000E90091E09093EB001092EC0092E390938E
:1014D000ED0010921D0298E09093F00082FF22C070
:1014E00093E09093E9009091F200992319F09AE328
:1014F0009093E8009091F401992341F09091F401C8
:1015000091509093F401911101C05D9A90911C0249
:10151000992341F090911C02915090931C029111DB
:1015200001C0289A84FF18C08091E2008E7E8160FD
:101530008093E2008091E1008F7E8093E1008091B2
:10154000F5018E7E80618093F5019F918F910F90C0
:101550000FBE0F901F90189580FFF7CF8091E2008B
:101560008E7E80618093E2008091E1008E7E809388
:10157000E1008091F5018E7E8160E5CF1F920F9290
:101580000FB60F921124CF92DF92EF92FF920F933A
:101590001F932F933F934F935F936F937F938F93FB
:1015A0009F93AF93BF93EF93FF93CF93DF93CDB709
:1015B000DEB76C97DEBFCDBF1092E9008091E800E6
:1015C00083FF25C068E0CE0145960E94300382EF7C
:1015D0008093E8008D8987FF39C09091E80090FFE3
:1015E000FCCF982F907609F034C19E894F89588D91
:1015F0002F89F88C911131C0803861F58091F60106
:101600008093F1001092F1008EEF8093E8006C96C9
:101610000FB6F894DEBF0FBECDBFDF91CF91FF9123
:10162000EF91BF91AF919F918F917F916F915F915A
:101630004F913F912F911F910F91FF90EF90DF906D
:10164000CF900F900FBE0F901F9018959EEF909324
:10165000E800C7CF1092F100D5CF913059F4811135
:10166000D3CF4130510581F68091F6018D7F809373
:10167000F601CACF933049F48111C6CF41305105EC
:1016800019F68091F6018260F2CF953041F4809195
:10169000E80080FFFCCF20682093E300B5CF9630B0
:1016A00009F0A9C00B8D1C8D22E01092E900109268
:1016B000F2011092F101F2122EC01092F00110927C
:1016C000EF010E94FF021F8299E09983FA8291E064
:1016D0009E8390EA98879AEF99872091F101309143
:1016E000F201275F3F4F3C832B838D831092E900EB
:1016F0001092F2011092F1011093F0010093EF01AA
:1017000049E050E0BE016F5F7F4F80E00E94D90248
:101710000E94FF0279CF1093F0010093EF010E9425
:101720009401DC0112960D911C910115110509F42B
:1017300051C1D801ED91FC910480F581E02DBE01ED
:101740006B5E7F4FC8010995009709F03EC1F80113
:1017500000851185EACFF3E0FF120EC08F89882340
:1017600009F440C0823061F440E862E185E291E032
:101770000E942D0D811148CF81E28093EB0047CF6D
:10178000813029F440E862E182E191E0F1CF8330D9
:1017900099F70E949401DC011296ED90FC908E0165
:1017A0000F5F1F4F6801E114F10479F0D701ED914B
:1017B000FC910680F781E02DB801C7010995080F5B
:1017C000111DF701E084F184EECFD8011C92F601DF
:1017D00001900020E9F73197BF016C197D0940E0C5
:1017E000C601C6CF6CEF70E0FB01449150E080E889
:1017F0000E94D90209CF973009F4BECF983021F466
:1018000081E08093F10000CF993009F0FDCE837024
:1018100009F0B2CFE9E4F1E081E031E096E3219113
:10182000222371F08093E9003093EB00DF011197E0
:101830002C912093EC009093ED008F5F873079F727
:101840008EE78093EA001092EA008F8980931D0250
:10185000DBCE8B8D9C8D1092E9001092F2011092DC
:10186000F1019093F0018093EF01898D811192C075
:101870008E899D89913A49F4813209F07DCF47E004
:1018800050E064E071E080E0B3CF913209F074CFB2
:10189000833269F48F89988DB0E0A0E080930001D5
:1018A00090930101A0930201B0930301ADCE803269
:1018B00069F48091E80082FFFCCF67E084E091E06A
:1018C0000E9430038BEF8093E8009ECE823209F0B5
:1018D0009BCE8F8980930B01EEEFFFE7859194916A
:1018E0008B3F9C4D51F1E0E0F8E080910401909134
:1018F0000501A0910601B0910701803B9440A1052C
:10190000B105F1F480910B0180FD1AC0EE3F8AE031
:10191000F80789F587E797E79183808380916000D6
:101920008093F30188E19BE00FB6F894A89580932B
:1019300060000FBE9093600067CEEEEFFAE0D5CF67
:10194000808191818737974709F05ECEA895809175
:1019500060008861809360008091F3018093600053
:10196000EE3F2AE0F20789F08091FE0A9091FF0A8B
:101970009183808349CE808191818737980751F286
:101980009093FF0A8093FE0AC5CF1092FF0A10922F
:10199000FE0A3ACE0E949401DC0112960D911C9130
:1019A0000115110509F4E8CED801ED91FC910190E3
:1019B000F081E02DBE016B5E7F4FC801099581115A
:1019C00023CEF80100851185EBCF181619060CF40B
:1019D0001BCED2CEF1E0FF12BECE60E071E004CFAC
:1019E0001F920F920FB60F9211242F933F934F9394
:1019F0005F938F939F93EF93FF938091EE018F5F9F
:101A00008093EE01F894EEE0F3E086859785789474
:101A100024853585AC01421B530B958784875187FC
:101A20004087F894E0E2F3E08685978578942485F2
:101A30003585AC01421B530B9587848751874087BE
:101A4000FF91EF919F918F915F914F913F912F91D6
:101A50000F900FBE0F901F901895EF92FF920F936B
:101A60001F93CF93DF93F82E192FE62E042F81E0DA
:101A7000860F880F0E94AB0283E00E94AB02CF2D3D
:101A8000D12FEC0EFD2EF11CCE15DF05B9F007FFAE
:101A900013C0FE0184910E94AB02182F80E00E94C7
:101AA000AB02812321968111EFCFDF91CF911F915E
:101AB0000F91FF90EF9008958881EDCF81E0F5CFF1
:101AC000CF93DF938BEA92E00E943D07CBE6D1E013
:101AD000D0932103C093200382E293E00E943D074C
:101AE000D0930F03C0930E0380E193E0DF91CF9179
:101AF0000C943D072F923F924F925F926F927F928C
:101B00008F929F92AF92BF92CF92DF92EF92FF920D
:101B10000F931F93CF93DF9300D000D000D0CDB7A9
:101B2000DEB783B180932202109226021092250222
:101B300088EE93E0A0E0B0E0809327029093280223
:101B4000A0932902B0932A0283E591E090932402A6
:101B5000809323028FEF9FEF9093300280932F02A8
:101B600067EC71E0CE0101960E94A4078BE691E03C
:101B700090930F0380930E031092110310921003A1
:101B80001092130310921203109215031092140373
:101B900069817A816115710531F04D815E8180E145
:101BA00093E00E946F07109217031092160384EAC5
:101BB00091E0909319038093180387E791E0909345
:101BC0000F0380930E03CE0101960E943D0769EC3E
:101BD00071E0CE0101960E94A4078BE691E09093FC
:101BE000210380932003109223031092220310926A
:101BF0002503109224031092270310922603698173
:101C00007A816115710531F04D815E8182E293E048
:101C10000E946F07109229031092280384EA91E032
:101C200090932B0380932A038DE791E090932103F7
:101C300080932003CE0101960E943D0705E010E04D
:101C400010937402009373028BE0282E312C309293
:101C500076022092750284E090E09093780280935F
:101C600077028DE090E090937A0280937902412C84
:101C7000512C612C90E4792E40927B0250927C0290
:101C800060927D0270927E022DEC822E2CEC922EC0
:101C9000A92C2DE3B22E80927F0290928002A09216
:101CA0008102B0928202C12CD12CE12C3FE3F32EB1
:101CB000C0928302D0928402E0928502F092860262
:101CC00010928702109288021092890210928A0262
:101CD00010928B0210928C0210928D0210928E0242
:101CE00010928F0210929002109291021092920222
:101CF0001092930210929402109295021092960202
:101D00001092A8021092A70284E190E09093AA0298
:101D10008093A9021092AC021092AB021092AE0214
:101D20001092AD021092B0021092AF0250E040E06B
:101D300061E871E08BEA92E00E946F071092B102B5
:101D40001092B2021092B3021092B4021092B50235
:101D50001092B6021092B7021092B8021092B90215
:101D60001092BA021092BB021092BC021092BD02F5
:101D70001092BE021092BF021092C0021092C102D5
:101D80001092C2021092C3021092C4021092C502B5
:101D90001092C6021092C7021092C8021092C90295
:101DA0001092CA021092CB021092CC021092CD0275
:101DB0001092CE021092CF021092D0021092D10255
:101DC0001092D2021092D3021092D4021092D50235
:101DD0001092D6021092D7021092D8021092E1020D
:101DE0001092E3021092E2021092E5021092E402D5
:101DF0001093E7020093E6023092E9022092E80293
:101E000084E090E09093EB028093EA028DE090E012
:101E10009093ED028093EC024092EE025092EF021A
:101E20006092F0027092F1028092F2029092F302BC
:101E3000A092F402B092F502C092F602D092F7029C
:101E4000E092F802F092F9021092FA021092FB026C
:101E50001092FC021092FD021092FE021092FF02FC
:101E600010920003109201031092020310920303D8
:101E700010920403109205031092060310920703B8
:101E8000109208031092090310920B0310920A0398
:101E900010920D0310920C036AE070E08BEA92E05E
:101EA0000E9447071092A1021092A40281E791E0DC
:101EB0009093A00280939F021092990210929C022C
:101EC00085E691E0909398028093970226960FB64C
:101ED000F894DEBF0FBECDBFDF91CF911F910F9160
:101EE000FF90EF90DF90CF90BF90AF909F908F903A
:101EF0007F906F905F904F903F902F9008957894CF
:101F000084B5826084BD84B5816084BD85B58260FE
:101F100085BD85B5816085BD80916E0081608093AF
:101F20006E00109281008091810082608093810018
:101F30008091810081608093810080918000816028
:101F400080938000809191008260809391008091C5
:101F500091008160809391008091900081608093D6
:101F600090008091C10084608093C1008091C10085
:101F700082608093C1008091C10081608093C10024
:101F80008091C30081608093C3008091C000826013
:101F90008093C0008091C20081608093C2008091D4
:101FA0007A00846080937A0080917A0082608093C6
:101FB0007A0080917A00816080937A0080917A0023
:101FC000806880937A0010921D021092F6011092A0
:101FD000F5018091D70081608093D70080EA8093DB
:101FE000D80089B5806189BD89B5826089BD09B491
:101FF00000FEFDCF61E070E080E090E00E9478029A
:102000008091D8008F7C80618093D8008091E0001F
:10201000807F8093E0008091E1008E7E8093E100DC
:102020008DE08093E200559A209A8FEF9FEF909376
:10203000300280932F028CEC91E00E94C706F89446
:102040001092C0008AE08093C1001092C2001092EA
:10205000C3002091A9023091AA02A0E8BEE30E9429
:102060007D1229E096958795779567952A95D1F702
:1020700061507109862F871B7093BF008093D10038
:1020800084E08093720078948BEC91E00E94C70604
:1020900087ED91E00E94C706F89482EA8093800061
:1020A00089E18093810084EA91E090938700809396
:1020B0008600109289001092880010928B00109276
:1020C0008A0010928D0010928C00F89491E0909309
:1020D000680080916B00806180936B002EE531E099
:1020E00030931502209314029BBB809122028F7EB5
:1020F0008093220283B1909122028071892B809378
:102100002202789480E491E0909315018093140169
:1021100080916A008F7C806180936A00EE9A789447
:1021200086ED91E00E94C7062E98269A2A98229A58
:1021300084EE91E00E94C70624982C9A6A98729ABD
:102140008CB182FB882780F980931F0393B1809123
:102150001F0392959170892780931E0383EE91E06F
:102160000E94C7062D98259A2998219A84EE91E01D
:102170000E94C7066E98769A8098889A8FB181706F
:10218000809331039CB18091310396FB992790F99C
:1021900089278093300383EE91E00E94C70661E0B7
:1021A0008091E8020E94220261E08091EA020E948E
:1021B000220261E08091EC020E94220260E080E055
:1021C0000E94220260E081E00E94220288EA80935D
:1021D000800081E18093810080E991E09093870005
:1021E0008093860010928D0010928C0083EE94E014
:1021F0009093110180931001809169008F7C806120
:1022000080936900EA9AF89410921E0210921F02BD
:1022100010922002109221027894F89410921E02DB
:1022200010921F021092200210922102789482E2F2
:1022300091E00E947F0480ED97E090932B018093C2
:102240002A0108EC10E0C0E0D0E068E873E180E02B
:1022500090E00E9478028FE992E00E94650888234E
:10226000A9F190E080E00E94B50764EF71E080E0A2
:1022700090E00E9478020E94FD0688EE93E00E94A2
:10228000B50764EF71E080E090E00E9478020E9460
:102290001D078CED95E00E94B50764EF71E080E0CA
:1022A00090E00E9478020E94FD0680ED97E00E9477
:1022B000B50764EF71E080E090E00E9478020E9430
:1022C0001D0764EF71E080E090E0C3CF87E992E002
:1022D0000E9492088823E9F061E08091EC020E945C
:1022E000F40160E08091EA020E94F40110938D00F5
:1022F00000938C0060E08091EC020E94F40161E0A8
:102300008091EA020E94F40110928D0010928C00DC
:10231000DDCF209709F499CF0E94000096CF0E944C
:10232000D11108F481E00895E89409C097FB3EF4C8
:1023300090958095709561957F4F8F4F9F4F992312
:10234000A9F0F92F96E9BB279395F6958795779590
:102350006795B795F111F8CFFAF4BB0F11F460FF50
:102360001BC06F5F7F4F8F4F9F4F16C0882311F0A8
:1023700096E911C0772321F09EE8872F762F05C0BC
:10238000662371F096E8862F70E060E02AF09A9557
:10239000660F771F881FDAF7880F9695879597F94C
:1023A0000895990F0008550FAA0BE0E8FEEF1616E6
:1023B0001706E807F907C0F012161306E407F50739
:1023C00098F0621B730B840B950B39F40A2661F0AD
:1023D000232B242B252B21F408950A2609F4A14050
:1023E000A6958FEF811D811D089597F99F6780E85D
:1023F00070E060E008959FEF80EC089500240A9457
:102400001616170618060906089500240A941216CF
:102410001306140605060895092E0394000C11F402
:10242000882352F0BB0F40F4BF2B11F460FF04C0AF
:102430006F5F7F4F8F4F9F4F089557FD9058440F08
:10244000551F59F05F3F71F04795880F97FB991F13
:1024500061F09F3F79F087950895121613061406D0
:10246000551FF2CF4695F1DF08C01616170618065D
:10247000991FF1CF86957105610508940895E89438
:10248000BB2766277727CB0197F908952F923F92B4
:102490004F925F926F927F928F929F92AF92BF9274
:1024A000CF92DF92EF92FF920F931F93CF93DF9320
:1024B000CDB7DEB7CA1BDB0B0FB6F894DEBF0FBE7D
:1024C000CDBF09942A88398848885F846E847D84CA
:1024D0008C849B84AA84B984C884DF80EE80FD80CC
:1024E0000C811B81AA81B981CE0FD11D0FB6F89442
:1024F000DEBF0FBECDBFED010895A29FB001B39F17
:10250000C001A39F700D811D1124911DB29F700DFC
:10251000811D1124911D0895A1E21A2EAA1BBB1B37
:10252000FD010DC0AA1FBB1FEE1FFF1FA217B3079F
:10253000E407F50720F0A21BB30BE40BF50B661FB5
:10254000771F881F991F1A9469F760957095809579
:1025500090959B01AC01BD01CF010895EE0FFF1FC7
:102560000590F491E02D09945058BB27AA270E94AA
:10257000CC120C940C120E94FE1138F00E9405122D
:1025800020F039F49F3F19F426F40C94FB110EF45B
:10259000E095E7FB0C94F511E92F0E941D1258F30A
:1025A000BA17620773078407950720F079F4A6F538
:1025B0000C943F120EF4E0950B2EBA2FA02D0B01B8
:1025C000B90190010C01CA01A0011124FF27591B78
:1025D00099F0593F50F4503E68F11A16F040A22F7E
:1025E000232F342F4427585FF3CF469537952795EF
:1025F000A795F0405395C9F77EF41F16BA0B620BEE
:10260000730B840BBAF09150A1F0FF0FBB1F661F34
:10261000771F881FC2F70EC0BA0F621F731F841F77
:1026200048F4879577956795B795F7959E3F08F09D
:10263000B0CF9395880F08F09927EE0F979587955F
:1026400008950E94D11108F48FEF08950F931F93FE
:10265000CF93DF938230910510F482E090E0E09117
:102660003403F091350330E020E0B0E0A0E0309793
:1026700099F42115310509F44AC0281B390B24307F
:102680003105D8F58A819B816115710589F1FB01BE
:1026900093838283FE0111C04081518102811381A5
:1026A00048175907E0F04817590799F4109761F057
:1026B00012960C93129713961C933296CF01DF91CA
:1026C000CF911F910F910895009334031093350318
:1026D000F4CF2115310551F04217530738F0A90105
:1026E000DB019A01BD01DF01F801C1CFEF01F9CF94
:1026F0009093350380933403CDCFFE01E20FF31F97
:10270000819391932250310939832883D7CF209127
:10271000320330913303232B41F420913001309167
:102720003101309333032093320320912E013091F5
:102730002F012115310541F42DB73EB740913201EB
:1027400050913301241B350BE0913203F091330398
:10275000E217F307A0F42E1B3F0B2817390778F078
:10276000AC014E5F5F4F2417350748F04E0F5F1FD7
:102770005093330340933203819391939FCFF0E0C2
:10278000E0E09CCFCF93DF930097E9F0FC01329714
:1027900013821282A0913403B0913503ED0130E031
:1027A00020E01097A1F420813181820F931F2091A6
:1027B0003203309133032817390709F061C0F093D1
:1027C0003303E0933203DF91CF910895EA01CE17EE
:1027D000DF07E8F54A815B819E0141155105B1F79C
:1027E000E901FB83EA8349915991C40FD51FEC1786
:1027F000FD0761F4808191810296840F951FE901A4
:1028000099838883828193819B838A83F0E0E0E0CF
:1028100012968D919C9113970097B9F52D913C914B
:102820001197CD010296820F931F209132033091B0
:1028300033032817390739F6309751F510923503CD
:1028400010923403B0933303A0933203BCCFD383ED
:10285000C28340815181840F951FC817D90761F445
:102860004E5F5F4F88819981480F591F5183408384
:102870008A819B81938382832115310509F0B0CF32
:10288000F0933503E09334039ECFFD01DC01C0CF0C
:1028900013821282D7CFB0E0A0E0E1E5F4E10C941E
:1028A00048128C01009751F4CB010E9426138C0131
:1028B000C801CDB7DEB7E0E10C946412FC01E60F6D
:1028C000F71F9C0122503109E217F30708F49DC05D
:1028D000D901CD91DC911197C617D70798F0C53073
:1028E000D10530F3CE0104978617970708F3C61B6E
:1028F000D70B2297C193D1936D937C93CF010E9404
:10290000C213D6CF5B01AC1ABD0A4C018C0E9D1EC2
:10291000A0913403B0913503512C412CF12CE12CC2
:10292000109731F580913203909133038815990502
:1029300009F05CC04616570608F058C080912E0179
:1029400090912F01009741F48DB79EB740913201CD
:1029500050913301841B950BE817F90708F055C017
:10296000F0933303E0933203F90171836083A0CFC6
:102970008D919C91119712966C90129713967C9062
:102980001397A815B90559F56C0142E0C40ED11C86
:10299000CA14DB0420F1AC014A195B09DA01129672
:1029A000159780F06282738251834083D9016D93C1
:1029B0007C93E114F10471F0D7011396FC93EE932C
:1029C000129776CF22968C0F9D1FF90191838083F9
:1029D000F301EFCFF0933503E093340369CF48164A
:1029E000590608F42C017D01D3019ACFCB010E9436
:1029F00026137C01009749F0AE01B8010E940D1525
:102A0000C8010E94C213870153CF10E000E050CFED
:102A100081E090E0F8940C941D15FB01DC0102C0EC
:102A200001900D9241505040D8F70895FB01DC0110
:102A300001900D920020E1F7089510E0CAEDD0E07A
:102A400004C0FE010E94AE122196CB3DD107C9F70A
:042A5000F894FFCF28
:102A5400FFFFFFFF00E1000000000000AA02AA023D
:102A6400AA02AA02AA023801F401C409FF00DC0583
:102A7400DC054201F401C409FF00DC05DC050000AB
:102A84003603800000000000C904BE04970400005F
:102A940000007F047204480400C18081000000002B
:102AA400000000C2033D03E803DD032E04EC030A27
:102AB4000400000000920800000000450700000028
:102AC4000065080000000020050000000039050D25
:102AD4000A0053544154453A20434C4157204F5027
:102AE400454E004C4946545F47524F554E44004CA6
:102AF4004946545F4649525354004C4946545F5327
:102B040045434F4E44004C4946545F544F50005384
:102B1400544154453A20004C0052002F496E6974C8
:102B240054696D6572002F496E69744D6F746F72CC
:0E2B34002829002F496E6974456E6328290018
:00000001FF
