:100000000C9401010C944F080C9428080C940108DE
:100010000C94DA070C9429010C9429010C94B30771
:100020000C9429010C94ED060C9476080C94E508C8
:100030000C9429010C9429010C9429010C94290198
:100040000C9429010C9429010C9429010C94290188
:100050000C9429010C9429010C9429010C94690732
:100060000C9429010C9429010C9429010C94290168
:100070000C9429010C9429010C9429010C94290158
:100080000C9429010C9429010C9429010C94290148
:100090000C9429010C9429010C9429010C94290138
:1000A0000C9429010C94170B0C942901084AD73B96
:1000B0003BCE016E84BCBFFDC12F3D6C74319ABD37
:1000C00056833DDA3D00C77F11BED9E4BB4C3E915B
:1000D0006BAAAABE000000803F05A84CCDB2D44E4A
:1000E000B93836A9020C50B9918688083CA6AAAA4C
:1000F0002ABE000000803F00000000002300260010
:1001000029002C002F000000000200090F0000034E
:100110000401000C000000000000000000000000CE
:100120000000000000080B000202020000090400A9
:100130000001020200000524001001052401010154
:10014000042402060524060001070581031000406F
:1001500009040100020A0000000705020240000035
:10016000070583024000000403090412010002EFA6
:10017000020140FB1F0023000101020301506F6CCC
:100180006F6C7520436F72706F726174696F6E006F
:10019000506F6C6F6C7520412D5374617220333237
:1001A00055340000000000250028002B002E0031EF
:1001B0000000000000240027002A002D0030000469
:1001C00004040404030405020202020403020202FE
:1001D00002060606060606040402020204040408D7
:1001E000020110408040102040804080080204013D
:1001F0008040201002011080102040402000A70BFA
:10020000191211241FBECFEFDAE0DEBFCDBF23E00D
:10021000A0EDB1E001C01D92AB32B207E1F711E0F1
:10022000A0E0B1E0E0E9F0E302C005900D92A03D4E
:10023000B107D9F710E0C0E0D1E004C02197FE017A
:100240000E94BF13CF3FD107C9F70E94F20D0C9453
:100250003B180C940000FC0180910302882311F1EB
:100260003FB7F89482E08093E9002091F200822F5A
:1002700090E01816190614F481E090E0882339F014
:10028000289844E6409302024091F10040832223E3
:1002900039F02091F200211103C02BE62093E800F1
:1002A0003FBF08958FEF9FEF08952FB7F89483E035
:1002B0008093E9009091E800892F807295FF04C037
:1002C0009091F20080E4891B2FBF08953FB13170F7
:1002D0002CB126FB222720F92327E5E1F3E08089D2
:1002E000418966857785082E000C990B8327042E9B
:1002F000000C550B4227841B950B860F971F978781
:100300008687208B318B0895CF93DF938CB1482F54
:1003100050E0559547955595479593B1892F90E0B5
:1003200024E0959587952A95E1F784279527E3E0C2
:10033000F3E06089A189C685D7859A0121703327AA
:10034000062E000C770B26273727BC016170772714
:100350000A2E000CBB0B6A277B27261B370B2C0FA2
:100360003D1F378726878170808B4170418BDF91DD
:10037000CF9108958091EA0181110DC082E08093B0
:10038000E60184E08093E7011092E9011092E80110
:1003900081E08093EA0186EE91E00895CF93DF93A8
:1003A00090E0FC01E252FE4F249181549E4FFC01EB
:1003B00084918823D1F090E0880F991FFC01EF54BD
:1003C000FE4FA591B491FC01ED55FE4FC591D4911E
:1003D00061110EC09FB7F8948C91E22FE0958E23A7
:1003E0008C932881E223E8839FBFDF91CF9108950A
:1003F0008FB7F894EC91E22BEC938FBFF6CF3FB719
:10040000F8948091E2019091E301A091E401B09110
:10041000E50126B5A89B05C02F3F19F00196A11D47
:10042000B11D3FBFBA2FA92F982F8827BC01CD013E
:10043000620F711D811D911D42E0660F771F881F9D
:10044000991F4A95D1F70895CF92DF92EF92FF92CC
:100450000E94FF016B017C010E94FF016C197D0964
:100460008E099F09683E734081059105A8F3FF90AE
:10047000EF90DF90CF90089508954091D201509170
:10048000D3012091D0013091D10142175307B4F428
:100490009091E8009570E1F39091E80092FD19C009
:1004A0008093F1008091D2019091D30101968F73D6
:1004B0009927892B19F48EEF8093E8008091D2015F
:1004C0009091D30101969093D3018093D20181E062
:1004D000089580E00895EF92FF920F931F93CF93BA
:1004E000DF93F82E192FE62E042F81E0860F880F58
:1004F0000E943D0283E00E943D02CF2DD12FEC0EE1
:10050000FD2EF11CCE15DF05B9F007FF13C0FE016B
:1005100084910E943D02182F80E00E943D028123B9
:1005200021968111EFCFDF91CF911F910F91FF9015
:10053000EF9008958881EDCF81E0F5CFDF92EF92C3
:10054000FF920F931F93CF93DF93D82E8A01EB0175
:100550007B01E40EF51ECE15DF0559F0D7FE12C063
:10056000FE0184910E943D0221968111F4CF0FEF8C
:100570001FEFC801DF91CF911F910F91FF90EF9076
:10058000DF9008958881EECF0F931F93CF93DF9371
:100590001F92CDB7DEB782E0898342E450E065E286
:1005A00071E080E80E949E020E94BA01DC0112966E
:1005B0000D911C910115110589F0D801ED91FC9167
:1005C0000280F381E02DBE016F5F7F4FC801099566
:1005D00097FD04C0F80100851185ECCF89810F904B
:1005E000DF91CF911F910F910895615030F02091CC
:1005F000F100FC0120830196F8CF289884E68093CF
:10060000020208958F929F92AF92BF92CF92DF9293
:10061000EF92FF920F931F93CF93DF936C017B01B7
:100620008A0180910B01882309F458C0809103024C
:10063000882309F453C08091D60180FF05C08091C2
:10064000E00082608093E000E801B12C8AEFA82EE0
:1006500093E0892E2AE3922E209711F4BB20B9F162
:100660000E945501811106C0AA94AA20B9F10E94E6
:100670002402F2CF8C171D0611F00CF08C2F9FB7BF
:10068000F8948092E9002091E80025FD02C09FBF08
:10069000E3CF282F30E0C21BD30BF701815020F0AD
:1006A00041914093F100FACFE20EF31EBB2021F0FE
:1006B0009092E800B12CEBCF8091E80085FDE7CF68
:1006C0009092E800BB24B394209709F3F3CF5D9890
:1006D00084E68093D501101611063CF081E090E08D
:1006E000F6019383828310E000E0C801DF91CF918F
:1006F0001F910F91FF90EF90DF90CF90BF90AF9040
:100700009F908F900895CF93DF931F92CDB7DEB760
:100710006983DC01ED91FC910280F381E02D41E0E1
:1007200050E0BE016F5F7F4F09950F90DF91CF9131
:100730000895682F85E092E00C94830383E0809312
:10074000E9008091F200882319F08AE38093E800A1
:1007500008950E94550190E00895CF93DF931F9272
:10076000CDB7DEB7FC018485958597FD08C02FEFD6
:100770003FEF358724870F90DF91CF910895CE0109
:1007800001960E942B01019719F4898190E0F3CF23
:100790008FEF9FEFF0CF0F931F93CF93DF931F92B5
:1007A000CDB7DEB78C01FC018485958597FF0BC022
:1007B000CE0101960E942B01019771F4898190E08E
:1007C000F80195878487F801848595850F90DF91DE
:1007D000CF911F910F9108958FEF9FEFF1CFFC0103
:1007E0008485958597FD0BC09FB7F89482E0809330
:1007F000E9008091F2009FBF90E0019608959FB7B5
:10080000F89482E08093E9008091F2009FBF90E02D
:100810000895E3E1F1E09491EBEEF1E02491ECEC4A
:10082000F1E08491882309F46CC09923E9F0915098
:100830009F30D0F4E92FF0E0E05EFB4F0C94BF1343
:100840005C0460042F045404580434043404340455
:10085000630469046D047104770434047B0490918B
:1008600080009F7790938000E82FF0E0EE0FFF1F4D
:10087000E850FF4FA591B491EC912E2309F441C0AB
:100880008091D8019091D901A091DA01B091DB015A
:100890000197A109B1098093D8019093D901A09340
:1008A000DA01B093DB010895909180009F7DDACF4B
:1008B00090918000977FD6CF94B59F7794BDD4CF89
:1008C00094B59F7DFBCF909190009F77909390007F
:1008D000CBCF909190009F7DF9CF90919000977F22
:1008E000F5CF9091C0009F779093C000BDCF9091BD
:1008F000C0009F7DF9CF9091C200977F9093C20076
:10090000B3CF8091D8019091D901A091DA01B09133
:10091000DB010196A11DB11DBECF20E077FF04C011
:1009200071956195710921E0FC01828593856817B5
:1009300079070CF4CB01222339F02A9A229A90935A
:100940008B0080938A0008952A98F8CF20E077FFE3
:1009500004C071956195710921E0FC018285938540
:10096000681779070CF4CB01222339F0299A219AD0
:10097000909389008093880008952998F8CFCF93A9
:10098000DF93EB01BC0183E093E00E948D04BE0184
:1009900085E193E0DF91CF910C94A604FC010190D6
:1009A0000020E9F73197AF01481B590BBC0185E0E6
:1009B00092E00C9402038F929F92AF92BF920F939A
:1009C0001F93CF93DF93CDB7DEB7A1970FB6F894FF
:1009D000DEBF0FBECDBF19A2423008F44AE08E013F
:1009E0000F5D1F4F842E912CB12CA12CA5019401D9
:1009F0000E949D13E62FB901CA01EA30F4F4E05DCC
:100A0000D801EE938D01232B242B252B79F790E031
:100A100080E0109719F0CD010E94CE04A1960FB688
:100A2000F894DEBF0FBECDBFDF91CF911F910F9124
:100A3000BF90AF909F908F900895E95CE1CFCF93E6
:100A4000DF930E94CE04EC0187E491E00E94CE0483
:100A50008C0F9D1FDF91CF9108958091010390919C
:100A600002034091FF0250910003841795072CF474
:100A7000019690930203809301032091010330912A
:100A8000020342175307E1F470E060E090E080E079
:100A90000E94BF041092A2021092A10270E060E0D6
:100AA00090E080E00E94BF048AE491E00E941F056C
:100AB0001092A2021092A10282E591E00C94CE0461
:100AC00084E1829FF001839FF00D1124ED5FFC4FC4
:100AD000AFEBB2E001900D928A95E1F7EDCF8F92E6
:100AE0009F92AF92BF92CF92DF92EF92FF925C0102
:100AF0006A017B018EE30E949903C5010E94CE0426
:100B00008AE30E949903A7019601C701B6010E94DA
:100B10001616882379F087E591E00E94CE048AE0DA
:100B2000FF90EF90DF90CF90BF90AF909F908F900D
:100B30000C94990346015701E894B7F82FEF3FEF63
:100B40004FE75FE7C501B4010E94161681110DC081
:100B50002FEF3FEF4FE75FE7C501B4010E9433126B
:100B600018161CF48BE591E0D8CF2FEF3FEF4FE73D
:100B70005FE4C701B6010E94B71518161CF48FE593
:100B800091E0CBCF2FEF3FEF4FE75FECC701B6010E
:100B90000E94331287FDF3CF20E030E0A901C701A6
:100BA000B6010E94331287FF07C08DE20E949903AD
:100BB000F7FAF094F7F8F0942AE037ED43EA5BE3B4
:100BC000C701B6010E94C6134B015C010E942215A9
:100BD0006B017C010E9438129B01AC01C501B4017C
:100BE0000E94C5134B015C014AE0C701B6010E9497
:100BF000DB048EE20E94990320E030E040E251E401
:100C0000C501B4010E9499124B015C010E9422159A
:100C10006B01F12CE12C4AE0C701B6010E94DB0414
:100C2000C701B6010E9438129B01AC01C501B40195
:100C30000E94C51320E030E040E251E40E94991286
:100C40000E94221590E080E04AE00E94DB0467CF1A
:100C50008F929F92AF92BF92CF92DF92EF92FF92CC
:100C60008091A1029091A2028230910509F047C0C3
:100C700025E83BE642E852E46091B7027091B80281
:100C80008091B9029091BA020E94A9146B017C0173
:100C900025E83BE642E852E46091BB027091BC0259
:100CA0008091BD029091BE020E94A9149B01AC01EB
:100CB000C701B6010E94C61320E030E040E05FE3C8
:100CC0000E9499129B01AC016091D3027091D402F1
:100CD0008091D5029091D6020E94C51320E030E0A9
:100CE000A9010E943312881F8827881FFF90EF9068
:100CF000DF90CF90BF90AF909F908F9008958330FA
:100D00009105C9F420EE3EE245E652E46091B3025B
:100D10007091B4028091B5029091B6020E9499122E
:100D20009B01AC016091D7027091D8028091D902E9
:100D30009091DA02D1CF019709F043C02091AB0224
:100D40003091AC024091AD025091AE026091BF0271
:100D50007091C0028091C1029091C2020E94C5139D
:100D60004B015C012091AF023091B0024091B10281
:100D70005091B2026091C3027091C4028091C50289
:100D80009091C6020E94C5136B017C01A5019401DC
:100D9000C501B4010E9499124B015C01A7019601A3
:100DA000C701B6010E9499129B01AC01C501B401B3
:100DB0000E94C6130E94D21520E030E040EA50E4C1
:100DC00090CF80E093CF0E942618FC018081918112
:100DD000009711F00C94E01608951F920F920FB631
:100DE0000F9211242F933F934F935F936F937F93B1
:100DF0008F939F93AF93BF93EF93FF93CF93DF9323
:100E000000D01F92CDB7DEB783B1898389819091DD
:100E1000040289278A8380916B009A8189238B83BE
:100E20008B8180FF05C0E091F201F091F3010995FB
:100E30008B8181FF05C0E091F401F091F5010995E6
:100E40008B8182FF05C0E091F601F091F7010995D1
:100E50008B8183FF05C0E091F801F091F9010995BC
:100E60008B8184FF05C0E091FA01F091FB010995A7
:100E70008B8185FF05C0E091FC01F091FD01099592
:100E80008B8186FF05C0E091FE01F091FF0109957D
:100E90008B8187FF05C0E0910002F0910102099566
:100EA0008981809304020F900F900F90DF91CF9172
:100EB000FF91EF91BF91AF919F918F917F916F9132
:100EC0005F914F913F912F910F900FBE0F901F9008
:100ED00018951F920F920FB60F9211242F933F93E4
:100EE0008F939F93AF93BF938091DE019091DF0129
:100EF000A091E001B091E1013091DD0123E0230FE9
:100F00002D3758F50196A11DB11D2093DD01809369
:100F1000DE019093DF01A093E001B093E1018091A5
:100F2000E2019091E301A091E401B091E501019605
:100F3000A11DB11D8093E2019093E301A093E40110
:100F4000B093E501BF91AF919F918F913F912F9108
:100F50000F900FBE0F901F90189526E8230F029652
:100F6000A11DB11DD2CF1F920F920FB60F92112467
:100F70002F933F934F935F936F937F938F939F93A1
:100F8000AF93BF93EF93FF93E0911401F09115019C
:100F90000995FF91EF91BF91AF919F918F917F91B3
:100FA0006F915F914F913F912F910F900FBE0F90D6
:100FB0001F9018951F920F920FB60F9211242F9326
:100FC0003F934F935F936F937F938F939F93AF93D1
:100FD000BF93EF93FF93E0911201F09113010995F4
:100FE000FF91EF91BF91AF919F918F917F916F9101
:100FF0005F914F913F912F910F900FBE0F901F90D7
:1010000018951F920F920FB60F9211242F933F93B2
:101010004F935F936F937F938F939F93AF93BF9300
:10102000EF93FF93E0911001F09111010995FF9169
:10103000EF91BF91AF919F918F917F916F915F9150
:101040004F913F912F910F900FBE0F901F901895C9
:101050001F920F920FB60F9211242F933F934F932D
:101060005F936F937F938F939F93AF93BF93EF9310
:10107000FF93E0910E01F0910F010995FF91EF911F
:10108000BF91AF919F918F917F916F915F914F91A0
:101090003F912F910F900FBE0F901F9018951F92A8
:1010A0000F920FB60F9211242F933F934F935F939C
:1010B0006F937F938F939F93AF93BF93EF93FF9320
:1010C000E0910C01F0910D010995FF91EF91BF9115
:1010D000AF919F918F917F916F915F914F913F91D0
:1010E0002F910F900FBE0F901F9018951F920F9287
:1010F0000FB60F9211248F939F938091E1009091EE
:10110000E100937F9093E10083FF0FC01092E9000C
:1011100091E09093EB001092EC0092E39093ED003D
:101120001092030298E09093F00082FF22C093E0B7
:101130009093E9009091F200992319F09AE390932B
:10114000E8009091D501992341F09091D5019150FB
:101150009093D501911101C05D9A9091020299235B
:1011600041F090910202915090930202911101C0BE
:10117000289A84FF18C08091E2008E7E816080935F
:10118000E2008091E1008F7E8093E1008091D601A2
:101190008E7E80618093D6019F918F910F900FBEBC
:1011A0000F901F90189580FFF7CF8091E2008E7E00
:1011B00080618093E2008091E1008E7E8093E10067
:1011C0008091D6018E7E8160E5CF1F920F920FB67F
:1011D0000F921124CF92DF92EF92FF920F931F9301
:1011E0002F933F934F935F936F937F938F939F932F
:1011F000AF93BF93EF93FF93CF93DF93CDB7DEB75A
:101200006C97DEBFCDBF1092E9008091E80083FFAC
:1012100025C068E0CE0145960E94F50282EF8093DA
:10122000E8008D8987FF39C09091E80090FFFCCFDE
:10123000982F907609F034C19E894F89588D2F8957
:10124000F88C911131C0803861F58091D70180937D
:10125000F1001092F1008EEF8093E8006C960FB6CB
:10126000F894DEBF0FBECDBFDF91CF91FF91EF911C
:10127000BF91AF919F918F917F916F915F914F91AE
:101280003F912F911F910F91FF90EF90DF90CF90A2
:101290000F900FBE0F901F9018959EEF9093E8004F
:1012A000C7CF1092F100D5CF913059F48111D3CF2F
:1012B0004130510581F68091D7018D7F8093D70110
:1012C000CACF933049F48111C6CF4130510519F688
:1012D0008091D7018260F2CF953041F48091E8008F
:1012E00080FFFCCF20682093E300B5CF963009F053
:1012F000A9C00B8D1C8D22E01092E9001092D30141
:101300001092D201F2122EC01092D1011092D0018F
:101310000E94C4021F8299E09983FA8291E09E8321
:1013200090EA98879AEF99872091D2013091D30162
:10133000275F3F4F3C832B838D831092E9001092EF
:10134000D3011092D2011093D1010093D00149E052
:1013500050E0BE016F5F7F4F80E00E949E020E94BE
:10136000C40279CF1093D1010093D0010E94BA0139
:10137000DC0112960D911C910115110509F451C162
:10138000D801ED91FC910480F581E02DBE016B5EEA
:101390007F4FC8010995009709F03EC1F80100850B
:1013A0001185EACFF3E0FF120EC08F89882309F47C
:1013B00040C0823061F440E862E180E991E00E943F
:1013C0006B02811148CF81E28093EB0047CF8130DF
:1013D00029F440E862E18DE791E0F1CF833099F79D
:1013E0000E94BA01DC011296ED90FC908E010F5F15
:1013F0001F4F6801E114F10479F0D701ED91FC91E0
:101400000680F781E02DB801C7010995080F111D6D
:10141000F701E084F184EECFD8011C92F60101902F
:101420000020E9F73197BF016C197D0940E0C60142
:10143000C6CF67E671E0FB01449150E080E80E946E
:101440009E0209CF973009F4BECF983021F481E095
:101450008093F10000CF993009F0FDCE837009F040
:10146000B2CFEDE1F1E081E031E096E3219122237A
:1014700071F08093E9003093EB00DF0111972C911C
:101480002093EC009093ED008F5F873079F78EE723
:101490008093EA001092EA008F8980930302DBCEEA
:1014A0008B8D9C8D1092E9001092D3011092D20185
:1014B0009093D1018093D001898D811192C08E8942
:1014C0009D89913A49F4813209F07DCF47E050E09F
:1014D00064E071E080E0B3CF913209F074CF8332E1
:1014E00069F48F89988DB0E0A0E08093000190931B
:1014F0000101A0930201B0930301ADCE803269F4E3
:101500008091E80082FFFCCF67E084E091E00E94D8
:10151000F5028BEF8093E8009ECE823209F09BCEDD
:101520008F8980930B01EEEFFFE7859194918B3FBC
:101530009C4D51F1E0E0F8E08091040190910501AB
:10154000A0910601B0910701803B9440A105B1052F
:10155000F1F480910B0180FD1AC0EE3F8AE0F8079C
:1015600089F587E797E79183808380916000809376
:10157000D40188E19BE00FB6F894A89580936000B1
:101580000FBE9093600067CEEEEFFAE0D5CF80817A
:1015900091818737974709F05ECEA89580916000CA
:1015A0008861809360008091D40180936000EE3F59
:1015B0002AE0F20789F08091FE0A9091FF0A918358
:1015C000808349CE808191818737980751F290932B
:1015D000FF0A8093FE0AC5CF1092FF0A1092FE0AFE
:1015E0003ACE0E94BA01DC0112960D911C910115B0
:1015F000110509F4E8CED801ED91FC910190F0813C
:10160000E02DBE016B5E7F4FC8010995811123CE8D
:10161000F80100851185EBCF181619060CF41BCEC6
:10162000D2CEF1E0FF12BECE6BE671E004CF1F9286
:101630000F920FB60F9211242F933F934F935F9306
:101640008F939F93EF93FF938091DC018F5F809343
:10165000DC01F894E3E0F3E08685978578942485AF
:101660003585AC01421B530B958784875187408792
:10167000F894E5E1F3E086859785789424853585AF
:10168000AC01421B530B9587848751874087FF919C
:10169000EF919F918F915F914F913F912F910F907B
:1016A0000FBE0F901F9018950F931F93CF93DF934A
:1016B000EC0188819981009759F02A813B81261796
:1016C000370730F081E0DF91CF911F910F9108959E
:1016D0008B016F5F7F4F0E946917009759F09983C4
:1016E00088831B830A832C813D81232B59F7FC01BE
:1016F0001082E8CF80E0E7CFEF92FF920F931F9325
:10170000CF93DF93EC017B018A01BA010E94540B55
:1017100028813981811114C02115310519F0C901C1
:101720000E94E016198218821D821C821B821A8276
:10173000CE01DF91CF911F910F91FF90EF9008950F
:101740001D830C83B701C9010E943418F1CF2F9279
:101750003F924F925F926F927F928F929F92AF9241
:10176000BF92CF92DF92EF92FF920F931F93CF938E
:10177000DF9300D000D000D0CDB7DEB783B1809327
:101780000402109208021092070288EE93E0A0E093
:10179000B0E08093090290930A02A0930B02B093E9
:1017A0000C0287E291E090930602809305028FEF8E
:1017B0009FEF90931202809311021A8219821C8269
:1017C0001B821E821D8241E050E063E671E0CE0183
:1017D00001960E947C0B8FE391E090930403809329
:1017E000030310920603109205031092080310924F
:1017F000070310920A031092090369817A81611527
:10180000710531F04D815E8185E093E00E947C0B93
:1018100010920C0310920B0384EA91E090930E0354
:1018200080930D0389E391E0909304038093030375
:10183000CE0101960E94E5061A8219821C821B8243
:101840001E821D8241E050E065E671E0CE01019606
:101850000E947C0B8FE391E0909316038093150315
:10186000109218031092170310921A031092190382
:1018700010921C0310921B0369817A816115710516
:1018800031F04D815E8187E193E00E947C0B1092E4
:101890001E0310921D0384EA91E09093200380932D
:1018A0001F0385E491E09093160380931503CE0106
:1018B00001960E94E50605E010E0109356020093A1
:1018C00055028BE0282E312C30925802209257027C
:1018D00084E090E090935A02809359028DE090E06A
:1018E00090935C0280935B02412C512C612C90E41C
:1018F000792E40925D0250925E0260925F02709279
:1019000060022DEC822E2CEC922EA92C2DE3B22E0F
:101910008092610290926202A0926302B09264028D
:10192000C12CD12CE12C3FE3F32EC0926502D09262
:101930006602E0926702F0926802109269021092C9
:101940006A0210926B0210926C0210926D02109259
:101950006E0210926F021092700210927102109239
:101960007202109273021092740210927502109219
:10197000760210927702109278021092A2021092D0
:10198000A10284E190E09093A4028093A3021092BC
:10199000A6021092A5021092A8021092A70210921D
:1019A000AA021092A90250E040E069E471E085EAE1
:1019B00092E00E947C0B1092AB021092AC0210924B
:1019C000AD021092AE021092AF021092B0021092CD
:1019D000B1021092B2021092B3021092B4021092AD
:1019E000B5021092B6021092B7021092B80210928D
:1019F000B9021092BA021092BB021092BC0210926D
:101A0000BD021092BE021092BF021092C00210924C
:101A1000C1021092C2021092C3021092C40210922C
:101A2000C5021092C6021092C7021092C80210920C
:101A3000C9021092CA021092CB021092CC021092EC
:101A4000CD021092CE021092CF021092D0021092CC
:101A5000D1021092D2021093DC020093DB0230928A
:101A6000DE022092DD0284E090E09093E002809319
:101A7000DF028DE090E09093E2028093E1024092D9
:101A8000E3025092E4026092E5027092E6028092D4
:101A9000E7029092E802A092E902B092EA02C092B4
:101AA000EB02D092EC02E092ED02F092EE02109284
:101AB000EF021092F0021092F1021092F2021092D4
:101AC000F3021092F4021092F5021092F6021092B4
:101AD000F7021092F8021092F9021092FA02109294
:101AE000FB021092FC021092FD021092FE02109274
:101AF00000031092FF0210920203109201036AE0A9
:101B000070E085EA92E00E94540B80E090E0A8EC3F
:101B1000B2E48093790290937A02A0937B02B0930F
:101B20007C0210927D0210927E0210927F0210922F
:101B3000800210928102109282021092830210920F
:101B400084021092850210928602109287021092EF
:101B500088021092890210928A0210928B021092CF
:101B60008C0210928D0210928E0210928F021092AF
:101B7000900210929102109292021092930210928F
:101B8000940210929502109296021092970210926F
:101B900098021092990210929A0210929B0210924F
:101BA0009C0210929D0210929E0210929F0210922F
:101BB000A00226960FB6F894DEBF0FBECDBFDF9110
:101BC000CF911F910F91FF90EF90DF90CF90BF903A
:101BD000AF909F908F907F906F905F904F903F90CD
:101BE0002F900895CF93DF9300D000D000D0CDB7D1
:101BF000DEB7789484B5826084BD84B5816084BD8D
:101C000085B5826085BD85B5816085BD80916E009A
:101C1000816080936E0010928100809181008260CB
:101C20008093810080918100816080938100809108
:101C30008000816080938000809191008260809319
:101C4000910080919100816080939100809190003B
:101C50008160809390008091C10084608093C10076
:101C60008091C10082608093C1008091C100816039
:101C70008093C1008091C30081608093C3008091F4
:101C8000C00082608093C0008091C2008160809318
:101C9000C20080917A00846080937A0080917A00FB
:101CA000826080937A0080917A00816080937A00CC
:101CB00080917A00806880937A00109203021092DB
:101CC000D7011092D6018091D70081608093D70010
:101CD00080EA8093D80089B5806189BD89B582602A
:101CE00089BD09B400FEFDCF0E9424028091D80076
:101CF0008F7C80618093D8008091E000807F80930A
:101D0000E0008091E1008E7E8093E1008DE0809381
:101D1000E200559A209A8FEF9FEF909312028093E2
:101D2000110288E691E00E941F05F8941092C0000D
:101D30008AE08093C1001092C2001092C3002091EB
:101D4000A3023091A402A0E8BEE30E948E1329E012
:101D500096958795779567952A95D1F76150710982
:101D6000862F871B7093BF008093D10084E08093FF
:101D70007200789487E691E00E941F0583E791E066
:101D80000E941F05F89482EA8093800089E1809385
:101D9000810084EA91E090938700809386001092FE
:101DA00089001092880010928B0010928A00109285
:101DB0008D0010928C00F89491E0909368008091CF
:101DC0006B00806180936B0024E831E03093FB016D
:101DD0002093FA019BBB809104028F7E80930402C2
:101DE00083B1909104028071892B809304027894CE
:101DF00086E691E0909315018093140180916A002A
:101E00008F7C806180936A00EE9A789482E791E0FB
:101E10000E941F052E98269A2A98229A80E891E01F
:101E20000E941F0524982C9A6A98729A8CB182FBA2
:101E3000882780F98093140393B1809114039295BD
:101E400091708927809313038FE791E00E941F050B
:101E50002D98259A2998219A80E891E00E941F05E3
:101E60006E98769A8098889A8FB1817080932603B5
:101E70009CB18091260396FB992790F9892780933E
:101E800025038FE791E00E941F0561E08091DD024C
:101E90000E94CE0161E08091DF020E94CE0161E0EC
:101EA0008091E1020E94CE0160E080E00E94CE01BC
:101EB00060E081E00E94CE0188EA8093800081E1A9
:101EC0008093810080E991E0909387008093860061
:101ED00010928D0010928C0089E094E09093110193
:101EE00080931001809169008F7C806180936900EC
:101EF000EA9AF8941092D8011092D9011092DA015E
:101F00001092DB017894F8941092D8011092D901C4
:101F10001092DA011092DB01789430E0232E30E049
:101F2000332E22E030E0309300032093FF028091B3
:101F300001039091020334E1389FF001399FF00DC5
:101F40001124E758FD4FAFEBB2E084E101900D9210
:101F50008A95E1F781E090E09093A2028093A1023C
:101F60008091DC01882309F45DC2823020F08AE888
:101F700091E00E941F05A0910B03B0910C03BA835E
:101F8000A9836091A3027091A40290E080E00E9476
:101F9000381220E030E04AE754E40E94A9146B01B3
:101FA0007C0129813A81B901330F880B990B0E947A
:101FB0003A1225E83BE642E852E40E94A914A70140
:101FC00096010E94A9142B013C0160911D037091A0
:101FD0001E03072E000C880B990B0E943A1225E86D
:101FE0003BE642E852E40E94A914A70196010E9430
:101FF000A9144B015C01AC019B01C301B2010E9419
:10200000C61320E030E040E05FE30E9499126B01CC
:102010007C01F89480911103909112039E838D832B
:102020007894F894009123031091240378941092EB
:10203000DC018091B3029091B402A091B502B091FD
:10204000B60289839A83AB83BC83A3019201C50145
:10205000B4010E94C51320E030E040E651E40E9444
:10206000A9142AE037ED43EA5CE30E949912298122
:102070003A814B815C810E94C6139B01AC01209385
:10208000B3023093B4024093B5025093B602698113
:102090007A818B819C810E94C61320E030E040E071
:1020A0005FE30E9499122B013C010E94A4149B0142
:1020B000AC01C701B6010E9499122AE037ED43EA4C
:1020C0005CE30E9499122091AB023091AC024091E6
:1020D000AD025091AE020E94C6134B015C0180928A
:1020E000AB029092AC02A092AD02B092AE02C301DC
:1020F000B2010E94C4159B01AC01C701B6010E9448
:1021000099122AE037ED43EA5CE30E9499129B01A1
:10211000AC016091AF027091B0028091B1029091D8
:10212000B2020E94C6136093AF027093B002809314
:10213000B1029093B202AD81BE81BD01BB0F880B8D
:10214000990B0E943A126093B7027093B802809381
:10215000B9029093BA02B801110F880B990B0E9433
:102160003A126093BB027093BC028093BD029093BD
:10217000BE02B501A40182EB91E00E946F0540917F
:10218000AF025091B0026091B1027091B20284EB43
:1021900091E00E946F0520EE3EE245E652E4609138
:1021A000B3027091B4028091B5029091B6020E9480
:1021B0009912AB01BC0186EB91E00E946F05809102
:1021C000A1029091A202019709F00AC12091AB02ED
:1021D0003091AC024091AD025091AE026091BF02CD
:1021E0007091C0028091C1029091C2020E94C513F9
:1021F0002B013C012091AF023091B0024091B1021D
:102200005091B2026091C3027091C4028091C502E4
:102210009091C6020E94C5136B017C01A30192013B
:10222000C301B2010E9499124B015C01A701960102
:10223000C701B6010E9499129B01AC01C501B4010E
:102240000E94C6130E94D2154B015C01A3019201AA
:10225000C701B6010E94451420EE3EE245E652E475
:102260000E9499126B017C0120EE3EE245E652E4A9
:102270006091B3027091B4028091B5029091B60260
:102280000E9499129B01AC01C701B6010E94C513BF
:102290006B017C0120E030E044E353E40E94B71579
:1022A00018162CF420E030E044EB53E4EDCF20E0AE
:1022B00030E044E353ECC701B6010E94331287FFBC
:1022C0000BC020E030E044EB53E4C701B6010E94AC
:1022D000C6136B017C01EBCF20E030E040EE50E410
:1022E000C501B4010E94331287FF03C0C12CD12C59
:1022F000760120E030E040E850E4C501B4010E94DE
:10230000331287FF03C0812C912C5401B501A40125
:102310008CEB91E00E946F05B701A60187EC91E07C
:102320000E946F0520E030E048E452E4C501B401AA
:102330000E9499129F7720E030E048E452E40E9426
:10234000B715181634F4812C912C90EAA92E90E43C
:10235000B92E20E030E040E450E4C701B6010E940D
:1023600099129F7720E030E048EC52E40E94B715C4
:10237000181634F4C12CD12C88E4E82E82E4F82E0F
:1023800020E030E040E251E4C501B4010E9499121E
:102390004B015C01A7019601C701B6010E94C6135B
:1023A000A50194010E94C6130E941B152B0120E079
:1023B00030E040E450E4C701B6010E9499129B014D
:1023C000AC01C501B4010E94C5130E941B15CB01CD
:1023D000B2010E94BF040E94280681110E942D05AF
:1023E0008091A1029091A202029759F464E670E0F4
:1023F00088E790E00E94BF040E94280681110E9495
:102400002D058091A1029091A202039759F462E3F5
:1024100070E084EC9FEF0E94BF040E9428068111A7
:102420000E942D052114310409F47BCD0E94000087
:1024300078CDCF93DF9385EA92E00E94E506CFE363
:10244000D1E0D0931603C093150387E193E00E9477
:10245000E506D0930403C093030385E093E0DF9186
:10246000CF910C94E5060E94751208F481E008955E
:10247000E89409C097FB3EF490958095709561951E
:102480007F4F8F4F9F4F9923A9F0F92F96E9BB27D4
:102490009395F695879577956795B795F111F8CF50
:1024A000FAF4BB0F11F460FF1BC06F5F7F4F8F4FBB
:1024B0009F4F16C0882311F096E911C0772321F0B1
:1024C0009EE8872F762F05C0662371F096E8862F49
:1024D00070E060E02AF09A95660F771F881FDAF7A0
:1024E000880F9695879597F90895990F0008550FCD
:1024F000AA0BE0E8FEEF16161706E807F907C0F08A
:1025000012161306E407F50798F0621B730B840B91
:10251000950B39F40A2661F0232B242B252B21F46B
:1025200008950A2609F4A140A6958FEF811D811D0B
:1025300008950E94AC120C941D130E940F1338F0E2
:102540000E94161320F0952311F00C9406130C949E
:102550000C1311240C9451130E942E1370F3959FA9
:10256000C1F3950F50E0551F629FF001729FBB278A
:10257000F00DB11D639FAA27F00DB11DAA1F649F26
:102580006627B00DA11D661F829F2227B00DA11DD9
:10259000621F739FB00DA11D621F839FA00D611D5F
:1025A000221F749F3327A00D611D231F849F600D80
:1025B000211D822F762F6A2F11249F5750409AF0A9
:1025C000F1F088234AF0EE0FFF1FBB1F661F771F35
:1025D000881F91505040A9F79E3F510580F00C9400
:1025E00006130C9451135F3FE4F3983ED4F38695A1
:1025F00077956795B795F795E7959F5FC1F7FE2BA0
:10260000880F911D9695879597F9089597F99F677B
:1026100080E870E060E008959FEF80EC089500246A
:102620000A941616170618060906089500240A9437
:1026300012161306140605060895092E0394000CBD
:1026400011F4882352F0BB0F40F4BF2B11F460FF4C
:1026500004C06F5F7F4F8F4F9F4F089557FD905875
:10266000440F551F59F05F3F71F04795880F97FB56
:10267000991F61F09F3F79F0879508951216130610
:102680001406551FF2CF4695F1DF08C0161617063F
:102690001806991FF1CF8695710561050894089574
:1026A000E894BB2766277727CB0197F908952F92E7
:1026B0003F924F925F926F927F928F929F92AF92D2
:1026C000BF92CF92DF92EF92FF920F931F93CF931F
:1026D000DF93CDB7DEB7CA1BDB0B0FB6F894DEBFB6
:1026E0000FBECDBF09942A88398848885F846E84DC
:1026F0007D848C849B84AA84B984C884DF80EE8026
:10270000FD800C811B81AA81B981CE0FD11D0FB62E
:10271000F894DEBF0FBECDBFED010895A29FB001BA
:10272000B39FC001A39F700D811D1124911DB29F05
:10273000700D811D1124911D0895A1E21A2EAA1B6E
:10274000BB1BFD010DC0AA1FBB1FEE1FFF1FA21761
:10275000B307E407F50720F0A21BB30BE40BF50B5E
:10276000661F771F881F991F1A9469F760957095E7
:10277000809590959B01AC01BD01CF010895EE0FAE
:10278000FF1F0590F491E02D09945058BB27AA270C
:102790000E94DD130C941D130E940F1338F00E9449
:1027A000161320F039F49F3F19F426F40C940C13FF
:1027B0000EF4E095E7FB0C940613E92F0E942E130C
:1027C00058F3BA17620773078407950720F079F466
:1027D000A6F50C9450130EF4E0950B2EBA2FA02DF5
:1027E0000B01B90190010C01CA01A0011124FF27BE
:1027F000591B99F0593F50F4503E68F11A16F040B9
:10280000A22F232F342F4427585FF3CF46953795B7
:102810002795A795F0405395C9F77EF41F16BA0B7C
:10282000620B730B840BBAF09150A1F0FF0FBB1F2A
:10283000661F771F881FC2F70EC0BA0F621F731F73
:10284000841F48F4879577956795B795F7959E3FD0
:1028500008F0B0CF9395880F08F09927EE0F979561
:10286000879508950E940F1360F080E891E009F4C5
:102870009EEF0E94161328F040E851E071F45EEFDD
:102880000CC00C940C130C945013E92FE0780E94A8
:102890002E1340F3092E052AB1F3261737074807F0
:1028A000590738F00E2E07F8E02569F0E025E064BE
:1028B0000AC0EF6307F8009407FADB01B9019D0134
:1028C000DC01CA01AD01EF930E94C0140E941D13E8
:1028D0000E9475145F91552339F02BED3FE049E4D8
:1028E00050FD49EC0C94C6130895DF93DD27B92FF2
:1028F000BF7740E85FE31616170648075B0718F432
:10290000D92F0E94BC159F938F937F936F930E9442
:102910001216ECEAF0E00E9451150E941D132F914F
:102920003F914F915F910E94AC12DD2351F090587E
:10293000A2EA2AED3FE049EC5FE3D0785D270E94F0
:10294000DD13DF910C941D130E947A15E3950C940E
:10295000A3150E94BD140C941D130E94161358F069
:102960000E940F1340F029F45F3F29F00C940613E6
:1029700051110C9451130C940C130E942E1368F3F4
:102980009923B1F3552391F3951B550BBB27AA2728
:1029900062177307840738F09F5F5F4F220F331F62
:1029A000441FAA1FA9F335D00E2E3AF0E0E832D02A
:1029B00091505040E695001CCAF72BD0FE2F29D02D
:1029C000660F771F881FBB1F261737074807AB07FF
:1029D000B0E809F0BB0B802DBF01FF2793585F4F74
:1029E0003AF09E3F510578F00C9406130C94511365
:1029F0005F3FE4F3983ED4F3869577956795B79556
:102A0000F7959F5FC9F7880F911D9695879597F960
:102A10000895E1E0660F771F881FBB1F62177307D9
:102A20008407BA0720F0621B730B840BBA0BEE1FEE
:102A300088F7E09508950E9422156894B1110C94CE
:102A4000511308950E94361388F09F5798F0B92FBC
:102A50009927B751B0F0E1F0660F771F881F991FD3
:102A60001AF0BA95C9F714C0B13091F00E94501312
:102A7000B1E008950C945013672F782F8827B85F22
:102A800039F0B93FCCF3869577956795B395D9F72B
:102A90003EF490958095709561957F4F8F4F9F4F35
:102AA0000895DF93CF931F930F93FF92EF92DF92DE
:102AB0007B018C01689406C0DA2EEF010E94AC12F3
:102AC000FE01E894A5912591359145915591A6F384
:102AD000EF010E94DD13FE019701A801DA9469F766
:102AE000DF90EF90FF900F911F91CF91DF910895AC
:102AF0000C940C130E943613D8F3E894E0E0BB2743
:102B00009F57F0F02AED3FE049EC06C0EE0FBB0FF7
:102B1000661F771F881F28F0B23A62077307840781
:102B200028F0B25A620B730B840BE3959A9572F7F7
:102B3000803830F49A95BB0F661F771F881FD2F735
:102B400090480C941D16EF93E0FF07C0A2EA2AED0F
:102B50003FE049EC5FEB0E94DD130E941D130F90D4
:102B6000039401FC9058E9EDF0E00C9430160E94BB
:102B7000751208F48FEF08959B01AC0160E070E0DE
:102B800080E89FE30C94A9149F930E947A150F90FC
:102B900007FCEE5F0C94A31519F416F40C940C13B7
:102BA0000C941B160E943613B8F39923C9F3B6F39D
:102BB0009F57550B87FF0E9429160024A0E640EA84
:102BC000900180585695979528F4805C660F771F82
:102BD000881F20F026173707480730F4621B730B55
:102BE000840B202931294A2BA69517940794202578
:102BF00031254A2758F7660F771F881F20F02617C0
:102C00003707480730F4620B730B840B200D311D1E
:102C1000411DA09581F7B901842F9158880F969591
:102C2000879508959B01AC010C9499120E9475122E
:102C3000880B990B08959F3F31F0915020F48795B0
:102C400077956795B795880F911D9695879597F914
:102C5000089591505040660F771F881FD2F708954E
:102C60009F938F937F936F93FF93EF939B01AC019F
:102C70000E949912EF91FF910E9451152F913F915F
:102C80004F915F910C9499120F931F93CF93DF9301
:102C90008230910510F482E090E0E0912903F091F8
:102CA0002A0330E020E0B0E0A0E0309799F421154D
:102CB000310509F44AC0281B390B24303105D8F5F9
:102CC0008A819B816115710589F1FB019383828360
:102CD000FE0111C0408151810281138148175907BB
:102CE000E0F04817590799F4109761F012960C9389
:102CF000129713961C933296CF01DF91CF911F91BB
:102D00000F9108950093290310932A03F4CF2115FE
:102D1000310551F04217530738F0A901DB019A0140
:102D2000BD01DF01F801C1CFEF01F9CF90932A0374
:102D300080932903CDCFFE01E20FF31F819391937E
:102D40002250310939832883D7CF2091270330912E
:102D50002803232B41F4209118013091190130935D
:102D60002803209327032091160130911701211584
:102D7000310541F42DB73EB740911A0150911B0126
:102D8000241B350BE0912703F0912803E217F3078A
:102D9000A0F42E1B3F0B2817390778F0AC014E5FCB
:102DA0005F4F2417350748F04E0F5F1F50932803DD
:102DB00040932703819391939FCFF0E0E0E09CCF75
:102DC000CF93DF930097E9F0FC01329713821282D0
:102DD000A0912903B0912A03ED0130E020E0109783
:102DE000A1F420813181820F931F2091270330911C
:102DF00028032817390709F061C0F0932803E093EE
:102E00002703DF91CF910895EA01CE17DF07E8F598
:102E10004A815B819E0141155105B1F7E901FB83B0
:102E2000EA8349915991C40FD51FEC17FD0761F44E
:102E3000808191810296840F951FE901998388838F
:102E4000828193819B838A83F0E0E0E012968D91EA
:102E50009C9113970097B9F52D913C911197CD0155
:102E60000296820F931F2091270330912803281781
:102E7000390739F6309751F510922A031092290339
:102E8000B0932803A0932703BCCFD383C283408190
:102E90005181840F951FC817D90761F44E5F5F4FAA
:102EA00088819981480F591F518340838A819B8172
:102EB000938382832115310509F0B0CFF0932A0363
:102EC000E09329039ECFFD01DC01C0CF1382128263
:102ED000D7CFB0E0A0E0EFE6F7E10C9459138C01F6
:102EE000009751F4CB010E9444168C01C801CDB764
:102EF000DEB7E0E10C947513FC01E60FF71F9C01AF
:102F000022503109E217F30708F49DC0D901CD9191
:102F1000DC911197C617D70798F0C530D10530F36B
:102F2000CE0104978617970708F3C61BD70B229785
:102F3000C193D1936D937C93CF010E94E016D6CFBD
:102F40005B01AC1ABD0A4C018C0E9D1EA091290399
:102F5000B0912A03512C412CF12CE12C109731F522
:102F600080912703909128038815990509F05CC08A
:102F70004616570608F058C0809116019091170127
:102F8000009741F48DB79EB740911A0150911B01F3
:102F9000841B950BE817F90708F055C0F093280338
:102FA000E0932703F90171836083A0CF8D919C91F9
:102FB000119712966C90129713967C901397A81500
:102FC000B90559F56C0142E0C40ED11CCA14DB04EA
:102FD00020F1AC014A195B09DA011296159780F0CD
:102FE0006282738251834083D9016D937C93E11493
:102FF000F10471F0D7011396FC93EE93129776CFFC
:1030000022968C0F9D1FF90191838083F301EFCFEE
:10301000F0932A03E093290369CF4816590608F470
:103020002C017D01D3019ACFCB010E9444167C0173
:10303000009749F0AE01B8010E942B18C8010E9408
:10304000E016870153CF10E000E050CF81E090E020
:10305000F8940C943B18FB01DC0102C001900D9226
:1030600041505040D8F70895FB01DC0101900D92CA
:103070000020E1F7089511E0C0E0D1E004C0FE01B6
:103080000E94BF132196C130D107C9F7F894FFCF32
:10309000FFFFFFFF00E10000000000003C023C02D7
:1030A0003C023C023C0200002B03800000C18081F6
:1030B0000000000000000083030203A9039E03EF49
:1030C00003AD03CB03000000008D0400000000E30B
:1030D0000600000000A6040D0A002D3E2049444CC5
:1030E0004500446F6E65006E616E00696E66006F2C
:1030F0007666004C0052002F496E697454696D6504
:1031000072002F496E69744D6F746F722829002FF9
:10311000496E6974456E632829004D69737365644F
:1031200020616E2075706461746520696E20526F35
:10313000626F743A3A526F626F744C6F6F702829E5
:1031400021007800790074686574610044697374C3
:10315000616E63653A2000416E676C653A2000003D
:00000001FF
