:100000000C9401010C94870C0C94600C0C94390C2A
:100010000C94120C0C9429010C9429010C94EB0BF8
:100020000C9429010C94250B0C94AE0C0C941D0D12
:100030000C9429010C9429010C9429010C94290198
:100040000C9429010C9429010C9429010C94290188
:100050000C9429010C9429010C9429010C94A10BF6
:100060000C9429010C9429010C9429010C94290168
:100070000C9429010C9429010C9429010C94290158
:100080000C9429010C9429010C9429010C94290148
:100090000C9429010C9429010C9429010C94290138
:1000A0000C9429010C944F0F0C942901084AD73B5A
:1000B0003BCE016E84BCBFFDC12F3D6C74319ABD37
:1000C00056833DDA3D00C77F11BED9E4BB4C3E915B
:1000D0006BAAAABE000000803F05A84CCDB2D44E4A
:1000E000B93836A9020C50B9918688083CA6AAAA4C
:1000F0002ABE000000803F00000000002300260010
:1001000029002C002F00080B000202020000090445
:100110000000010202000005240010010524010175
:1001200001042402060524060001070581031000CE
:100130004009040100020A00000007050202400015
:1001400000070583024000000403090412010002B5
:10015000EF020140FB1F0023000101020301506F69
:100160006C6F6C7520436F72706F726174696F6E23
:1001700000506F6C6F6C7520412D53746172203389
:100180003255340000000000240027002A002D0012
:10019000300000000000250028002B002E00310058
:1001A000040404040403040502020202040302021C
:1001B00002020606060606060404020202040404FD
:1001C0000802011040804010204080408008020456
:1001D00001804020100201108010204040200000CB
:1001E000000200090F0000030401000C00000000E1
:1001F0000000000000000000000000000000D90F17
:10020000BF0F11241FBECFEFDAE0DEBFCDBF23E06A
:10021000ACE4B2E001C01D92A03DB207E1F712E0EC
:10022000A0E0B1E0E4EDFAE302C005900D92AC3439
:10023000B107D9F710E0C0E0D1E004C02197FE017A
:100240000E94E118CF3FD107C9F70E9466120C94B3
:100250005D1D0C940000FC0180917B02882311F14C
:100260003FB7F89482E08093E9002091F200822F5A
:1002700090E01816190614F481E090E0882339F014
:10028000289844E640937A024091F100408322236B
:1002900039F02091F200211103C02BE62093E800F1
:1002A0003FBF08958FEF9FEF08952FB7F89483E035
:1002B0008093E9009091E800892F807295FF04C037
:1002C0009091F20080E4891B2FBF08953FB13170F7
:1002D0002CB126FB222720F92327EAEBF3E08089C3
:1002E000418966857785082E000C990B8327042E9B
:1002F000000C550B4227841B950B860F971F978781
:100300008687208B318B0895CF93DF938CB1482F54
:1003100050E0559547955595479593B1892F90E0B5
:1003200024E0959587952A95E1F784279527E8EAB3
:10033000F3E06089A189C685D7859A0121703327AA
:10034000062E000C770B26273727BC016170772714
:100350000A2E000CBB0B6A277B27261B370B2C0FA2
:100360003D1F378726878170808B4170418BDF91DD
:10037000CF9108958091620281110DC082E0809337
:100380005E0284E080935F0210926102109260022C
:1003900081E0809362028EE592E0089581508F3073
:1003A00008F047C0E82FF0E0E852FE4F0C94E11847
:1003B000F501F901E701ED01F10119021902190234
:1003C000FC01020206020A021002190214028091C4
:1003D00080008F77809380000895809180008F7DCA
:1003E000F9CF80918000877FF5CF84B58F7784BD6A
:1003F000089584B58F7DFBCF809190008F77809397
:1004000090000895809190008F7DF9CF80919000A9
:10041000877FF5CF8091C0008F778093C0000895CB
:100420008091C0008F7DF9CF8091C200877F80933B
:10043000C20008951F93CF93DF93282F30E0F90176
:10044000E252FE4F8491F901E154FE4FD491F9013B
:10045000E056FE4FC491CC23A9F0162F81110E94C3
:10046000CE01EC2FF0E0EE0FFF1FEE56FE4FA591F0
:10047000B4918FB7F894EC91111108C0D095DE2398
:10048000DC938FBFDF91CF911F910895DE2BF8CFC2
:10049000CF93DF9390E0FC01E154FE4F249180560E
:1004A0009E4FFC0184918823D1F090E0880F991F22
:1004B000FC01EC57FE4FA591B491FC01EE56FE4FA6
:1004C000C591D49161110EC09FB7F8948C91E22F21
:1004D000E0958E238C932881E223E8839FBFDF91F0
:1004E000CF9108958FB7F894EC91E22BEC938FBFE6
:1004F000F6CF3FB7F89480915A0290915B02A09199
:100500005C02B0915D0226B5A89B05C02F3F19F093
:100510000196A11DB11D3FBFBA2FA92F982F882783
:10052000BC01CD01620F711D811D911D42E0660F5E
:10053000771F881F991F4A95D1F708958F929F9230
:10054000AF92BF92CF92DF92EF92FF924B015C018C
:100550000E9479026B017C010E9479026C197D096D
:100560008E099F09683E734081059105A8F321E03B
:10057000821A9108A108B10888EEC80E83E0D81E3F
:10058000E11CF11C81149104A104B10429F7FF902E
:10059000EF90DF90CF90BF90AF909F908F90089595
:1005A000089540914E0250914F0220914C0230919B
:1005B0004D0242175307B4F49091E8009570E1F3AF
:1005C0009091E80092FD19C08093F10080914E0255
:1005D00090914F0201968F739927892B19F48EEF12
:1005E0008093E80080914E0290914F020196909383
:1005F0004F0280934E0281E0089580E00895DF92DB
:10060000EF92FF920F931F93CF93DF93D82E8A011F
:10061000EB017B01E40EF51ECE15DF0559F0D7FE88
:1006200012C0FE0184910E94D10221968111F4CF63
:100630000FEF1FEFC801DF91CF911F910F91FF9036
:10064000EF90DF9008958881EECF0F931F93CF93A3
:10065000DF931F92CDB7DEB782E0898342E450E09A
:1006600066E071E080E80E94FF020E94BA01DC01AE
:1006700012960D911C910115110589F0D801ED918B
:10068000FC910280F381E02DBE016F5F7F4FC801B6
:10069000099597FD04C0F80100851185ECCF89818B
:1006A0000F90DF91CF911F910F910895615030F01D
:1006B0002091F100FC0120830196F8CF289884E670
:1006C00080937A0208958F929F92AF92BF92CF92B9
:1006D000DF92EF92FF920F931F93CF93DF936C0102
:1006E0007B018A0180910B01882309F45CC0809111
:1006F0007B02882309F457C08091520280FF05C015
:100700008091E00082608093E000E801B12C8AEFE4
:10071000A82E93E0892E2AE3922E209711F4BB2075
:10072000D9F10E94550181110AC0AA94AA20D9F1D9
:1007300061E070E080E090E00E949E02EECF8C17B6
:100740001D0611F00CF08C2F9FB7F8948092E900F1
:100750002091E80025FD02C09FBFDFCF282F30E0A9
:10076000C21BD30BF701815020F041914093F1005F
:10077000FACFE20EF31EBB2021F09092E800B12CDC
:10078000EBCF8091E80085FDE7CF9092E800BB2495
:10079000B394209709F3F3CF5D9884E680935102D8
:1007A000101611063CF081E090E0F60193838283FD
:1007B00010E000E0C801DF91CF911F910F91FF90F1
:1007C000EF90DF90CF90BF90AF909F908F90089563
:1007D000CF93DF931F92CDB7DEB76983DC01ED9134
:1007E000FC910280F381E02D41E050E0BE016F5F9B
:1007F0007F4F09950F90DF91CF910895682F81E881
:1008000092E00C94E80383E08093E9008091F20089
:10081000882319F08AE38093E80008950E94550127
:1008200090E00895CF93DF931F92CDB7DEB7FC0120
:100830008485958597FD08C02FEF3FEF3587248786
:100840000F90DF91CF910895CE0101960E942B0168
:10085000019719F4898190E0F3CF8FEF9FEFF0CFEC
:100860000F931F93CF93DF931F92CDB7DEB78C0109
:10087000FC018485958597FF0BC0CE0101960E94EF
:100880002B01019771F4898190E0F80195878487A5
:10089000F801848595850F90DF91CF911F910F917D
:1008A00008958FEF9FEFF1CFFC018485958597FD2B
:1008B0000BC09FB7F89482E08093E9008091F2002A
:1008C0009FBF90E0019608959FB7F89482E08093CF
:1008D000E9008091F2009FBF90E008950F931F936D
:1008E000CF93DF93EC018B018F81811107C0E881E9
:1008F000F9810190F081E02DCE0109958A819B81DB
:100900000817190730F08C819D810817190708F422
:10091000C8011092BF0025E0969587952A95E1F7CA
:1009200081508093D200DF91CF911F910F91089554
:10093000DC01F8941092C200E1ECF0E090819F7726
:100940009083789417961C920895CF93DF93EC01CF
:1009500061E08CE00E944802F894E2ECF0E08081D3
:1009600085608083E1ECF0E080818068808378940A
:1009700081E08F83DF91CF9108950F931F93CF93E1
:10098000DF93EC018B018F81811107C0E881F98130
:100990000190F081E02DCE0109958A819B81081795
:1009A000190730F08C819D810817190708F4C801D8
:1009B000880F991F01979093990080939800DF9179
:1009C000CF911F910F910895DC01F894E0E9F0E0D8
:1009D00090819F779083789417961C920895CF9377
:1009E000DF93EC0161E085E00E944802F89482E820
:1009F000809390008AE1809391008FE39CE990932B
:100A0000970080939600789481E08F83DF91CF9157
:100A10000895CF93DF93EBEEF1E08491ECECF1E0FD
:100A2000D491EDEAF1E0C491CC2321F181110E942F
:100A3000CE01EC2FF0E0EE0FFF1FE850FF4FA59125
:100A4000B491EC91ED23B1F080917C0290917D0204
:100A5000A0917E02B0917F020197A109B109809314
:100A60007C0290937D02A0937E02B0937F02DF917F
:100A7000CF91089580917C0290917D02A0917E0299
:100A8000B0917F020196A11DB11DE9CF20E077FF53
:100A900004C071956195710921E0FC0182859385FF
:100AA000681779070CF4CB01222339F02A9A229A8D
:100AB00090938B0080938A0008952A98F8CF20E0C5
:100AC00077FF04C071956195710921E0FC01828571
:100AD0009385681779070CF4CB01222339F0299A02
:100AE000219A909389008093880008952998F8CFDF
:100AF000CF93DF93EB01BC0188EA93E00E944605A7
:100B0000BE018AEB93E0DF91CF910C945F05CF9308
:100B1000DC0118968D919C9119971A962D913C9114
:100B20001B978217930751F0AC01421B530B4932BC
:100B30005105A0F41B969C938E931A97C1E01A96C8
:100B40006D917C911B97ED91FC9111970480F5813B
:100B5000E02DCD0109958C2FCF91089528173907E5
:100B600040F4285D3F4F1B963C932E931A97C0E0AC
:100B7000E6CF82179307D8F728523109F4CF82E2E3
:100B800091E00E948705811107C064E170E080E078
:100B900090E00E949E02F3CF089586E191E00E94CA
:100BA0008705811107C064E170E080E090E00E9459
:100BB0009E02F3CF08954F925F926F927F928F9231
:100BC0009F92AF92BF92CF92DF92EF92FF92CF931C
:100BD000DF9300D000D0CDB7DEB72B013C01F894F5
:100BE00080917C0290917D02A0917E02B0917F0263
:100BF00089839A83AB83BC837894C301B2010E943A
:100C00005C174B015C0120E030E040E05FE30E94B4
:100C1000E8186B017C0120E030E040E05FE3C501B3
:100C2000B4010E94E7184B015C0169817A818B81D4
:100C30009C810E945C17A70196010E945517181607
:100C40001CF1F89460917C0270917D0280917E028B
:100C500090917F0278940E945C17A50194010E94F4
:100C6000551787FF44C060E0809186030E941A02F6
:100C700061E0809184030E941A02A8ECB0E0B09376
:100C80008D00A0938C00ABCFF89460917C027091A2
:100C90007D0280917E0290917F0278940E945C1781
:100CA000A50194010E94D91A87FFCBCF60E0809103
:100CB00086030E941A0261E0809184030E941A0256
:100CC00010928D0010928C000F900F900F900F904B
:100CD000DF91CF91FF90EF90DF90CF90BF90AF90DA
:100CE0009F908F907F906F905F904F900895F894B1
:100CF00060917C0270917D0280917E0290917F02D2
:100D000078940E945C179B01AC01C701B6010E9458
:100D1000551787FF11C061E0809186030E941A0277
:100D200060E0809184030E941A0288EC90E0909326
:100D30008D0080938C0053CF60E0809186030E94E9
:100D40001A0261E0809184030E941A0210928D00C1
:100D500010928C00ABCFFC0101900020E9F7319795
:100D6000AF01481B590BBC0181E892E00C9463036E
:100D70008F929F92AF92BF920F931F93CF93DF9367
:100D8000CDB7DEB7A1970FB6F894DEBF0FBECDBFCB
:100D900019A2423008F44AE08E010F5D1F4F842EE5
:100DA000912CB12CA12CA50194010E94BF18E62F13
:100DB000B901CA01EA30F4F4E05DD801EE938D0187
:100DC000232B242B252B79F790E080E0109719F046
:100DD000CD010E94AB06A1960FB6F894DEBF0FBE00
:100DE000CDBFDF91CF911F910F91BF90AF909F909A
:100DF0008F900895E95CE1CFCF93DF930E94AB061B
:100E0000EC018FE791E00E94AB068C0F9D1FDF91F4
:100E1000CF9108958091A6039091A7034091A403D8
:100E20005091A503841795072CF401969093A7037E
:100E30008093A6032091A6033091A703421753077E
:100E4000E1F470E060E090E080E00E9478051092AC
:100E500042031092410370E060E090E080E00E9465
:100E6000780582E891E00E94FC06109242031092FD
:100E700041038AE891E00C94AB0684E1829FF00183
:100E8000839FF00D1124E855FC4FAFE5B3E00190CE
:100E90000D928A95E1F7EDCF8F929F92AF92BF921C
:100EA000CF92DF92EF92FF925C016A017B018EE3A9
:100EB0000E94FE03A114B10419F0C5010E94AB0603
:100EC0008AE30E94FE03A7019601C701B6010E94B2
:100ED000381B882379F08FE891E00E94AB068AE006
:100EE000FF90EF90DF90CF90BF90AF909F908F904A
:100EF0000C94FE0346015701E894B7F82FEF3FEF3B
:100F00004FE75FE7C501B4010E94381B81110DC096
:100F10002FEF3FEF4FE75FE7C501B4010E94551780
:100F200018161CF483E991E0D8CF2FEF3FEF4FE77D
:100F30005FE4C701B6010E94D91A18161CF487E9AC
:100F400091E0CBCF2FEF3FEF4FE75FECC701B6014A
:100F50000E94551787FDF3CF20E030E0A901C701BB
:100F6000B6010E94551787FF07C08DE20E94FE035D
:100F7000F7FAF094F7F8F0942AE037ED43EA5BE3F0
:100F8000C701B6010E94E8184B015C010E94441A97
:100F90006B017C010E945A179B01AC01C501B40191
:100FA0000E94E7184B015C014AE0C701B6010E94AC
:100FB000B8068EE20E94FE0320E030E040E251E4F9
:100FC000C501B4010E94BB174B015C010E94441A89
:100FD0006B01F12CE12C4AE0C701B6010E94B80672
:100FE000C701B6010E945A179B01AC01C501B401AB
:100FF0000E94E71820E030E040E251E40E94BB1775
:101000000E94441A90E080E04AE00E94B80667CF50
:101010004F925F926F927F928F929F92AF92BF9208
:10102000CF92DF92EF92FF92CF93DF9300D000D068
:1010300000D0CDB7DEB79E838D83F8946091B60360
:101040007091B7037894072E000C880B990B0E94BF
:101050005C1725E83BE642E852E40E94CB192B01DD
:101060003C01F8948091C8039091C90378948D81D4
:101070009E81092E000CAA0BBB0B89839A83AB833C
:10108000BC83F8946091B6037091B7037894072EEF
:10109000000C880B990B0E945C1725E83BE642E8A0
:1010A00052E40E94CB19A30192010E94E7184B0160
:1010B0005C01F8948091C8039091C9037894698188
:1010C0007A818B819C810E945C176B017C01A50158
:1010D00094010E94E718AB01BC018BE991E00E94EA
:1010E0004C07C701B6019F77A50194015F770E9465
:1010F000551787FD16C0AD81BE8162E370E082E3C3
:1011000090E01A161B0624F06EEC7FEF8EEC9FEF3A
:101110000E94780564E170E080E090E00E949E0209
:10112000B0CF70E060E090E080E026960FB6F894D3
:10113000DEBF0FBECDBFDF91CF91FF90EF90DF906C
:10114000CF90BF90AF909F908F907F906F905F9067
:101150004F900C947805CF93DF93C2E2D1E084EFF7
:1011600091E0998788870E94BF0564E670E080E07F
:1011700090E00E949E028CED95E090931F01809379
:101180001E010E94CD0564E670E080E090E00E94C0
:101190009E0284EC99E0998788870E94BF0564E6E7
:1011A00070E080E090E00E949E0240E050E0BA01D2
:1011B00086EA91E0DF91CF910C944C07FC0180818D
:1011C0009181009711F00C94021C08958F929F92C8
:1011D000AF92BF92CF92DF92EF92FF928091410344
:1011E000909142038230910509F047C025E83BE623
:1011F00042E852E46091570370915803809159037B
:1012000090915A030E94CB196B017C0125E83BE6C3
:1012100042E852E460915B0370915C0380915D034E
:1012200090915E030E94CB199B01AC01C701B601EE
:101230000E94E81820E030E040E05FE30E94BB1726
:101240009B01AC01609173037091740380917503ED
:10125000909176030E94E71820E030E0A9010E94F7
:101260005517881F8827881FFF90EF90DF90CF9039
:10127000BF90AF909F908F90089583309105C9F4EF
:1012800020EE3EE245E652E4609153037091540330
:1012900080915503909156030E94BB179B01AC01AE
:1012A00060917703709178038091790390917A032C
:1012B000D1CF019709F043C020914B0330914C03EB
:1012C00040914D0350914E0360915F037091600314
:1012D00080916103909162030E94E7184B015C01C9
:1012E00020914F033091500340915103509152038C
:1012F000609163037091640380916503909166032C
:101300000E94E7186B017C01A5019401C501B4019D
:101310000E94BB174B015C01A7019601C701B601F2
:101320000E94BB179B01AC01C501B4010E94E818E3
:101330000E94F41A20E030E040EA50E490CF80E0D0
:1013400093CF0E94481D0F931F93CF93DF93EC011F
:1013500088819981009759F02A813B8126173707A8
:1013600030F081E0DF91CF911F910F9108958B01B3
:101370006F5F7F4F0E948B1C009759F09983888381
:101380001B830A832C813D81232B59F7FC0110829A
:10139000E8CF80E0E7CFEF92FF920F931F93CF93B8
:1013A000DF93EC017B018A01BA010E94A309288125
:1013B0003981811114C02115310519F0C9010E942C
:1013C000021C198218821D821C821B821A82CE0185
:1013D000DF91CF911F910F91FF90EF9008951D83A2
:1013E0000C83B701C9010E94561DF1CFFB0101908A
:1013F0000020E9F73197AF01461B570B0C94CB093E
:10140000FC01118210821382128215821482FB0168
:1014100001900020E9F73197AF01461B570B0C9460
:10142000CB09EF92FF920F931F93CF93DF93CDB72A
:10143000DEB72C970FB6F894DEBF0FBECDBF8C0180
:1014400061E871E0CE0107960E94000A01151105BE
:1014500009F053C010927D0310927C0367EB71E09A
:10146000CE0107960E94F60960E070E0CB010E9471
:10147000DB0563EE71E0CE0101960E94000AEF8069
:10148000F884E114F10409F472C00B851C85011580
:101490001105B9F08D819E81080F191FB801CE0189
:1014A00001960E94A309882309F461C029813A8129
:1014B0008D819E81B701820F931F0E94561D1E834E
:1014C0000D8340E050E0BA0189819A810E944C0767
:1014D000CE0101960E94DE08CE0107960E94DE082A
:1014E0002C960FB6F894DEBF0FBECDBFDF91CF9123
:1014F0001F910F91FF90EF9008950F3788E0180724
:1015000079F410937D0300937C0363EC71E0CE01CA
:1015100007960E94F6096FE778E080E090E0A7CF99
:10152000043C89E0180779F410937D0300937C0351
:101530006EEC71E0CE0107960E94F60964EC79E04A
:1015400080E090E094CF0B378CE0180709F091CF42
:1015500010937D0300937C036AED71E0CE01079642
:101560000E94F6096BE77CE080E090E080CF898103
:101570009A81009711F00E94021C1A8219821E8221
:101580001D821C821B829DCFCF93DF93A2EEB0E021
:101590009C911C92E9EEF0E020811082C0EFD0E037
:1015A0003881188240E02899416020994260209853
:1015B000289A80E18A95F1F783B141FB0EF02098DB
:1015C00040FB0EF028980EF4289A41FB0EF4209A66
:1015D0001082388320839C9380958170DF91CF9116
:1015E0000895CF93DF93A2EEB0E09C911C92E9EEB8
:1015F000F0E020811082C0EFD0E03881188240E016
:101600005D9941605599426055985D9A80E18A954F
:10161000F1F789B141FB0EF0559840FB0EF05D9853
:101620000EF45D9A41FB0EF4559A108238832083A4
:101630009C9390E025E0959587952A95E1F7809514
:1016400090958170DF91CF9108951F920F920FB600
:101650000F9211242F933F934F935F936F937F9338
:101660008F939F93AF93BF93EF93FF93CF93DF93AA
:1016700000D01F92CDB7DEB783B189838981909165
:10168000800289278A8380916B009A8189238B83CA
:101690008B8180FF05C0E0916A02F0916B02099591
:1016A0008B8181FF05C0E0916C02F0916D0209957C
:1016B0008B8182FF05C0E0916E02F0916F02099567
:1016C0008B8183FF05C0E0917002F0917102099552
:1016D0008B8184FF05C0E0917202F091730209953D
:1016E0008B8185FF05C0E0917402F0917502099528
:1016F0008B8186FF05C0E0917602F0917702099513
:101700008B8187FF05C0E0917802F09179020995FD
:101710008981809380020F900F900F90DF91CF917D
:10172000FF91EF91BF91AF919F918F917F916F91B9
:101730005F914F913F912F910F900FBE0F901F908F
:1017400018951F920F920FB60F9211242F933F936B
:101750008F939F93AF93BF938091560290915702BE
:10176000A0915802B09159023091550223E0230F05
:101770002D3758F50196A11DB11D20935502809378
:10178000560290935702A0935802B0935902809149
:101790005A0290915B02A0915C02B0915D020196A9
:1017A000A11DB11D80935A0290935B02A0935C022D
:1017B000B0935D02BF91AF919F918F913F912F9117
:1017C0000F900FBE0F901F90189526E8230F0296DA
:1017D000A11DB11DD2CF1F920F920FB60F921124EF
:1017E0002F933F934F935F936F937F938F939F9329
:1017F000AF93BF93EF93FF93E0911401F091150124
:101800000995FF91EF91BF91AF919F918F917F913A
:101810006F915F914F913F912F910F900FBE0F905D
:101820001F9018951F920F920FB60F9211242F93AD
:101830003F934F935F936F937F938F939F93AF9358
:10184000BF93EF93FF93E0911201F091130109957B
:10185000FF91EF91BF91AF919F918F917F916F9188
:101860005F914F913F912F910F900FBE0F901F905E
:1018700018951F920F920FB60F9211242F933F933A
:101880004F935F936F937F938F939F93AF93BF9388
:10189000EF93FF93E0911001F09111010995FF91F1
:1018A000EF91BF91AF919F918F917F916F915F91D8
:1018B0004F913F912F910F900FBE0F901F90189551
:1018C0001F920F920FB60F9211242F933F934F93B5
:1018D0005F936F937F938F939F93AF93BF93EF9398
:1018E000FF93E0910E01F0910F010995FF91EF91A7
:1018F000BF91AF919F918F917F916F915F914F9128
:101900003F912F910F900FBE0F901F9018951F922F
:101910000F920FB60F9211242F933F934F935F9323
:101920006F937F938F939F93AF93BF93EF93FF93A7
:10193000E0910C01F0910D010995FF91EF91BF919C
:10194000AF919F918F917F916F915F914F913F9157
:101950002F910F900FBE0F901F9018951F920F920E
:101960000FB60F9211248F939F938091E100909175
:10197000E100937F9093E10083FF0FC01092E90094
:1019800091E09093EB001092EC0092E39093ED00C5
:1019900010927B0298E09093F00082FF22C093E0C7
:1019A0009093E9009091F200992319F09AE39093B3
:1019B000E80090915102992341F090915102915089
:1019C00090935102911101C05D9A90917A029923EE
:1019D00041F090917A02915090937A02911101C056
:1019E000289A84FF18C08091E2008E7E81608093E7
:1019F000E2008091E1008F7E8093E10080915202AD
:101A00008E7E8061809352029F918F910F900FBEC6
:101A10000F901F90189580FFF7CF8091E2008E7E87
:101A200080618093E2008091E1008E7E8093E100EE
:101A3000809152028E7E8160E5CF1F920F920FB689
:101A40000F921124CF92DF92EF92FF920F931F9388
:101A50002F933F934F935F936F937F938F939F93B6
:101A6000AF93BF93EF93FF93CF93DF93CDB7DEB7E1
:101A70006C97DEBFCDBF1092E9008091E80083FF34
:101A800025C068E0CE0145960E94560382EF809300
:101A9000E8008D8987FF39C09091E80090FFFCCF66
:101AA000982F907609F034C19E894F89588D2F89DF
:101AB000F88C911131C0803861F580915302809388
:101AC000F1001092F1008EEF8093E8006C960FB653
:101AD000F894DEBF0FBECDBFDF91CF91FF91EF91A4
:101AE000BF91AF919F918F917F916F915F914F9136
:101AF0003F912F911F910F91FF90EF90DF90CF902A
:101B00000F900FBE0F901F9018959EEF9093E800D6
:101B1000C7CF1092F100D5CF913059F48111D3CFB6
:101B20004130510581F6809153028D7F809353029D
:101B3000CACF933049F48111C6CF4130510519F60F
:101B4000809153028260F2CF953041F48091E80099
:101B500080FFFCCF20682093E300B5CF963009F0DA
:101B6000A9C00B8D1C8D22E01092E90010924F024B
:101B700010924E02F2122EC010924D0210924C02A0
:101B80000E9425031F8299E09983FA8291E09E8347
:101B900090EA98879AEF998720914E0230914F02F0
:101BA000275F3F4F3C832B838D831092E900109277
:101BB0004F0210924E0210934D0200934C0249E0E6
:101BC00050E0BE016F5F7F4F80E00E94FF020E94E5
:101BD000250379CF10934D0200934C020E94BA0165
:101BE000DC0112960D911C910115110509F451C1EA
:101BF000D801ED91FC910480F581E02DBE016B5E72
:101C00007F4FC8010995009709F03EC1F801008592
:101C10001185EACFF3E0FF120EC08F89882309F403
:101C200040C0823061F440E862E181E791E00E94C7
:101C30008C0F811148CF81E28093EB0047CF813038
:101C400029F440E862E18EE591E0F1CF833099F725
:101C50000E94BA01DC011296ED90FC908E010F5F9C
:101C60001F4F6801E114F10479F0D701ED91FC9167
:101C70000680F781E02DB801C7010995080F111DF5
:101C8000F701E084F184EECFD8011C92F6010190B7
:101C90000020E9F73197BF016C197D0940E0C601CA
:101CA000C6CF68E471E0FB01449150E080E80E94F7
:101CB000FF0209CF973009F4BECF983021F481E0BC
:101CC0008093F10000CF993009F0FDCE837009F0C8
:101CD000B2CFE9E4F1E081E031E096E32191222303
:101CE00071F08093E9003093EB00DF0111972C91A4
:101CF0002093EC009093ED008F5F873079F78EE7AB
:101D00008093EA001092EA008F8980937B02DBCEF9
:101D10008B8D9C8D1092E90010924F0210924E0212
:101D200090934D0280934C02898D811192C08E89CF
:101D30009D89913A49F4813209F07DCF47E050E026
:101D400064E071E080E0B3CF913209F074CF833268
:101D500069F48F89988DB0E0A0E0809300019093A2
:101D60000101A0930201B0930301ADCE803269F46A
:101D70008091E80082FFFCCF67E084E091E00E9460
:101D800056038BEF8093E8009ECE823209F09BCE03
:101D90008F8980930B01EEEFFFE7859194918B3F44
:101DA0009C4D51F1E0E0F8E0809104019091050133
:101DB000A0910601B0910701803B9440A105B105B7
:101DC000F1F480910B0180FD1AC0EE3F8AE0F80724
:101DD00089F587E797E791838083809160008093FE
:101DE000500288E19BE00FB6F894A89580936000BC
:101DF0000FBE9093600067CEEEEFFAE0D5CF808102
:101E000091818737974709F05ECEA8958091600051
:101E10008861809360008091500280936000EE3F63
:101E20002AE0F20789F08091FE0A9091FF0A9183DF
:101E3000808349CE808191818737980751F29093B2
:101E4000FF0A8093FE0AC5CF1092FF0A1092FE0A85
:101E50003ACE0E94BA01DC0112960D911C91011537
:101E6000110509F4E8CED801ED91FC910190F081C3
:101E7000E02DBE016B5E7F4FC8010995811123CE15
:101E8000F80100851185EBCF181619060CF41BCE4E
:101E9000D2CEF1E0FF12BECE6CE471E004CF1F920F
:101EA0000F920FB60F9211242F933F934F935F938E
:101EB0008F939F93EF93FF93809154028F5F809352
:101EC0005402F894E8EAF3E08685978578942485AF
:101ED0003585AC01421B530B95878487518740871A
:101EE000F894EAEBF3E08685978578942485358528
:101EF000AC01421B530B9587848751874087FF9124
:101F0000EF919F918F915F914F913F912F910F9002
:101F10000FBE0F901F901895EF92FF920F931F9393
:101F2000CF93DF93F82E192FE62E042F81E0860F32
:101F3000880F0E94D10283E00E94D102CF2DD12FC1
:101F4000EC0EFD2EF11CCE15DF05B9F007FF13C016
:101F5000FE0184910E94D102182F80E00E94D102DC
:101F6000812321968111EFCFDF91CF911F910F91A6
:101F7000FF90EF9008958881EDCF81E0F5CFCF936A
:101F8000DF9385E493E00E94DE08CBE6D1E0D093B6
:101F9000BB03C093BA038CEB93E00E94DE08D0939E
:101FA000A903C093A8038AEA93E0DF91CF910C9430
:101FB000DE082F923F924F925F926F927F928F92A4
:101FC0009F92AF92BF92CF92DF92EF92FF920F93C8
:101FD0001F93CF93DF9300D000D000D0CDB7DEB7F2
:101FE00083B180938002109284021092830288EE63
:101FF00093E0A0E0B0E08093850290938602A093E6
:102000008702B093880283E591E0909382028093E7
:1020100081028FEF9FEF90938E0280938D026BEE83
:1020200071E0CE0101960E94000A8BE691E0909348
:10203000A9038093A8031092AB031092AA031092F5
:10204000AD031092AC031092AF031092AE036981FE
:102050007A816115710531F04D815E818AEA93E0E4
:102060000E94CB091092B1031092B00384EA91E070
:102070009093B3038093B20387E791E09093A90311
:102080008093A803CE0101960E94DE086DEE71E0F8
:10209000CE0101960E94000A8BE691E09093BB036B
:1020A0008093BA031092BD031092BC031092BF0339
:1020B0001092BE031092C1031092C00369817A810D
:1020C0006115710531F04D815E818CEB93E00E94CA
:1020D000CB091092C3031092C20384EA91E090935B
:1020E000C5038093C4038DE791E09093BB03809375
:1020F000BA03CE0101960E94DE0805E010E01093BD
:10210000D2020093D1028BE0282E312C3092D402DF
:102110002092D30284E090E09093D6028093D5027F
:102120008DE090E09093D8028093D702412C512CFF
:10213000612C90E4792E4092D9025092DA0260929A
:10214000DB027092DC022DEC822E2CEC922EA92C5C
:102150002DE3B22E8092DD029092DE02A092DF0289
:10216000B092E002C12CD12CE12C3FE3F32EC092BF
:10217000E102D092E202E092E302F092E4021092D5
:10218000E5021092E6021092E7021092E802109225
:10219000E9021092EA021092EB021092EC02109205
:1021A000ED021092EE021092EF021092F0021092E5
:1021B000F1021092F2021092F3021092F4021092C5
:1021C00042031092410384E190E090934403809392
:1021D0004303109246031092450310924803109255
:1021E000470310924A031092490350E040E061E82F
:1021F00071E085E493E00E94CB0910924B031092AA
:102200004C0310924D0310924E0310924F03109204
:1022100050031092510310925203109253031092E4
:1022200054031092550310925603109257031092C4
:1022300058031092590310925A0310925B031092A4
:102240005C0310925D0310925E0310925F03109284
:102250006003109261031092620310926303109264
:102260006403109265031092660310926703109244
:1022700068031092690310926A0310926B03109224
:102280006C0310926D0310926E0310926F03109204
:102290007003109271031092720310927B031092DC
:1022A0007D0310927C0310927F0310927E031093A3
:1022B000810300938003309283032092820384E0A1
:1022C00090E090938503809384038DE090E0909359
:1022D000870380938603409288035092890360921B
:1022E0008A0370928B0380928C0390928D03A0924C
:1022F0008E03B0928F03C0929003D0929103E0922C
:102300009203F0929303109294031092950310920B
:1023100096031092970310929803109299031092CB
:102320009A0310929B0310929C0310929D031092AB
:102330009E0310929F031092A0031092A10310928B
:10234000A2031092A3031092A5031092A40310926B
:10235000A7031092A6036AE070E085E493E00E9470
:10236000A30910923B0310923E0381E791E0909302
:102370003A0380933903109233031092360385E6B3
:1023800091E090933203809331031092F502109202
:10239000F6021092F7021092F80280E090E0A8ECAA
:1023A000B1E48093F9029093FA02A093FB02B093F8
:1023B000FC021092FD021092FE021092FF02109297
:1023C0000003109201031092020310920303109273
:1023D0000403109205031092060310920703109253
:1023E000080340E050E068EC71EC4093090350931F
:1023F0000A0360930B0370930C0380930D03909377
:102400000E03A0930F03B0931003109211031092C8
:1024100012031092130310921403109215031092DA
:1024200016031092170310921803109219031092BA
:102430001A0310921B0310921C0380E090E0A6E1A7
:10244000B2EC80931D0390931E03A0931F03B093DF
:10245000200380E090E0A0EFB0EC80932103909304
:102460002203A0932303B093240310922503109218
:10247000260310922703109228031092290310922A
:102480002A0310922B0310922C0310922D0310920A
:102490002E0310922F031092300326960FB6F89455
:1024A000DEBF0FBECDBFDF91CF911F910F91FF9087
:1024B000EF90DF90CF90BF90AF909F908F907F90E4
:1024C0006F905F904F903F902F900895CF93DF9340
:1024D00000D000D000D0CDB7DEB7789484B582604C
:1024E00084BD84B5816084BD85B5826085BD85B5B8
:1024F000816085BD80916E00816080936E00109236
:1025000081008091810082608093810080918100B0
:102510008160809381008091800081608093800041
:102520008091910082608093910080919100816000
:1025300080939100809190008160809390008091C1
:10254000C10084608093C1008091C100826080934B
:10255000C1008091C10081608093C1008091C3005F
:1025600081608093C3008091C00082608093C0002E
:102570008091C20081608093C20080917A00846063
:1025800080937A0080917A00826080937A008091B3
:102590007A00816080937A0080917A0080688093CD
:1025A0007A0010927B021092530210925202809194
:1025B000D70081608093D70080EA8093D80089B5E6
:1025C000806189BD89B5826089BD09B400FEFDCFF7
:1025D00061E070E080E090E00E949E028091D8006F
:1025E0008F7C80618093D8008091E000807F809311
:1025F000E0008091E1008E7E8093E1008DE0809389
:10260000E200559A209A8FEF9FEF90938E0280936D
:102610008D0280EF91E00E94FC06F8941092C000B9
:102620008AE08093C1001092C2001092C3002091F2
:10263000430330914403A0E8BEE30E94B01829E0B0
:1026400096958795779567952A95D1F76150710989
:10265000862F871B7093BF008093D10084E0809306
:10266000720078948FEE91E00E94FC068BEF91E06F
:102670000E94FC06F89482EA8093800089E18093AE
:10268000810084EA91E09093870080938600109205
:1026900089001092880010928B0010928A0010928C
:1026A0008D0010928C00F89491E0909368008091D6
:1026B0006B00806180936B0024E831E030937302FB
:1026C000209372029BBB809180028F7E8093800258
:1026D00083B1909180028071892B809380027894DD
:1026E00086E691E0909315018093140180916A0031
:1026F0008F7C806180936A00EE9A78948AEF91E0F3
:102700000E94FC062E98269A2A98229A88E092E047
:102710000E94FC0624982C9A6A98729A8CB182FBCB
:10272000882780F98093B90393B18091B90392957A
:10273000917089278093B80387E092E00E94FC069D
:102740002D98259A2998219A88E092E00E94FC060B
:102750006E98769A8098889A8FB181708093CB0317
:102760009CB18091CB0396FB992790F989278093A0
:10277000CA0387E092E00E94FC0661E08091820338
:102780000E94480261E0809184030E94480261E057
:10279000809186030E94480260E080E00E94480227
:1027A00060E081E00E94480288EA8093800081E135
:1027B0008093810080E991E0909387008093860068
:1027C00010928D0010928C0089E095E09093110199
:1027D00080931001809169008F7C806180936900F3
:1027E000EA9AF89410927C0210927D0210927E0276
:1027F00010927F027894F89410927C0210927D02DD
:1028000010927E0210927F02789486E191E00E94FD
:10281000A50490E080E00E94110A64EF71E080E07E
:1028200090E00E949E022CE637E030931F01209337
:102830001E010E94CD0564E670E080E090E00E94F9
:102840009E028FE798E00E94110A64EF71E080E039
:1028500090E00E949E0285E090E00E9408080E949D
:10286000AB088BEF9FEF0E94080884EC99E00E9470
:10287000110A64EF71E080E090E00E949E0285E022
:1028800090E00E94080884EF91E090932B018093E0
:102890002A010E94BF0564E670E080E090E00E949B
:1028A0009E028CE697E090931F0180931E010E9488
:1028B000CD0564E670E080E090E00E949E0284EC2A
:1028C00099E090932B0180932A010E94BF0564E652
:1028D00070E080E090E00E949E0240E050E0BA018B
:1028E00086EA91E00E944C078BEF9FEF0E94080858
:1028F0008BE79CE00E94110A64EF71E080E090E0B9
:102900000E949E0285E090E00E9408080E94AB08A9
:102910008BEF9FEF0E94080864EF71E080E090E089
:102920000E949E0238EC232E312C89E393E00E9412
:10293000C40A8111FACF81E393E00E94F10A88234F
:10294000E9F061E0809186030E941A0260E08091C4
:1029500084030E941A0230928D0020928C0060E065
:10296000809186030E941A0261E0809184030E9494
:102970001A0210928D0010928C00DDCFA2E0B0E020
:10298000B093A503A093A4038091A6039091A703FD
:10299000B4E1B89FF001B99FF00D1124EB50FD4F49
:1029A000AFE5B3E084E101900D928A95E1F721E073
:1029B00030E03093420320934103809154028823F6
:1029C00009F46BC2823020F082E192E00E94FC06A2
:1029D0008091B0039091B1039A83898360914303FE
:1029E0007091440390E080E00E945A1720E030E0AC
:1029F0004AE754E40E94CB196B017C01A981BA819A
:102A0000BD01BB0F880B990B0E945C1725E83BE6C4
:102A100042E852E40E94CB19A70196010E94CB190B
:102A20002B013C016091C2037091C303072E000C7F
:102A3000880B990B0E945C1725E83BE642E852E4BC
:102A40000E94CB19A70196010E94CB194B015C0192
:102A5000AC019B01C301B2010E94E81820E030E004
:102A600040E05FE30E94BB176B017C01F89420916A
:102A7000B6033091B7033E832D837894F894009188
:102A8000C8031091C90378941092540280915303A3
:102A900090915403A0915503B091560389839A8372
:102AA000AB83BC83A3019201C501B4010E94E71866
:102AB00020E030E040E651E40E94CB192AE037EDF7
:102AC00043EA5CE30E94BB1729813A814B815C8118
:102AD0000E94E8189B01AC012093530330935403E8
:102AE000409355035093560369817A818B819C8171
:102AF0000E94E81820E030E040E05FE30E94BB174E
:102B00002B013C010E94C6199B01AC01C701B60113
:102B10000E94BB172AE037ED43EA5CE30E94BB1733
:102B200020914B0330914C0340914D0350914E0343
:102B30000E94E8184B015C0180924B0390924C0379
:102B4000A0924D03B0924E03C301B2010E94E61A57
:102B50009B01AC01C701B6010E94BB172AE037ED0B
:102B600043EA5CE30E94BB179B01AC0160914F03F9
:102B70007091500380915103909152030E94E81884
:102B800060934F03709350038093510390935203CB
:102B9000AD81BE81BD01BB0F880B990B0E945C17F4
:102BA00060935703709358038093590390935A038B
:102BB000B801110F880B990B0E945C1760935B039F
:102BC00070935C0380935D0390935E03B501A40151
:102BD0008AE392E00E944C0740914F0350915003CA
:102BE00060915103709152038CE392E00E944C0774
:102BF00020EE3EE245E652E46091530370915403A7
:102C000080915503909156030E94BB17AB01BC0104
:102C10008EE392E00E944C07809141039091420321
:102C2000019709F018C120914B0330914C0340915A
:102C30004D0350914E0360915F037091600380914A
:102C40006103909162030E94E7182B013C012091DF
:102C50004F033091500340915103509152036091C2
:102C600063037091640380916503909166030E94F1
:102C7000E7186B017C01A3019201C301B2010E941C
:102C8000BB174B015C01A7019601C701B6010E9469
:102C9000BB179B01AC01C501B4010E94E8180E945A
:102CA000F41A4B015C01A3019201C701B6010E9415
:102CB000671920EE3EE245E652E40E94BB176B0125
:102CC0007C0120EE3EE245E652E4609153037091B0
:102CD000540380915503909156030E94BB179B01AA
:102CE000AC01C701B6010E94E7186B017C0120E02E
:102CF00030E044E353E40E94D91A18162CF420E083
:102D000030E044EB53E4EDCF20E030E044E353EC1B
:102D1000C701B6010E94551787FF0BC020E030E0C5
:102D200044EB53E4C701B6010E94E8186B017C0133
:102D3000EBCF20E030E040EE50E4C501B4010E944A
:102D4000551787FF03C0C12CD12C760120E030E05D
:102D500040E850E4C501B4010E94551787FF03C045
:102D6000812C912C5401B501A4018BE991E00E94C2
:102D70004C07B701A60184E492E00E944C0720E0D2
:102D800030E040E251E4C501B4010E94BB179F77D7
:102D900020E030E048EC52E40E94D91A181634F4CE
:102DA000812C912C90E2A92E91E4B92E20E030E004
:102DB00046E952E4C701B6019F770E94D91A181656
:102DC0001CF4812C912C540120E030E040E450E4CC
:102DD000C701B6010E94BB179F7720E030E048ECA6
:102DE00052E40E94D91A181634F4C12CD12C88E46C
:102DF000E82E82E4F82E20E030E040E251E4C50104
:102E0000B4010E94BB174B015C01A7019601C701E9
:102E1000B6010E94E818A50194010E94E8180E94DA
:102E20003D1A2B0120E030E040E450E4C701B60138
:102E30000E94BB179B01AC01C501B4010E94E718B9
:102E40000E943D1ACB01B2010E9478050E94E6085B
:102E500081110E940A0780914103909142030297D9
:102E600059F464E670E088E790E00E9478050E94DB
:102E7000E60881110E940A07809141039091420364
:102E8000039759F462E370E084EC9FEF0E947805A9
:102E90000E94E60881110E940A0720E030E0232BFF
:102EA00009F443CD0E94000040CD0E94971708F41A
:102EB00081E00895E89409C097FB3EF490958095D1
:102EC000709561957F4F8F4F9F4F9923A9F0F92FF0
:102ED00096E9BB279395F695879577956795B7956E
:102EE000F111F8CFFAF4BB0F11F460FF1BC06F5F54
:102EF0007F4F8F4F9F4F16C0882311F096E911C066
:102F0000772321F09EE8872F762F05C0662371F086
:102F100096E8862F70E060E02AF09A95660F771F9A
:102F2000881FDAF7880F9695879597F90895990F76
:102F30000008550FAA0BE0E8FEEF16161706E80783
:102F4000F907C0F012161306E407F50798F0621BA4
:102F5000730B840B950B39F40A2661F0232B242B79
:102F6000252B21F408950A2609F4A140A6958FEF98
:102F7000811D811D08950E94CE170C943F180E9458
:102F8000311838F00E94381820F0952311F00C9475
:102F900028180C942E1811240C9473180E945018A1
:102FA00070F3959FC1F3950F50E0551F629FF0019C
:102FB000729FBB27F00DB11D639FAA27F00DB11DB5
:102FC000AA1F649F6627B00DA11D661F829F22273E
:102FD000B00DA11D621F739FB00DA11D621F839FC5
:102FE000A00D611D221F749F3327A00D611D231F9B
:102FF000849F600D211D822F762F6A2F11249F57E9
:1030000050409AF0F1F088234AF0EE0FFF1FBB1FEB
:10301000661F771F881F91505040A9F79E3F5105AA
:1030200080F00C9428180C9473185F3FE4F3983EDA
:10303000D4F3869577956795B795F795E7959F5F54
:10304000C1F7FE2B880F911D9695879597F90895E6
:1030500097F99F6780E870E060E008959FEF80EC4B
:10306000089500240A9416161706180609060895EE
:1030700000240A9412161306140605060895092E54
:103080000394000C11F4882352F0BB0F40F4BF2BC3
:1030900011F460FF04C06F5F7F4F8F4F9F4F089503
:1030A00057FD9058440F551F59F05F3F71F04795F9
:1030B000880F97FB991F61F09F3F79F087950895DE
:1030C000121613061406551FF2CF4695F1DF08C0FD
:1030D000161617061806991FF1CF8695710561051A
:1030E00008940895E894BB2766277727CB0197F9C2
:1030F00008952F923F924F925F926F927F928F929C
:103100009F92AF92BF92CF92DF92EF92FF920F9376
:103110001F93CF93DF93CDB7DEB7CA1BDB0B0FB680
:10312000F894DEBF0FBECDBF09942A88398848883D
:103130005F846E847D848C849B84AA84B984C884D3
:10314000DF80EE80FD800C811B81AA81B981CE0FCA
:10315000D11D0FB6F894DEBF0FBECDBFED010895AF
:10316000A29FB001B39FC001A39F700D811D1124C8
:10317000911DB29F700D811D1124911D0895A1E232
:103180001A2EAA1BBB1BFD010DC0AA1FBB1FEE1FE1
:10319000FF1FA217B307E407F50720F0A21BB30B2C
:1031A000E40BF50B661F771F881F991F1A9469F7A8
:1031B00060957095809590959B01AC01BD01CF0104
:1031C0000895EE0FFF1F0590F491E02D09945058DB
:1031D000BB27AA270E94FF180C943F180E943118A1
:1031E00038F00E94381820F039F49F3F19F426F483
:1031F0000C942E180EF4E095E7FB0C942818E92F98
:103200000E94501858F3BA1762077307840795078E
:1032100020F079F4A6F50C9472180EF4E0950B2EBC
:10322000BA2FA02D0B01B90190010C01CA01A00118
:103230001124FF27591B99F0593F50F4503E68F173
:103240001A16F040A22F232F342F4427585FF3CFB4
:10325000469537952795A795F0405395C9F77EF485
:103260001F16BA0B620B730B840BBAF09150A1F0CE
:10327000FF0FBB1F661F771F881FC2F70EC0BA0F54
:10328000621F731F841F48F4879577956795B795DC
:10329000F7959E3F08F0B0CF9395880F08F09927D7
:1032A000EE0F9795879508950E94311860F080E899
:1032B00091E009F49EEF0E94381828F040E851E0B0
:1032C00071F45EEF0CC00C942E180C947218E92F58
:1032D000E0780E94501840F3092E052AB1F3261712
:1032E00037074807590738F00E2E07F8E02569F030
:1032F000E025E0640AC0EF6307F8009407FADB01F9
:10330000B9019D01DC01CA01AD01EF930E94E219F0
:103310000E943F180E9497195F91552339F02BEDB9
:103320003FE049E450FD49EC0C94E8180895DF9320
:10333000DD27B92FBF7740E85FE316161706480769
:103340005B0718F4D92F0E94DE1A9F938F937F9307
:103350006F930E94341BECEAF0E00E94731A0E9403
:103360003F182F913F914F915F910E94CE17DD231F
:1033700051F09058A2EA2AED3FE049EC5FE3D078A3
:103380005D270E94FF18DF910C943F180E949C1A41
:10339000E3950C94C51A0E94DF190C943F180E9403
:1033A000381858F00E94311840F029F45F3F29F096
:1033B0000C94281851110C9473180C942E180E9418
:1033C000501868F39923B1F3552391F3951B550BCE
:1033D000BB27AA2762177307840738F09F5F5F4FE8
:1033E000220F331F441FAA1FA9F335D00E2E3AF027
:1033F000E0E832D091505040E695001CCAF72BD03F
:10340000FE2F29D0660F771F881FBB1F261737078F
:103410004807AB07B0E809F0BB0B802DBF01FF27C1
:1034200093585F4F3AF09E3F510578F00C9428185E
:103430000C9473185F3FE4F3983ED4F38695779528
:103440006795B795F7959F5FC9F7880F911D96957A
:10345000879597F90895E1E0660F771F881FBB1FD6
:10346000621773078407BA0720F0621B730B840B83
:10347000BA0BEE1F88F7E09508950E94441A6894ED
:10348000B1110C94731808950E94581888F09F5732
:1034900098F0B92F9927B751B0F0E1F0660F771F78
:1034A000881F991F1AF0BA95C9F714C0B13091F06E
:1034B0000E947218B1E008950C947218672F782F4B
:1034C0008827B85F39F0B93FCCF386957795679533
:1034D000B395D9F73EF490958095709561957F4F9F
:1034E0008F4F9F4F0895DF93CF931F930F93FF92BA
:1034F000EF92DF927B018C01689406C0DA2EEF0117
:103500000E94CE17FE01E894A59125913591459131
:103510005591A6F3EF010E94FF18FE019701A80143
:10352000DA9469F7DF90EF90FF900F911F91CF91A0
:10353000DF9108950C942E180E945818D8F3E8943F
:10354000E0E0BB279F57F0F02AED3FE049EC06C0D2
:10355000EE0FBB0F661F771F881F28F0B23A620775
:103560007307840728F0B25A620B730B840BE39540
:103570009A9572F7803830F49A95BB0F661F771FC3
:10358000881FD2F790480C943F1BEF93E0FF07C0D1
:10359000A2EA2AED3FE049EC5FEB0E94FF180E948F
:1035A0003F180F90039401FC9058E9EDF0E00C9463
:1035B000521B0E94971708F48FEF08959B01AC01EE
:1035C00060E070E080E89FE30C94CB199F930E9429
:1035D0009C1A0F9007FCEE5F0C94C51A19F416F4B0
:1035E0000C942E180C943D1B0E945818B8F3992384
:1035F000C9F3B6F39F57550B87FF0E944B1B00245E
:10360000A0E640EA900180585695979528F4805C92
:10361000660F771F881F20F026173707480730F4FA
:10362000621B730B840B202931294A2BA695179412
:103630000794202531254A2758F7660F771F881FE2
:1036400020F026173707480730F4620B730B840B02
:10365000200D311D411DA09581F7B901842F91588E
:10366000880F9695879508959B01AC010C94BB1724
:103670000E949717880B990B08959F3F31F0915046
:1036800020F4879577956795B795880F911D969546
:10369000879597F9089591505040660F771F881FBE
:1036A000D2F708959F938F937F936F93FF93EF9338
:1036B0009B01AC010E94BB17EF91FF910E94731A0E
:1036C0002F913F914F915F910C94BB170F931F93D4
:1036D000CF93DF938230910510F482E090E0E09187
:1036E000CE03F091CF0330E020E0B0E0A0E03097CF
:1036F00099F42115310509F44AC0281B390B2430EF
:103700003105D8F58A819B816115710589F1FB012D
:1037100093838283FE0111C0408151810281138114
:1037200048175907E0F04817590799F4109761F0C6
:1037300012960C93129713961C933296CF01DF9139
:10374000CF911F910F9108950093CE031093CF0353
:10375000F4CF2115310551F04217530738F0A90174
:10376000DB019A01BD01DF01F801C1CFEF01F9CF03
:103770009093CF038093CE03CDCFFE01E20FF31FD2
:10378000819391932250310939832883D7CF209197
:10379000CC033091CD03232B41F4209130013091A3
:1037A00031013093CD032093CC0320912E01309131
:1037B0002F012115310541F42DB73EB7409132015B
:1037C00050913301241B350BE091CC03F091CD03D4
:1037D000E217F307A0F42E1B3F0B2817390778F0E8
:1037E000AC014E5F5F4F2417350748F04E0F5F1F47
:1037F0005093CD034093CC03819391939FCFF0E0FE
:10380000E0E09CCFCF93DF930097E9F0FC01329783
:1038100013821282A091CE03B091CF03ED0130E06C
:1038200020E01097A1F420813181820F931F209115
:10383000CC033091CD032817390709F061C0F0930C
:10384000CD03E093CC03DF91CF910895EA01CE1729
:10385000DF07E8F54A815B819E0141155105B1F70B
:10386000E901FB83EA8349915991C40FD51FEC17F5
:10387000FD0761F4808191810296840F951FE90113
:1038800099838883828193819B838A83F0E0E0E03F
:1038900012968D919C9113970097B9F52D913C91BB
:1038A0001197CD010296820F931F2091CC03309186
:1038B000CD032817390739F6309751F51092CF0309
:1038C0001092CE03B093CD03A093CC03BCCFD3838F
:1038D000C28340815181840F951FC817D90761F4B5
:1038E0004E5F5F4F88819981480F591F51834083F4
:1038F0008A819B81938382832115310509F0B0CFA2
:10390000F093CF03E093CE039ECFFD01DC01C0CF47
:1039100013821282D7CFB0E0A0E0E1E9FCE10C9481
:103920007B188C01009751F4CB010E94661B8C011F
:10393000C801CDB7DEB7E0E10C949718FC01E60FA3
:10394000F71F9C0122503109E217F30708F49DC0CC
:10395000D901CD91DC911197C617D70798F0C530E2
:10396000D10530F3CE0104978617970708F3C61BDD
:10397000D70B2297C193D1936D937C93CF010E9473
:10398000021CD6CF5B01AC1ABD0A4C018C0E9D1EE9
:10399000A091CE03B091CF03512C412CF12CE12CFE
:1039A000109731F58091CC039091CD03881599053E
:1039B00009F05CC04616570608F058C080912E01E9
:1039C00090912F01009741F48DB79EB7409132013D
:1039D00050913301841B950BE817F90708F055C087
:1039E000F093CD03E093CC03F90171836083A0CF02
:1039F0008D919C91119712966C90129713967C90D2
:103A00001397A815B90559F56C0142E0C40ED11CF5
:103A1000CA14DB0420F1AC014A195B09DA011296E1
:103A2000159780F06282738251834083D9016D9330
:103A30007C93E114F10471F0D7011396FC93EE939B
:103A4000129776CF22968C0F9D1FF9019183808368
:103A5000F301EFCFF093CF03E093CE0369CF481685
:103A6000590608F42C017D01D3019ACFCB010E94A5
:103A7000661B7C01009749F0AE01B8010E944D1D04
:103A8000C8010E94021C870153CF10E000E050CF14
:103A900081E090E0F8940C945D1DFB01DC0102C014
:103AA00001900D9241505040D8F70895FB01DC0180
:103AB00001900D920020E1F7089511E0C0E0D1E0FF
:103AC00004C0FE010E94E1182196C130D107C9F758
:043AD000F894FFCF98
:103AD400FFFFFFFF00E1000000000000D002D00261
:103AE400D002D002D0023801F401C409FF00DC0581
:103AF400DC054201F401C409FF00DC05DC0500001B
:103B0400D003800000000000A50498046E040000A7
:103B14000000EF04E404BD0400C180810000000043
:103B2400000000E80363030E040304540412043089
:103B34000400000000F10A00000000A109000000D8
:103B440000C40A000000004605000000005F050DE7
:103B54000A002D3E2049444C4500446F6E65006EBA
:103B6400616E00696E66006F766600446973746105
:103B74006E63653A200053544154453A20434C4106
:103B840057204F50454E004C4946545F47524F55BD
:103B94004E44004C4946545F4649525354004C49E4
:103BA40046545F5345434F4E44004C4946545F547A
:103BB4004F500053544154453A20004C0052002FBA
:103BC400496E697454696D6572002F496E69744D4C
:103BD4006F746F722829002F496E6974456E6328CB
:103BE40029004D697373656420616E20757064618A
:103BF400746520696E20526F626F743A3A526F6234
:103C04006F744C6F6F7028292100780079007468F4
:0C3C140065746100416E676C653A200029
:00000001FF
