:100000000C94DB000C94B40A0C948D0A0C94660AD0
:100010000C943F0A0C9403010C9403010C94180AED
:100020000C9403010C9452090C94DB0A0C944A0BB7
:100030000C9403010C9403010C9403010C94030130
:100040000C9403010C9403010C9403010C94030120
:100050000C9403010C9403010C9403010C94CE093D
:100060000C9403010C9403010C9403010C94030100
:100070000C9403010C9403010C9403010C940301F0
:100080000C9403010C9403010C9403010C940301E0
:100090000C9403010C9403010C9403010C940301D0
:1000A0000C9403010C947C0D0C94030100000000DF
:1000B0002300260029002C002F00080B000202025A
:1000C00000000904000001020200000524001001E4
:1000D0000524010101042402060524060001070588
:1000E000810310004009040100020A000000070516
:1000F00002024000000705830240000004030904D7
:1001000012010002EF020140FB1F00230001010267
:100110000301506F6C6F6C7520436F72706F72616A
:1001200074696F6E00506F6C6F6C7520412D537445
:100130006172203332553400000000002400270093
:100140002A002D00300000000000250028002B00B0
:100150002E00310004040404040304050202020218
:100160000403020202020606060606060404020250
:100170000204040408020110408040102040804026
:1001800080080204018040201002011080102040ED
:1001900040200000000200090F0000030401000CD1
:1001A000000000000000000000000000000000004F
:1001B0000000060EEC0D11241FBECFEFDAE0DEBF0B
:1001C000CDBF23E0A2EEB1E001C01D92AE31B20777
:1001D000E1F711E0A0E0B1E0EEE3FDE202C005903E
:1001E0000D92A23EB107D9F710E0CAEDD0E004C0ED
:1001F0002197FE010E948013C93DD107C9F70E94D3
:10020000F70F0C9492160C940000FC0180911102DF
:10021000882311F13FB7F89482E08093E9002091A0
:10022000F200822F90E01816190614F481E090E095
:10023000882339F0289844E6409310024091F10059
:100240004083222339F02091F200211103C02BE6D4
:100250002093E8003FBF08958FEF9FEF08952FB7D9
:10026000F89483E08093E9009091E800892F8072F0
:1002700095FF04C09091F20080E4891B2FBF089580
:100280003FB131702CB126FB222720F92327E8E06B
:10029000F3E08089418966857785082E000C990BEB
:1002A0008327042E000C550B4227841B950B860FC9
:1002B000971F97878687208B318B0895CF93DF9385
:1002C0008CB1482F50E0559547955595479593B17A
:1002D000892F90E024E0959587952A95E1F784276A
:1002E0009527E6EFF2E06089A189C685D7859A0156
:1002F00021703327062E000C770B26273727BC01E9
:10030000617077270A2E000CBB0B6A277B27261B00
:10031000370B2C0F3D1F378726878170808B4170EC
:10032000418BDF91CF9108958091F80181110DC02B
:1003300082E08093F40184E08093F5011092F7014C
:100340001092F60181E08093F80184EF91E0089526
:1003500081508F3008F047C0E82FF0E0EE54FE4F98
:100360000C948013CF01D301C101C701CB01F3016C
:10037000F301F301D601DC01E001E401EA01F3013C
:10038000EE01809180008F778093800008958091A6
:1003900080008F7DF9CF80918000877FF5CF84B575
:1003A0008F7784BD089584B58F7DFBCF80919000B9
:1003B0008F77809390000895809190008F7DF9CF82
:1003C00080919000877FF5CF8091C0008F778093D8
:1003D000C00008958091C0008F7DF9CF8091C20048
:1003E000877F8093C20008951F93CF93DF93282FB8
:1003F00030E0F901EE56FE4F8491F901ED58FE4FC1
:10040000D491F901EC5AFE4FC491CC23A9F0162FD8
:1004100081110E94A801EC2FF0E0EE0FFF1FEA5BB4
:10042000FE4FA591B4918FB7F894EC91111108C0CB
:10043000D095DE23DC938FBFDF91CF911F9108957C
:10044000DE2BF8CFCF93DF9390E0FC01ED58FE4F09
:1004500024918C5A9E4FFC0184918823D1F090E026
:10046000880F991FFC01E85CFE4FA591B491FC0137
:10047000EA5BFE4FC591D49161110EC09FB7F8940D
:100480008C91E22FE0958E238C932881E223E883E0
:100490009FBFDF91CF9108958FB7F894EC91E22B35
:1004A000EC938FBFF6CF3FB7F8948091F001909115
:1004B000F101A091F201B091F30126B5A89B05C00E
:1004C0002F3F19F00196A11DB11D3FBFBA2FA92FD3
:1004D000982F8827BC01CD01620F711D811D911DD0
:1004E00042E0660F771F881F991F4A95D1F708953C
:1004F0008F929F92AF92BF92CF92DF92EF92FF9234
:100500004B015C010E9453026B017C010E9453026B
:100510006C197D098E099F09683E7340810591051C
:10052000A8F321E0821A9108A108B10888EEC80E4C
:1005300083E0D81EE11CF11C81149104A104B104D4
:1005400029F7FF90EF90DF90CF90BF90AF909F90F2
:100550008F90089508954091E5015091E601209112
:10056000E3013091E40142175307B4F49091E8009D
:100570009570E1F39091E80092FD19C08093F1002D
:100580008091E5019091E60101968F739927892B5F
:1005900019F48EEF8093E8008091E5019091E601D7
:1005A00001969093E6018093E50181E0089580E053
:1005B0000895DF92EF92FF920F931F93CF93DF93F3
:1005C000D82E8A01EB017B01E40EF51ECE15DF0566
:1005D00059F0D7FE12C0FE0184910E94AB02219611
:1005E0008111F4CF0FEF1FEFC801DF91CF911F9161
:1005F0000F91FF90EF90DF9008958881EECF0F93D9
:100600001F93CF93DF931F92CDB7DEB782E089832C
:1006100042E450E06AEB70E080E80E94D9020E9458
:100620009401DC0112960D911C910115110589F0C0
:10063000D801ED91FC910280F381E02DBE016F5F46
:100640007F4FC801099597FD04C0F8010085118509
:10065000ECCF89810F90DF91CF911F910F91089579
:10066000615030F02091F100FC0120830196F8CF19
:10067000289884E68093100208958F929F92AF92FB
:10068000BF92CF92DF92EF92FF920F931F93CF937F
:10069000DF936C017B018A0180910B01882309F4AF
:1006A0005CC080911102882309F457C08091E90150
:1006B00080FF05C08091E00082608093E000E80147
:1006C000B12C8AEFA82E93E0892E2AE3922E209750
:1006D00011F4BB20D9F10E942F0181110AC0AA9404
:1006E000AA20D9F161E070E080E090E00E947802F9
:1006F000EECF8C171D0611F00CF08C2F9FB7F894DD
:100700008092E9002091E80025FD02C09FBFDFCF65
:10071000282F30E0C21BD30BF701815020F041910C
:100720004093F100FACFE20EF31EBB2021F090922D
:10073000E800B12CEBCF8091E80085FDE7CF9092E7
:10074000E800BB24B394209709F3F3CF5D9884E6C7
:100750008093E801101611063CF081E090E0F6016C
:100760009383828310E000E0C801DF91CF911F9155
:100770000F91FF90EF90DF90CF90BF90AF909F9040
:100780008F900895CF93DF931F92CDB7DEB7698323
:10079000DC01ED91FC910280F381E02D41E050E01D
:1007A000BE016F5F7F4F09950F90DF91CF91089544
:1007B000682F8BE192E00C94C20383E08093E90000
:1007C0008091F200882319F08AE38093E80008956D
:1007D0000E942F0190E00895CF93DF931F92CDB731
:1007E000DEB7FC018485958597FD08C02FEF3FEFAC
:1007F000358724870F90DF91CF910895CE01019620
:100800000E940501019719F4898190E0F3CF8FEFE1
:100810009FEFF0CF0F931F93CF93DF931F92CDB72E
:10082000DEB78C01FC018485958597FF0BC0CE0156
:1008300001960E940501019771F4898190E0F80109
:1008400095878487F801848595850F90DF91CF91F6
:100850001F910F9108958FEF9FEFF1CFFC018485D9
:10086000958597FD0BC09FB7F89482E08093E900CF
:100870008091F2009FBF90E0019608959FB7F89491
:1008800082E08093E9008091F2009FBF90E008959C
:100890000F931F93CF93DF93EC018B018F81811115
:1008A00007C0E881F9810190F081E02DCE01099522
:1008B0008A819B810817190730F08C819D81081768
:1008C000190708F4C8011092BF0025E09695879596
:1008D0002A95E1F781508093D200DF91CF911F914B
:1008E0000F910895DC01F8941092C200E1ECF0E061
:1008F00090819F779083789417961C920895CF9358
:10090000DF93EC0161E08CE00E942202F894E2ECBB
:10091000F0E0808185608083E1ECF0E08081806898
:100920008083789481E08F83DF91CF9108950F9336
:100930001F93CF93DF93EC018B018F81811107C04F
:10094000E881F9810190F081E02DCE0109958A813D
:100950009B810817190730F08C819D8108171907B2
:1009600008F4C801880F991F01979093990080930C
:100970009800DF91CF911F910F910895DC01F894B9
:10098000E0E9F0E090819F779083789417961C922D
:100990000895CF93DF93EC0161E085E00E9422028D
:1009A000F89482E8809390008AE1809391008FE32D
:1009B0009CE99093970080939600789481E08F83D0
:1009C000DF91CF910895CF93DF93EFE9F1E0849128
:1009D000E0E8F1E0D491E1E6F1E0C491CC2321F12B
:1009E00081110E94A801EC2FF0E0EE0FFF1FE455EB
:1009F000FF4FA591B491EC91ED23B1F080911602D7
:100A000090911702A0911802B09119020197A109C3
:100A1000B1098093160290931702A0931802B09325
:100A20001902DF91CF9108958091160290911702DB
:100A3000A0911802B09119020196A11DB11DE9CF34
:100A400020E077FF04C071956195710921E0FC01F8
:100A500082859385681779070CF4CB01222339F03E
:100A60002A9A229A90938B0080938A0008952A985C
:100A7000F8CF20E077FF04C071956195710921E0FE
:100A8000FC0182859385681779070CF4CB0122233A
:100A900039F0299A219A90938900809388000895CB
:100AA0002998F8CFCF93DC0118968D919C911997D6
:100AB0001A962D913C911B978217930751F0AC0128
:100AC000421B530B49325105A0F41B969C938E9305
:100AD0001A97C1E01A966D917C911B97ED91FC914C
:100AE00011970480F581E02DCD0109958C2FCF91D0
:100AF00008952817390740F4285D3F4F1B963C9313
:100B00002E931A97C0E0E6CF82179307D8F72852A2
:100B10003109F4CF82E291E00E945205811107C0B1
:100B200064E170E080E090E00E947802F3CF0895E5
:100B300086E191E00E945205811107C064E170E0F6
:100B400080E090E00E947802F3CF08954F925F9288
:100B50006F927F928F929F92AF92BF92CF92DF92CD
:100B6000EF92FF920F931F93CF93DF93CDB7DEB732
:100B700060970FB6F894DEBF0FBECDBF69837A834E
:100B80008B839C8306E910E0F89480911602909183
:100B90001702A0911802B0911902789429813A8124
:100BA0004B815C81821B930BA40BB50B18161906A5
:100BB0001A061B060CF041C1F894409116025091A0
:100BC00017026091180270911902789489819A81B4
:100BD000AB81BC81481B590B6A0B7B0B8091D40203
:100BE00045305105610571050CF44AC129813A81EE
:100BF0004B815C812093E2023093E3024093E40254
:100C00005093E5021092EA021092EB021092EC026D
:100C10001092ED0260E00E94F40161E08091D20246
:100C20000E94F40110938D0000938C008FB7F8940C
:100C3000209112023091130240911402509115023A
:100C40002D833E834F8358878FBF8091EE02909112
:100C5000EF02A091F002B091F10249015A01881A05
:100C6000990AAA0ABB0A3AE083169104A104B104C6
:100C700008F48ACFF8948091160290911702A091FF
:100C80001802B091190278944090E2025090E30269
:100C90006090E4027090E502481A590A6A0A7B0AD9
:100CA000C301B2010E9404122091D6023091D702F2
:100CB0004091D8025091D9020E943F1269877A87E9
:100CC0008B879C87A3019201C501B4010E944E133A
:100CD000C090EA02D090EB02E090EC02F090ED02BE
:100CE000C60ED71EE81EF91E49E8C41643E1D40615
:100CF000E104F10434F098E8C92E93E1D92EE12CF7
:100D0000F12C58E7C5165CEED5065FEFE506F50653
:100D10003CF488E7C82E8CEED82EEE24EA94FE2C04
:100D2000C092EA02D092EB02E092EC02F092ED0265
:100D30008091E6029091E702A091E802B091E90269
:100D4000A3019201281B390B4A0B5B0BCA01B901A5
:100D50000E9404126D877E878F87988BC501B4012E
:100D60000E9402129B01AC016D857E858F8598895A
:100D70000E94F3132091DE023091DF024091E002E5
:100D80005091E1020E943F124B015C01C701B60184
:100D90000E9404122091DA023091DB024091DC02C1
:100DA0005091DD020E943F1229853A854B855C8572
:100DB0000E9487139B01AC01C501B4010E948713F7
:100DC0000E9465149B0168334FEF74070CF444C014
:100DD0007A876987693C710524F088EC90E09A87EE
:100DE00089878091D40237FF3CC061E08091D402B2
:100DF0000E94F40160E08091D2020E94F4012985F2
:100E00003A8531952195310930938D0020938C00DE
:100E10004092E6025092E7026092E8027092E90284
:100E20008D819E81AF81B8858093EE029093EF0211
:100E3000A093F002B093F102A7CEF894809116022D
:100E400090911702A0911802B091190278944981EB
:100E50005A816B817C81BECEA8E3BFEFBA87A98798
:100E6000C4CF60E00E94F40161E08091D2020E9450
:100E7000F40149855A8550938D0040938C00C8CF6A
:100E800060E00E94F40161E08091D2020E94F401CE
:100E900010928D0010928C0060960FB6F894DEBF11
:100EA0000FBECDBFDF91CF911F910F91FF90EF90BB
:100EB000DF90CF90BF90AF909F908F907F906F907A
:100EC0005F904F900895FC0101900020E9F7319761
:100ED000AF01481B590BBC018BE192E00C943D0320
:100EE0008F929F92AF92BF920F931F93CF93DF93F6
:100EF000CDB7DEB7A1970FB6F894DEBF0FBECDBF5A
:100F000019A2423008F44AE08E010F5D1F4F842E73
:100F1000912CB12CA12CA50194010E945E13E62F07
:100F2000B901CA01EA30F4F4E05DD801EE938D0115
:100F3000232B242B252B79F790E080E0109719F0D4
:100F4000CD010E946307A1960FB6F894DEBF0FBED5
:100F5000CDBFDF91CF911F910F91BF90AF909F9028
:100F60008F900895E95CE1CFCF93DF93EC018EE39E
:100F70000E94D803209719F0CE010E9463078AE3EC
:100F80000E94D8034AE060E070E0CB010E94700745
:100F90008EE20E94D8034AE060E070E0CB010E943C
:100FA00070074AE060E070E0CB010E9470078AE0C1
:100FB000DF91CF910C94D8038CE697E090932B01AE
:100FC00080932A010E948A0564E670E080E090E048
:100FD0000E94780284EC99E090931F0180931E0197
:100FE0000E94980564E670E080E090E00E9478023C
:100FF00083E791E00C94B4078CED95E090932B017E
:1010000080932A010E948A0564E670E080E090E007
:101010000E94780284EF91E090931F0180931E015B
:101020000E94980564E670E080E090E00E947802FB
:1010300083E791E00C94B407CF93DF930E9463079A
:10104000EC0184E891E00E9463078C0F9D1FDF9103
:10105000CF910895FC0180819181009711F00C944B
:10106000371508950E947D160F931F93CF93DF933A
:10107000EC0188819981009759F02A813B812617DC
:10108000370730F081E0DF91CF911F910F910895E4
:101090008B016F5F7F4F0E94C015009759F09983B5
:1010A00088831B830A832C813D81232B59F7FC0104
:1010B0001082E8CF80E0E7CFEF92FF920F931F936B
:1010C000CF93DF93EC017B018A01BA010E943408BF
:1010D00028813981811114C02115310519F0C90108
:1010E0000E943715198218821D821C821B821A8267
:1010F000CE01DF91CF911F910F91FF90EF90089556
:101100001D830C83B701C9010E948B16F1CFFB012F
:1011100001900020E9F73197AF01461B570B0C9463
:101120005C08FC01118210821382128215821482E3
:10113000FB0101900020E9F73197AF01461B570BE7
:101140000C945C08EF92FF920F931F93CF93DF9361
:10115000CDB7DEB72C970FB6F894DEBF0FBECDBF6C
:101160008C0166E871E0CE0107960E949108011596
:10117000110509F050C01092CB021092CA0267E824
:1011800071E0CE0107960E94870860E070E0CB0115
:101190000E94A60563EB71E0CE0101960E949108C2
:1011A000EF80F884E114F10409F46FC00B851C850D
:1011B00001151105B9F08D819E81080F191FB80125
:1011C000CE0101960E943408882309F45EC029816B
:1011D0003A818D819E81B701820F931F0E948B16E9
:1011E0001E830D8389819A810E94B407CE010196E6
:1011F0000E942A08CE0107960E942A082C960FB654
:10120000F894DEBF0FBECDBFDF91CF911F910F913C
:10121000FF90EF900895043F81E0180779F4109350
:10122000CB020093CA0263E971E0CE0107960E94E7
:10123000870864EF71E080E090E0AACF083E83E089
:10124000180779F41093CB020093CA026EE971E09B
:10125000CE0107960E94870868EE73E080E090E078
:1012600097CF0C3D85E0180709F094CF1093CB027F
:101270000093CA026AEA71E0CE0107960E948708CD
:101280006CED75E080E090E083CF89819A810097D2
:1012900011F00E9437151A8219821E821D821C824B
:1012A0001B82A0CF1F920F920FB60F9211242F9383
:1012B0003F934F935F936F937F938F939F93AF93DE
:1012C000BF93EF93FF93CF93DF9300D01F92CDB7DF
:1012D000DEB783B18983898190911A0289278A8335
:1012E00080916B009A8189238B838B8180FF05C05D
:1012F000E0910002F091010209958B8181FF05C008
:10130000E0910202F091030209958B8182FF05C0F2
:10131000E0910402F091050209958B8183FF05C0DD
:10132000E0910602F091070209958B8184FF05C0C8
:10133000E0910802F091090209958B8185FF05C0B3
:10134000E0910A02F0910B0209958B8186FF05C09E
:10135000E0910C02F0910D0209958B8187FF05C089
:10136000E0910E02F0910F020995898180931A0293
:101370000F900F900F90DF91CF91FF91EF91BF9160
:10138000AF919F918F917F916F915F914F913F911D
:101390002F910F900FBE0F901F9018951F920F92D4
:1013A0000FB60F9211242F933F938F939F93AF9378
:1013B000BF938091120290911302A0911402B091F8
:1013C00015023091EF0123E0230F2D3758F50196D8
:1013D000A11DB11D2093EF0180931202909313027F
:1013E000A0931402B09315028091F0019091F10145
:1013F000A091F201B091F3010196A11DB11D80935E
:10140000F0019093F101A093F201B093F301BF9129
:10141000AF919F918F913F912F910F900FBE0F90A1
:101420001F90189526E8230F0296A11DB11DD2CF5B
:101430001F920F920FB60F9211242F933F934F9349
:101440005F936F937F938F939F93AF93BF93EF932C
:10145000FF93E0911401F09115010995FF91EF912F
:10146000BF91AF919F918F917F916F915F914F91BC
:101470003F912F910F900FBE0F901F9018951F92C4
:101480000F920FB60F9211242F933F934F935F93B8
:101490006F937F938F939F93AF93BF93EF93FF933C
:1014A000E0911201F09113010995FF91EF91BF9125
:1014B000AF919F918F917F916F915F914F913F91EC
:1014C0002F910F900FBE0F901F9018951F920F92A3
:1014D0000FB60F9211242F933F934F935F936F9307
:1014E0007F938F939F93AF93BF93EF93FF93E0917D
:1014F0001001F09111010995FF91EF91BF91AF910A
:101500009F918F917F916F915F914F913F912F911B
:101510000F900FBE0F901F9018951F920F920FB64D
:101520000F9211242F933F934F935F936F937F9369
:101530008F939F93AF93BF93EF93FF93E0910E012F
:10154000F0910F010995FF91EF91BF91AF919F919C
:101550008F917F916F915F914F913F912F910F905C
:101560000FBE0F901F9018951F920F920FB60F92FB
:1015700011242F933F934F935F936F937F938F9398
:101580009F93AF93BF93EF93FF93E0910C01F09182
:101590000D010995FF91EF91BF91AF919F918F91AF
:1015A0007F916F915F914F913F912F910F900FBE5F
:1015B0000F901F9018951F920F920FB60F92112443
:1015C0008F939F938091E1009091E100937F90939E
:1015D000E10083FF0FC01092E90091E09093EB00CF
:1015E0001092EC0092E39093ED001092110298E0BB
:1015F0009093F00082FF22C093E09093E9009091D5
:10160000F200992319F09AE39093E8009091E80191
:10161000992341F09091E80191509093E801911144
:1016200001C05D9A90911002992341F090911002AF
:10163000915090931002911101C0289A84FF18C014
:101640008091E2008E7E81608093E2008091E100D3
:101650008F7E8093E1008091E9018E7E806180938E
:10166000E9019F918F910F900FBE0F901F901895D9
:1016700080FFF7CF8091E2008E7E80618093E20050
:101680008091E1008E7E8093E1008091E9018E7E61
:101690008160E5CF1F920F920FB60F921124CF9267
:1016A000DF92EF92FF920F931F932F933F934F93ED
:1016B0005F936F937F938F939F93AF93BF93EF93BA
:1016C000FF93CF93DF93CDB7DEB76C97DEBFCDBF6F
:1016D0001092E9008091E80083FF25C068E0CE0108
:1016E00045960E94300382EF8093E8008D8987FF42
:1016F00039C09091E80090FFFCCF982F907609F0C8
:1017000034C19E894F89588D2F89F88C911131C031
:10171000803861F58091EA018093F1001092F10028
:101720008EEF8093E8006C960FB6F894DEBF0FBE84
:10173000CDBFDF91CF91FF91EF91BF91AF919F917D
:101740008F917F916F915F914F913F912F911F9159
:101750000F91FF90EF90DF90CF900F900FBE0F9002
:101760001F9018959EEF9093E800C7CF1092F1005C
:10177000D5CF913059F48111D3CF4130510581F645
:101780008091EA018D7F8093EA01CACF933049F4BA
:101790008111C6CF4130510519F68091EA0182606E
:1017A000F2CF953041F48091E80080FFFCCF2068B3
:1017B0002093E300B5CF963009F0A9C00B8D1C8DA6
:1017C00022E01092E9001092E6011092E501F21277
:1017D0002EC01092E4011092E3010E94FF021F82CA
:1017E00099E09983FA8291E09E8390EA98879AEF34
:1017F00099872091E5013091E601275F3F4F3C83B7
:101800002B838D831092E9001092E6011092E5017E
:101810001093E4010093E30149E050E0BE016F5FE3
:101820007F4F80E00E94D9020E94FF0279CF10937F
:10183000E4010093E3010E949401DC0112960D91F2
:101840001C910115110509F451C1D801ED91FC91CC
:101850000480F581E02DBE016B5E7F4FC8010995C4
:10186000009709F03EC1F80100851185EACFF3E049
:10187000FF120EC08F89882309F440C0823061F4C2
:1018800040E862E185E291E00E94B90D811148CF04
:1018900081E28093EB0047CF813029F440E862E198
:1018A00082E191E0F1CF833099F70E949401DC014D
:1018B0001296ED90FC908E010F5F1F4F6801E114AE
:1018C000F10479F0D701ED91FC910680F781E02DCC
:1018D000B801C7010995080F111DF701E084F184D3
:1018E000EECFD8011C92F60101900020E9F7319764
:1018F000BF016C197D0940E0C601C6CF6CEF70E0F6
:10190000FB01449150E080E80E94D90209CF973052
:1019100009F4BECF983021F481E08093F10000CF2C
:10192000993009F0FDCE837009F0B2CFE9E4F1E01F
:1019300081E031E096E32191222371F08093E90068
:101940003093EB00DF0111972C912093EC009093E2
:10195000ED008F5F873079F78EE78093EA00109271
:10196000EA008F8980931102DBCE8B8D9C8D1092C3
:10197000E9001092E6011092E5019093E401809352
:10198000E301898D811192C08E899D89913A49F434
:10199000813209F07DCF47E050E064E071E080E003
:1019A000B3CF913209F074CF833269F48F89988D67
:1019B000B0E0A0E08093000190930101A0930201A8
:1019C000B0930301ADCE803269F48091E80082FFCC
:1019D000FCCF67E084E091E00E9430038BEF8093BE
:1019E000E8009ECE823209F09BCE8F8980930B0156
:1019F000EEEFFFE7859194918B3F9C4D51F1E0E034
:101A0000F8E08091040190910501A0910601B09148
:101A10000701803B9440A105B105F1F480910B01D1
:101A200080FD1AC0EE3F8AE0F80789F587E797E75F
:101A300091838083809160008093E70188E19BE03F
:101A40000FB6F894A895809360000FBE9093600045
:101A500067CEEEEFFAE0D5CF808191818737974747
:101A600009F05ECEA8958091600088618093600047
:101A70008091E70180936000EE3F2AE0F20789F051
:101A80008091FE0A9091FF0A9183808349CE8081E4
:101A900091818737980751F29093FF0A8093FE0A4D
:101AA000C5CF1092FF0A1092FE0A3ACE0E9494010E
:101AB000DC0112960D911C910115110509F4E8CE77
:101AC000D801ED91FC910190F081E02DBE016B5E9B
:101AD0007F4FC8010995811123CEF801008511853A
:101AE000EBCF181619060CF41BCED2CEF1E0FF1284
:101AF000BECE60E071E004CF1F920F920FB60F923E
:101B000011242F933F934F935F938F939F93EF9362
:101B1000FF938091E2018F5F8093E201F894E6EFFA
:101B2000F2E086859785789424853585AC01421B43
:101B3000530B9587848751874087F894E8E0F3E05A
:101B400086859785789424853585AC01421B530B97
:101B50009587848751874087FF91EF919F918F915F
:101B60005F914F913F912F910F900FBE0F901F905B
:101B70001895EF92FF920F931F93CF93DF93F82E58
:101B8000192FE62E042F81E0860F880F0E94AB02EA
:101B900083E00E94AB02CF2DD12FEC0EFD2EF11C65
:101BA000CE15DF05B9F007FF13C0FE0184910E9436
:101BB000AB02182F80E00E94AB0281232196811195
:101BC000EFCFDF91CF911F910F91FF90EF9008958C
:101BD0008881EDCF81E0F5CFCF93DF9383E992E069
:101BE0000E942A08CBE6D1E0D0930903C0930803F2
:101BF0008AE093E00E942A08D093F702C093F6028D
:101C000088EF92E0DF91CF910C942A082F923F92B7
:101C10004F925F926F927F928F929F92AF92BF92FC
:101C2000CF92DF92EF92FF920F931F93CF93DF93A8
:101C300000D000D000D0CDB7DEB783B180931A02B8
:101C400010921E0210921D0288EE93E0A0E0B0E018
:101C500080931F0290932002A0932102B09322024E
:101C600083E591E090931C0280931B028FEF9FEF1E
:101C700090932802809327026BEB71E0CE010196CE
:101C80000E9491088BE691E09093F7028093F60210
:101C90001092F9021092F8021092FB021092FA02CE
:101CA0001092FD021092FC0269817A816115710522
:101CB00031F04D815E8188EF92E00E945C081092C5
:101CC000FF021092FE0284EA91E090930103809358
:101CD000000385E691E09093F7028093F602CE012F
:101CE00001960E942A086DEB71E0CE0101960E94D8
:101CF00091088BE691E0909309038093080310927A
:101D00000B0310920A0310920D0310920C03109211
:101D10000F0310920E0369817A816115710531F00C
:101D20004D815E818AE093E00E945C08109211036D
:101D30001092100384EA91E09093130380931203AE
:101D400081E791E09093090380930803CE01019607
:101D50000E942A0805E010E010936C0200936B02C9
:101D60008BE0282E312C30926E0220926D0284E09E
:101D700090E09093700280936F028DE090E09093DA
:101D8000720280937102412C512C612C90E4792EC7
:101D900040927302509274026092750270927602C1
:101DA0002DEC822E2CEC922EA92C2DE3B22E8092BB
:101DB000770290927802A0927902B0927A02C12CB6
:101DC000D12CE12C3FE3F32EC0927B02D0927C0217
:101DD000E0927D02F0927E0210927F0210928002C9
:101DE0001092810210928202109283021092840259
:101DF0001092850210928602109287021092880239
:101E00001092890210928A0210928B0210928C0218
:101E100010928D0210928E021092900210928F02F8
:101E200084E190E090939202809391021092940248
:101E300010929302109296021092950210929802BC
:101E40001092970250E040E066E871E083E992E08A
:101E50000E945C081092990210929A0210929B02C2
:101E600010929C0210929D0210929E0210929F026C
:101E70001092A0021092A1021092A2021092A3024C
:101E80001092A4021092A5021092A6021092A7022C
:101E90001092A8021092A9021092AA021092AB020C
:101EA0001092AC021092AD021092AE021092AF02EC
:101EB0001092B0021092B1021092B2021092B302CC
:101EC0001092B4021092B5021092B6021092B702AC
:101ED0001092B8021092B9021092BA021092BB028C
:101EE0001092BC021092BD021092BE021092BF026C
:101EF0001092C0021092C9021092CB021092CA0234
:101F00001092CD021092CC021093CF020093CE0219
:101F10003092D1022092D00284E090E09093D302DC
:101F20008093D2028DE090E09093D5028093D4020A
:101F30004092D6025092D7026092D8027092D90293
:101F40008092DA029092DB02A092DC02B092DD0273
:101F5000C092DE02D092DF02E092E002F092E10253
:101F60001092E2021092E3021092E4021092E50253
:101F70001092E6021092E7021092E8021092E90233
:101F80001092EA021092EB021092EC021092ED0213
:101F90001092EE021092EF021092F0021092F102F3
:101FA0001092F3021092F2021092F5021092F402D3
:101FB0006AE070E083E992E00E94340826960FB64A
:101FC000F894DEBF0FBECDBFDF91CF911F910F916F
:101FD000FF90EF90DF90CF90BF90AF909F908F9049
:101FE0007F906F905F904F903F902F9008957894DE
:101FF00084B5826084BD84B5816084BD85B582600E
:1020000085BD85B5816085BD80916E0081608093BE
:102010006E00109281008091810082608093810027
:102020008091810081608093810080918000816037
:1020300080938000809191008260809391008091D4
:1020400091008160809391008091900081608093E5
:1020500090008091C10084608093C1008091C10094
:1020600082608093C1008091C10081608093C10033
:102070008091C30081608093C3008091C000826022
:102080008093C0008091C20081608093C2008091E3
:102090007A00846080937A0080917A0082608093D5
:1020A0007A0080917A00816080937A0080917A0032
:1020B000806880937A00109211021092EA011092C7
:1020C000E9018091D70081608093D70080EA8093F6
:1020D000D80089B5806189BD89B5826089BD09B4A0
:1020E00000FEFDCF61E070E080E090E00E947802A9
:1020F0008091D8008F7C80618093D8008091E0002F
:10210000807F8093E0008091E1008E7E8093E100EB
:102110008DE08093E200559A209A8FEF9FEF909385
:1021200028028093270280EC91E00E941C08F8941A
:102130001092C0008AE08093C1001092C2001092F9
:10214000C3002091910230919202A0E8BEE30E9468
:102150003F1329E096958795779567952A95D1F74E
:1021600061507109862F871B7093BF008093D10047
:1021700084E08093720078948FEB91E00E941C08B9
:102180008BEC91E00E941C08F89482EA8093800016
:1021900089E18093810084EA91E0909387008093A5
:1021A0008600109289001092880010928B00109285
:1021B0008A0010928D0010928C00F89491E0909318
:1021C000680080916B00806180936B002EE531E0A8
:1021D00030930902209308029BBB80911A028F7EE4
:1021E00080931A0283B190911A028071892B809397
:1021F0001A02789480E491E0909315018093140181
:1022000080916A008F7C806180936A00EE9A789456
:102210008AEC91E00E941C082E98269A2A98229A0D
:1022200088ED91E00E941C0824982C9A6A98729A72
:102230008CB182FB882780F98093070393B180914A
:1022400007039295917089278093060387ED91E0AB
:102250000E941C082D98259A2998219A88ED91E0D2
:102260000E941C086E98769A8098889A8FB1817027
:10227000809319039CB18091190396FB992790F9DB
:1022800089278093180387ED91E00E941C0861E084
:102290008091D0020E94220261E08091D2020E94CD
:1022A000220261E08091D4020E94220260E080E07C
:1022B0000E94220260E081E00E94220288EA80936C
:1022C000800081E18093810080E991E09093870014
:1022D0008093860010928D0010928C0083EE94E023
:1022E0009093110180931001809169008F7C80612F
:1022F00080936900EA9AF8941092160210921702DD
:1023000010921802109219027894F8941092160202
:10231000109217021092180210921902789482E219
:1023200091E00E947F0480ED97E090932B018093D1
:102330002A01C0E0D0E068E873E180E090E00E940C
:1023400078028091EB019091EC01A091ED01B091A8
:10235000EE01181619061A061B060CF44DC090E083
:1023600080E00E94A20864EF71E080E090E00E94AB
:1023700078020E94DC0784EF91E00E94A20864EFDB
:1023800071E080E090E00E9478020E94FC0788EEF5
:1023900093E00E94A20864EF71E080E090E00E9468
:1023A00078020E94DC078CED95E00E94A20864EFA1
:1023B00071E080E090E00E9478020E94FC0790E0CB
:1023C00080E00E94A20864EF71E080E090E00E944B
:1023D00078028091EB019091EC01A091ED01B09118
:1023E000EE010196A11DB11D8093EB019093EC01CC
:1023F000A093ED01B093EE01209709F49CCF0E94C9
:10240000000099CFE89409C097FB3EF49095809521
:10241000709561957F4F8F4F9F4F9923A9F0F92FAA
:1024200096E9BB279395F695879577956795B79528
:10243000F111F8CFFAF4BB0F11F460FF1BC06F5F0E
:102440007F4F8F4F9F4F16C0882311F096E911C020
:10245000772321F09EE8872F762F05C0662371F041
:1024600096E8862F70E060E02AF09A95660F771F55
:10247000881FDAF7880F9695879597F908950E9437
:1024800052120C94C3120E94B51238F00E94BC1272
:1024900020F0952311F00C94AC120C94B21211247C
:1024A0000C94F7120E94D41270F3959FC1F3950F0C
:1024B00050E0551F629FF001729FBB27F00DB11DC8
:1024C000639FAA27F00DB11DAA1F649F6627B00D58
:1024D000A11D661F829F2227B00DA11D621F739F41
:1024E000B00DA11D621F839FA00D611D221F749F4F
:1024F0003327A00D611D231F849F600D211D822F96
:10250000762F6A2F11249F5750409AF0F1F08823BC
:102510004AF0EE0FFF1FBB1F661F771F881F9150E9
:102520005040A9F79E3F510580F00C94AC120C94DA
:10253000F7125F3FE4F3983ED4F38695779567955D
:10254000B795F795E7959F5FC1F7FE2B880F911D13
:102550009695879597F9089597F99F6780E870E0B9
:1025600060E008959FEF80EC089500240A94161609
:10257000170618060906089500240A941216130671
:10258000140605060895092E0394000C11F48823FF
:1025900052F0BB0F40F4BF2B11F460FF04C06F5F1B
:1025A0007F4F8F4F9F4F089557FD9058440F551FF1
:1025B00059F05F3F71F04795880F97FB991F61F0C5
:1025C0009F3F79F087950895121613061406551F3C
:1025D000F2CF4695F1DF08C0161617061806991FA8
:1025E000F1CF86957105610508940895E894BB279D
:1025F00066277727CB0197F908950E943F13A59F7F
:10260000900DB49F900DA49F800D911D11240895ED
:102610002F923F924F925F926F927F928F929F92F2
:10262000AF92BF92CF92DF92EF92FF920F931F93E0
:10263000CF93DF93CDB7DEB7CA1BDB0B0FB6F89491
:10264000DEBF0FBECDBF09942A88398848885F84D1
:102650006E847D848C849B84AA84B984C884DF8042
:10266000EE80FD800C811B81AA81B981CE0FD11D26
:102670000FB6F894DEBF0FBECDBFED010895A29F47
:10268000B001B39FC001A39F700D811D1124911D46
:10269000B29F700D811D1124911D0895DB018F9350
:1026A0009F930E94FD12BF91AF91A29F800D911D3B
:1026B000A39F900DB29F900D11240895A1E21A2EB0
:1026C000AA1BBB1BFD010DC0AA1FBB1FEE1FFF1FD6
:1026D000A217B307E407F50720F0A21BB30BE40B26
:1026E000F50B661F771F881F991F1A9469F760956D
:1026F0007095809590959B01AC01BD01CF01089527
:10270000EE0FFF1F0590F491E02D09945058BB2760
:10271000AA270E949E130C94C3120E94B51238F08F
:102720000E94BC1220F039F49F3F19F426F40C9457
:10273000B2120EF4E095E7FB0C94AC12E92F0E9464
:10274000D41258F3BA17620773078407950720F06D
:1027500079F4A6F50C94F6120EF4E0950B2EBA2F30
:10276000A02D0B01B90190010C01CA01A001112497
:10277000FF27591B99F0593F50F4503E68F11A1643
:10278000F040A22F232F342F4427585FF3CF4695D4
:1027900037952795A795F0405395C9F77EF41F16F6
:1027A000BA0B620B730B840BBAF09150A1F0FF0FC0
:1027B000BB1F661F771F881FC2F70EC0BA0F621FAC
:1027C000731F841F48F4879577956795B795F7959C
:1027D0009E3F08F0B0CF9395880F08F09927EE0F31
:1027E0009795879508950E9407140C94C3120E9430
:1027F000BC1258F00E94B51240F029F45F3F29F056
:102800000C94AC1251110C94F7120C94B2120E9459
:10281000D41268F39923B1F3552391F3951B550B0B
:10282000BB27AA2762177307840738F09F5F5F4FA3
:10283000220F331F441FAA1FA9F335D00E2E3AF0E2
:10284000E0E832D091505040E695001CCAF72BD0FA
:10285000FE2F29D0660F771F881FBB1F261737074B
:102860004807AB07B0E809F0BB0B802DBF01FF277D
:1028700093585F4F3AF09E3F510578F00C94AC129C
:102880000C94F7125F3FE4F3983ED4F38695779566
:102890006795B795F7959F5FC9F7880F911D969536
:1028A000879597F90895E1E0660F771F881FBB1F92
:1028B000621773078407BA0720F0621B730B840B3F
:1028C000BA0BEE1F88F7E09508950E946C14689487
:1028D000B1110C94F71208950E94DC1288F09F57F2
:1028E00098F0B92F9927B751B0F0E1F0660F771F34
:1028F000881F991F1AF0BA95C9F714C0B13091F02A
:102900000E94F612B1E008950C94F612672F782F0A
:102910008827B85F39F0B93FCCF3869577956795EE
:10292000B395D9F73EF490958095709561957F4F5A
:102930008F4F9F4F08950F931F93CF93DF93823054
:10294000910510F482E090E0E0911C03F0911D03EA
:1029500030E020E0B0E0A0E0309799F42115310597
:1029600009F44AC0281B390B24303105D8F58A8177
:102970009B816115710589F1FB0193838283FE01BF
:1029800011C0408151810281138148175907E0F03D
:102990004817590799F4109761F012960C93129703
:1029A00013961C933296CF01DF91CF911F910F9117
:1029B000089500931C0310931D03F4CF21153105D6
:1029C00051F04217530738F0A901DB019A01BD010C
:1029D000DF01F801C1CFEF01F9CF90931D03809380
:1029E0001C03CDCFFE01E20FF31F81939193225080
:1029F000310939832883D7CF20911A0330911B03E3
:102A0000232B41F4209130013091310130931B038D
:102A100020931A0320912E0130912F0121153105A9
:102A200041F42DB73EB74091320150913301241B40
:102A3000350BE0911A03F0911B03E217F307A0F4A2
:102A40002E1B3F0B2817390778F0AC014E5F5F4F04
:102A50002417350748F04E0F5F1F50931B03409318
:102A60001A03819391939FCFF0E0E0E09CCFCF9346
:102A7000DF930097E9F0FC01329713821282A09154
:102A80001C03B0911D03ED0130E020E01097A1F48C
:102A900020813181820F931F20911A0330911B03F3
:102AA0002817390709F061C0F0931B03E0931A035C
:102AB000DF91CF910895EA01CE17DF07E8F54A814B
:102AC0005B819E0141155105B1F7E901FB83EA8362
:102AD00049915991C40FD51FEC17FD0761F480810E
:102AE00091810296840F951FE901998388838281E1
:102AF00093819B838A83F0E0E0E012968D919C9114
:102B000013970097B9F52D913C911197CD0102963D
:102B1000820F931F20911A0330911B032817390746
:102B200039F6309751F510921D0310921C03B093A3
:102B30001B03A0931A03BCCFD383C283408151816E
:102B4000840F951FC817D90761F44E5F5F4F8881C6
:102B50009981480F591F518340838A819B819383B8
:102B600082832115310509F0B0CFF0931D03E09366
:102B70001C039ECFFD01DC01C0CF13821282D7CF90
:102B8000B0E0A0E0E6ECF5E10C940A138C010097AC
:102B900051F4CB010E949B148C01C801CDB7DEB764
:102BA000E0E10C942613FC01E60FF71F9C01225074
:102BB0003109E217F30708F49DC0D901CD91DC91EA
:102BC0001197C617D70798F0C530D10530F3CE015D
:102BD00004978617970708F3C61BD70B2297C19354
:102BE000D1936D937C93CF010E943715D6CF5B01B3
:102BF000AC1ABD0A4C018C0E9D1EA0911C03B09115
:102C00001D03512C412CF12CE12C109731F58091B2
:102C10001A0390911B038815990509F05CC04616AC
:102C2000570608F058C080912E0190912F0100970F
:102C300041F48DB79EB74091320150913301841B0E
:102C4000950BE817F90708F055C0F0931B03E093C4
:102C50001A03F90171836083A0CF8D919C91119724
:102C600012966C90129713967C901397A815B9053D
:102C700059F56C0142E0C40ED11CCA14DB0420F1EA
:102C8000AC014A195B09DA011296159780F062824D
:102C9000738251834083D9016D937C93E114F104D5
:102CA00071F0D7011396FC93EE93129776CF22968C
:102CB0008C0F9D1FF90191838083F301EFCFF09377
:102CC0001D03E0931C0369CF4816590608F42C0134
:102CD0007D01D3019ACFCB010E949B147C01009708
:102CE00049F0AE01B8010E948216C8010E94371552
:102CF000870153CF10E000E050CF81E090E0F894DE
:102D00000C949216FB01DC0102C001900D9241501F
:102D10005040D8F70895FB01DC0101900D9200208E
:102D2000E1F7089510E0CAEDD0E004C0FE010E9472
:0E2D300080132196CB3DD107C9F7F894FFCF51
:102D3E00FFFFFFFF00E1000000000000AA02AA0250
:102D4E00AA02AA02AA023801F401C409FF00DC0596
:102D5E00DC054201F401C409FF00DC05DC050000BE
:102D6E001E03800000000000C904BE04970400008A
:102D7E0000007F047204480400C18081000000003E
:102D8E00000000C2033D03E803DD032E04EC030A3A
:102D9E0004000000002005000000003208000000C2
:102DAE0000390553544154453A20434C4157204F66
:102DBE0050454E000D0A004C4946545F47524F5540
:102DCE004E44004C4946545F4649525354004C49B8
:102DDE0046545F5345434F4E44004C4946545F544E
:102DEE004F500053544154453A20004C0052002F8E
:102DFE00496E697454696D6572002F496E69744D20
:102E0E006F746F722829002F496E6974456E63289E
:022E1E00290089
:00000001FF
