:100000000C94DB000C949F060C9478060C9451061B
:100010000C942A060C9403010C9403010C9403061F
:100020000C9403010C943D050C94C6060C94350702
:100030000C9403010C9403010C9403010C94030130
:100040000C9403010C9403010C9403010C94030120
:100050000C9403010C9403010C9403010C94B90556
:100060000C9403010C9403010C9403010C94030100
:100070000C9403010C9403010C9403010C940301F0
:100080000C9403010C9403010C9403010C940301E0
:100090000C9403010C9403010C9403010C940301D0
:1000A0000C9403010C9467090C94030100000000F8
:1000B0002300260029002C002F00080B000202025A
:1000C00000000904000001020200000524001001E4
:1000D0000524010101042402060524060001070588
:1000E000810310004009040100020A000000070516
:1000F00002024000000705830240000004030904D7
:1001000012010002EF020140FB1F00230001010267
:100110000301506F6C6F6C7520436F72706F72616A
:1001200074696F6E00506F6C6F6C7520412D537445
:100130006172203332553400000000002400270093
:100140002A002D00300000000000250028002B00B0
:100150002E00310004040404040304050202020218
:100160000403020202020606060606060404020250
:100170000204040408020110408040102040804026
:1001800080080204018040201002011080102040ED
:1001900040200000000200090F0000030401000CD1
:1001A000000000000000000000000000000000004F
:1001B0000000F709E10D11241FBECFEFDAE0DEBF2A
:1001C000CDBF22E0A8E8B1E001C01D92A03CB2077B
:1001D000E1F711E0A0E0B1E0E6E9F0E202C005904D
:1001E0000D92A838B107D9F710E0CAEDD0E004C0ED
:1001F0002197FE010E94410EC93DD107C9F70E9417
:10020000F80B0C943E100C940000FC018091BB0193
:10021000882311F13FB7F89482E08093E9002091A0
:10022000F200822F90E01816190614F481E090E095
:10023000882339F0289844E64093BA014091F100B0
:100240004083222339F02091F200211103C02BE6D4
:100250002093E8003FBF08958FEF9FEF08952FB7D9
:10026000F89483E08093E9009091E800892F8072F0
:1002700095FF04C09091F20080E4891B2FBF089580
:100280003FB131702CB126FB222720F92327EAEA5F
:10029000F2E08089418966857785082E000C990BEC
:1002A0008327042E000C550B4227841B950B860FC9
:1002B000971F97878687208B318B0895CF93DF9385
:1002C0008CB1482F50E0559547955595479593B17A
:1002D000892F90E024E0959587952A95E1F784276A
:1002E0009527E8E9F2E06089A189C685D7859A015A
:1002F00021703327062E000C770B26273727BC01E9
:10030000617077270A2E000CBB0B6A277B27261B00
:10031000370B2C0F3D1F378726878170808B4170EC
:10032000418BDF91CF9108958091A20181110DC081
:1003300082E080939E0184E080939F011092A1014E
:100340001092A00181E08093A2018EE991E00895CE
:1003500081508F3008F047C0E82FF0E0EE54FE4F98
:100360000C94410ECF01D301C101C701CB01F301B0
:10037000F301F301D601DC01E001E401EA01F3013C
:10038000EE01809180008F778093800008958091A6
:1003900080008F7DF9CF80918000877FF5CF84B575
:1003A0008F7784BD089584B58F7DFBCF80919000B9
:1003B0008F77809390000895809190008F7DF9CF82
:1003C00080919000877FF5CF8091C0008F778093D8
:1003D000C00008958091C0008F7DF9CF8091C20048
:1003E000877F8093C20008951F93CF93DF93282FB8
:1003F00030E0F901EE56FE4F8491F901ED58FE4FC1
:10040000D491F901EC5AFE4FC491CC23A9F0162FD8
:1004100081110E94A801EC2FF0E0EE0FFF1FEA5BB4
:10042000FE4FA591B4918FB7F894EC91111108C0CB
:10043000D095DE23DC938FBFDF91CF911F9108957C
:10044000DE2BF8CFCF93DF9390E0FC01ED58FE4F09
:1004500024918C5A9E4FFC0184918823D1F090E026
:10046000880F991FFC01E85CFE4FA591B491FC0137
:10047000EA5BFE4FC591D49161110EC09FB7F8940D
:100480008C91E22FE0958E238C932881E223E883E0
:100490009FBFDF91CF9108958FB7F894EC91E22B35
:1004A000EC938FBFF6CF3FB7F89480919A0190916B
:1004B0009B01A0919C01B0919D0126B5A89B05C010
:1004C0002F3F19F00196A11DB11D3FBFBA2FA92FD3
:1004D000982F8827BC01CD01620F711D811D911DD0
:1004E00042E0660F771F881F991F4A95D1F708953C
:1004F000CF92DF92EF92FF920E9453026B017C0138
:100500000E9453026C197D098E099F09683E734051
:1005100081059105A8F3FF90EF90DF90CF900895AB
:10052000089540918B0150918C0120918901309167
:100530008A0142175307B4F49091E8009570E1F3F3
:100540009091E80092FD19C08093F10080918B0199
:1005500090918C0101968F739927892B19F48EEF56
:100560008093E80080918B0190918C01019690938B
:100570008C0180938B0181E0089580E00895EF92D3
:10058000FF920F931F93CF93DF93F82E192FE62E30
:10059000042F81E0860F880F0E94910283E00E9461
:1005A0009102CF2DD12FEC0EFD2EF11CCE15DF05C3
:1005B000B9F007FF13C0FE0184910E949102182F29
:1005C00080E00E949102812321968111EFCFDF917B
:1005D000CF911F910F91FF90EF9008958881EDCFFB
:1005E00081E0F5CFDF92EF92FF920F931F93CF93AD
:1005F000DF93D82E8A01EB017B01E40EF51ECE15A8
:10060000DF0559F0D7FE12C0FE0184910E949102CD
:1006100021968111F4CF0FEF1FEFC801DF91CF9129
:100620001F910F91FF90EF90DF9008958881EECF9A
:100630000F931F93CF93DF931F92CDB7DEB782E066
:10064000898342E450E06AEB70E080E80E94F202A5
:100650000E949401DC0112960D911C910115110567
:1006600089F0D801ED91FC910280F381E02DBE016B
:100670006F5F7F4FC801099597FD04C0F8010085A1
:100680001185ECCF89810F90DF91CF911F910F9150
:100690000895615030F02091F100FC012083019613
:1006A000F8CF289884E68093BA0108958F929F929C
:1006B000AF92BF92CF92DF92EF92FF920F931F9370
:1006C000CF93DF936C017B018A0180910B0188231A
:1006D00009F458C08091BB01882309F453C080916C
:1006E0008F0180FF05C08091E00082608093E00070
:1006F000E801B12C8AEFA82E93E0892E2AE3922EEE
:10070000209711F4BB20B9F10E942F01811106C07E
:10071000AA94AA20B9F10E947802F2CF8C171D0684
:1007200011F00CF08C2F9FB7F8948092E900209183
:10073000E80025FD02C09FBFE3CF282F30E0C21B99
:10074000D30BF701815020F041914093F100FACF93
:10075000E20EF31EBB2021F09092E800B12CEBCF0B
:100760008091E80085FDE7CF9092E800BB24B39428
:10077000209709F3F3CF5D9884E680938E011016DD
:1007800011063CF081E090E0F6019383828310E053
:1007900000E0C801DF91CF911F910F91FF90EF9082
:1007A000DF90CF90BF90AF909F908F900895CF93A0
:1007B000DF931F92CDB7DEB76983DC01ED91FC9129
:1007C0000280F381E02D41E050E0BE016F5F7F4F7A
:1007D00009950F90DF91CF91089583E08093E90010
:1007E0008091F200882319F08AE38093E80008954D
:1007F0000E942F0190E00895CF93DF931F92CDB711
:10080000DEB7FC018485958597FD08C02FEF3FEF8B
:10081000358724870F90DF91CF910895CE010196FF
:100820000E940501019719F4898190E0F3CF8FEFC1
:100830009FEFF0CF0F931F93CF93DF931F92CDB70E
:10084000DEB78C01FC018485958597FF0BC0CE0136
:1008500001960E940501019771F4898190E0F801E9
:1008600095878487F801848595850F90DF91CF91D6
:100870001F910F9108958FEF9FEFF1CFFC018485B9
:10088000958597FD0BC09FB7F89482E08093E900AF
:100890008091F2009FBF90E0019608959FB7F89471
:1008A00082E08093E9008091F2009FBF90E008957C
:1008B0000F931F93CF93DF93EC018B018F818111F5
:1008C00007C0E881F9810190F081E02DCE01099502
:1008D0008A819B810817190730F08C819D81081748
:1008E000190708F4C8011092BF0025E09695879576
:1008F0002A95E1F781508093D200DF91CF911F912B
:100900000F910895DC01F8941092C200E1ECF0E040
:1009100090819F779083789417961C920895CF9337
:10092000DF93EC0161E08CE00E942202F894E2EC9B
:10093000F0E0808185608083E1ECF0E08081806878
:100940008083789481E08F83DF91CF910895CF9356
:10095000DF93EFE9F1E08491E0E8F1E0D491E1E6A2
:10096000F1E0C491CC2321F181110E94A801EC2F68
:10097000F0E0EE0FFF1FE455FF4FA591B491EC910D
:10098000ED23B1F08091910190919201A09193019A
:10099000B09194010197A109B109809391019093BD
:1009A0009201A0939301B0939401DF91CF910895A8
:1009B0008091910190919201A0919301B091940145
:1009C0000196A11DB11DE9CF20E077FF04C071950C
:1009D0006195710921E0FC0182859385681779078B
:1009E0000CF4CB01222339F02A9A229A90938B009F
:1009F00080938A0008952A98F8CF20E077FF04C0FA
:100A000071956195710921E0FC01828593856817D4
:100A100079070CF4CB01222339F0299A219A90937B
:100A200089008093880008952998F8CFCF93DF93A9
:100A3000FC0101900020E9F73197AF01481B590BE9
:100A4000BC018DEB91E00E945603EC0142E050E0C6
:100A50006DE571E08DEB91E00E9456038C0F9D1FB8
:100A6000DF91CF9108950E942910FC01808191812E
:100A7000009711F00C94E30E08951F920F920FB699
:100A80000F9211242F933F934F935F936F937F9314
:100A90008F939F93AF93BF93EF93FF93CF93DF9386
:100AA00000D01F92CDB7DEB783B189838981909141
:100AB000BC0189278A8380916B009A8189238B836B
:100AC0008B8180FF05C0E091AA01F091AB010995EF
:100AD0008B8181FF05C0E091AC01F091AD010995DA
:100AE0008B8182FF05C0E091AE01F091AF010995C5
:100AF0008B8183FF05C0E091B001F091B1010995B0
:100B00008B8184FF05C0E091B201F091B30109959A
:100B10008B8185FF05C0E091B401F091B501099585
:100B20008B8186FF05C0E091B601F091B701099570
:100B30008B8187FF05C0E091B801F091B90109955B
:100B400089818093BC010F900F900F90DF91CF911E
:100B5000FF91EF91BF91AF919F918F917F916F9195
:100B60005F914F913F912F910F900FBE0F901F906B
:100B700018951F920F920FB60F9211242F933F9347
:100B80008F939F93AF93BF9380919601909197011C
:100B9000A0919801B09199013091950123E0230F24
:100BA0002D3758F50196A11DB11D20939501809315
:100BB000960190939701A0939801B0939901809129
:100BC0009A0190919B01A0919C01B0919D01019689
:100BD000A11DB11D80939A0190939B01A0939C014C
:100BE000B0939D01BF91AF919F918F913F912F91B4
:100BF0000F900FBE0F901F90189526E8230F0296B6
:100C0000A11DB11DD2CF1F920F920FB60F921124CA
:100C10002F933F934F935F936F937F938F939F9304
:100C2000AF93BF93EF93FF93E0911401F0911501FF
:100C30000995FF91EF91BF91AF919F918F917F9116
:100C40006F915F914F913F912F910F900FBE0F9039
:100C50001F9018951F920F920FB60F9211242F9389
:100C60003F934F935F936F937F938F939F93AF9334
:100C7000BF93EF93FF93E0911201F0911301099557
:100C8000FF91EF91BF91AF919F918F917F916F9164
:100C90005F914F913F912F910F900FBE0F901F903A
:100CA00018951F920F920FB60F9211242F933F9316
:100CB0004F935F936F937F938F939F93AF93BF9364
:100CC000EF93FF93E0911001F09111010995FF91CD
:100CD000EF91BF91AF919F918F917F916F915F91B4
:100CE0004F913F912F910F900FBE0F901F9018952D
:100CF0001F920F920FB60F9211242F933F934F9391
:100D00005F936F937F938F939F93AF93BF93EF9373
:100D1000FF93E0910E01F0910F010995FF91EF9182
:100D2000BF91AF919F918F917F916F915F914F9103
:100D30003F912F910F900FBE0F901F9018951F920B
:100D40000F920FB60F9211242F933F934F935F93FF
:100D50006F937F938F939F93AF93BF93EF93FF9383
:100D6000E0910C01F0910D010995FF91EF91BF9178
:100D7000AF919F918F917F916F915F914F913F9133
:100D80002F910F900FBE0F901F9018951F920F92EA
:100D90000FB60F9211248F939F938091E100909151
:100DA000E100937F9093E10083FF0FC01092E90070
:100DB00091E09093EB001092EC0092E39093ED00A1
:100DC0001092BB0198E09093F00082FF22C093E064
:100DD0009093E9009091F200992319F09AE390938F
:100DE000E80090918E01992341F090918E019150ED
:100DF00090938E01911101C05D9A9091BA0199234F
:100E000041F09091BA0191509093BA01911101C0B3
:100E1000289A84FF18C08091E2008E7E81608093C2
:100E2000E2008091E1008F7E8093E10080918F014C
:100E30008E7E806180938F019F918F910F900FBE66
:100E40000F901F90189580FFF7CF8091E2008E7E63
:100E500080618093E2008091E1008E7E8093E100CA
:100E600080918F018E7E8160E5CF1F920F920FB629
:100E70000F921124CF92DF92EF92FF920F931F9364
:100E80002F933F934F935F936F937F938F939F9392
:100E9000AF93BF93EF93FF93CF93DF93CDB7DEB7BD
:100EA0006C97DEBFCDBF1092E9008091E80083FF10
:100EB00025C068E0CE0145960E94490382EF8093E9
:100EC000E8008D8987FF39C09091E80090FFFCCF42
:100ED000982F907609F034C19E894F89588D2F89BB
:100EE000F88C911131C0803861F580919001809328
:100EF000F1001092F1008EEF8093E8006C960FB62F
:100F0000F894DEBF0FBECDBFDF91CF91FF91EF917F
:100F1000BF91AF919F918F917F916F915F914F9111
:100F20003F912F911F910F91FF90EF90DF90CF9005
:100F30000F900FBE0F901F9018959EEF9093E800B2
:100F4000C7CF1092F100D5CF913059F48111D3CF92
:100F50004130510581F6809190018D7F8093900101
:100F6000CACF933049F48111C6CF4130510519F6EB
:100F7000809190018260F2CF953041F48091E80039
:100F800080FFFCCF20682093E300B5CF963009F0B6
:100F9000A9C00B8D1C8D22E01092E90010928C01EB
:100FA00010928B01F2122EC010928A0110928901C8
:100FB0000E9418031F8299E09983FA8291E09E8330
:100FC00090EA98879AEF998720918B0130918C0154
:100FD000275F3F4F3C832B838D831092E900109253
:100FE0008C0110928B0110938A010093890149E0D2
:100FF00050E0BE016F5F7F4F80E00E94F2020E94CE
:10100000180379CF10938A01009389010E949401FB
:10101000DC0112960D911C910115110509F451C1C5
:10102000D801ED91FC910480F581E02DBE016B5E4D
:101030007F4FC8010995009709F03EC1F80100856E
:101040001185EACFF3E0FF120EC08F89882309F4DF
:1010500040C0823061F440E862E185E291E00E94A4
:10106000BF02811148CF81E28093EB0047CF8130EE
:1010700029F440E862E182E191E0F1CF833099F711
:101080000E949401DC011296ED90FC908E010F5F9E
:101090001F4F6801E114F10479F0D701ED91FC9143
:1010A0000680F781E02DB801C7010995080F111DD1
:1010B000F701E084F184EECFD8011C92F601019093
:1010C0000020E9F73197BF016C197D0940E0C601A6
:1010D000C6CF6CEF70E0FB01449150E080E80E94C5
:1010E000F20209CF973009F4BECF983021F481E0A5
:1010F0008093F10000CF993009F0FDCE837009F0A4
:10110000B2CFE3E3F1E081E031E096E321912223E5
:1011100071F08093E9003093EB00DF0111972C917F
:101120002093EC009093ED008F5F873079F78EE786
:101130008093EA001092EA008F898093BB01DBCE96
:101140008B8D9C8D1092E90010928C0110928B0176
:1011500090938A0180938901898D811192C08E8933
:101160009D89913A49F4813209F07DCF47E050E002
:1011700064E071E080E0B3CF913209F074CF833244
:1011800069F48F89988DB0E0A0E08093000190937E
:101190000101A0930201B0930301ADCE803269F446
:1011A0008091E80082FFFCCF67E084E091E00E943C
:1011B00049038BEF8093E8009ECE823209F09BCEEC
:1011C0008F8980930B01EEEFFFE7859194918B3F20
:1011D0009C4D51F1E0E0F8E080910401909105010F
:1011E000A0910601B0910701803B9440A105B10593
:1011F000F1F480910B0180FD1AC0EE3F8AE0F80700
:1012000089F587E797E791838083809160008093D9
:101210008D0188E19BE00FB6F894A895809360005B
:101220000FBE9093600067CEEEEFFAE0D5CF8081DD
:1012300091818737974709F05ECEA895809160002D
:1012400088618093600080918D0180936000EE3F03
:101250002AE0F20789F08091FE0A9091FF0A9183BB
:10126000808349CE808191818737980751F290938E
:10127000FF0A8093FE0AC5CF1092FF0A1092FE0A61
:101280003ACE0E949401DC0112960D911C91011539
:10129000110509F4E8CED801ED91FC910190F0819F
:1012A000E02DBE016B5E7F4FC8010995811123CEF1
:1012B000F80100851185EBCF181619060CF41BCE2A
:1012C000D2CEF1E0FF12BECE60E071E004CF1F92FB
:1012D0000F920FB60F9211242F933F934F935F936A
:1012E0008F939F93EF93FF93809188018F5F8093FB
:1012F0008801F894E8E9F2E086859785789424855A
:101300003585AC01421B530B9587848751874087F5
:10131000F894EAEAF2E08685978578942485358505
:10132000AC01421B530B9587848751874087FF91FF
:10133000EF919F918F915F914F913F912F910F90DE
:101340000FBE0F901F9018950F931F93CF93DF93AD
:10135000EC0188819981009759F02A813B812617F9
:10136000370730F081E0DF91CF911F910F91089501
:101370008B016F5F7F4F0E946C0F009759F099832C
:1013800088831B830A832C813D81232B59F7FC0121
:101390001082E8CF80E0E7CFEF92FF920F931F9388
:1013A000CF93DF93EC017B018A01BA010E94A4096B
:1013B00028813981811114C02115310519F0C90125
:1013C0000E94E30E198218821D821C821B821A82DF
:1013D000CE01DF91CF911F910F91FF90EF90089573
:1013E0001D830C83B701C9010E943710F1CF2F92E2
:1013F0003F924F925F926F927F928F929F92AF92A5
:10140000BF92CF92DF92EF92FF920F931F93CF93F1
:10141000DF9300D000D000D0CDB7DEB783B180938A
:10142000BC011092C0011092BF0188EE93E0A0E0D1
:10143000B0E08093C1019093C201A093C301B09327
:10144000C4018DE391E09093BE018093BD018FEFC5
:101450009FEF9093CA018093C9011A8219821C825E
:101460001B821E821D8241E050E060E671E0CE01E9
:1014700001960E94CC0985E591E0909399028093B2
:10148000980210929B0210929A0210929D02109262
:101490009C0210929F0210929E0269817A816115CE
:1014A000710531F04D815E818AE992E00E94CC099C
:1014B0001092A1021092A00284EA91E09093A302FC
:1014C0008093A2028FE491E0909399028093980216
:1014D000CE0101960E9435051A8219821C821B8258
:1014E0001E821D8241E050E062E671E0CE0101966D
:1014F0000E94CC0985E591E09093AB028093AA020B
:101500001092AD021092AC021092AF021092AE0295
:101510001092B1021092B00269817A816115710551
:1015200031F04D815E818CEA92E00E94CC091092EC
:10153000B3021092B20284EA91E09093B5028093D4
:10154000B4028BE591E09093AB028093AA02CE01A6
:1015500001960E94350505E010E010930E020093FD
:101560000D028BE0282E312C3092100220920F02B7
:1015700084E090E090931202809311028DE090E05D
:101580009093140280931302412C512C612C90E40F
:10159000792E4092150250921602609217027092B4
:1015A00018022DEC822E2CEC922EA92C2DE3B22EBB
:1015B0008092190290921A02A0921B02B0921C0211
:1015C000C12CD12CE12C3FE3F32EC0921D02D0920E
:1015D0001E02E0921F02F09220021092210210924D
:1015E00022021092230210922402109225021092DD
:1015F00026021092270210922802109229021092BD
:101600002A0210922B0210922C0210922D0210929C
:101610002E0210922F02109230021092320210927B
:10162000310284E190E0909334028093330210926F
:101630003602109235021092380210923702109240
:101640003A021092390250E040E06FE571E085E324
:1016500092E00E94CC0910923B0210923C02109240
:101660003D0210923E0210923F02109240021092F0
:1016700041021092420210924302109244021092D0
:1016800045021092460210924702109248021092B0
:10169000490210924A0210924B0210924C02109290
:1016A0004D0210924E0210924F0210925002109270
:1016B0005102109252021092530210925402109250
:1016C0005502109256021092570210925802109230
:1016D000590210925A0210925B0210925C02109210
:1016E0005D0210925E0210925F02109260021092F0
:1016F00061021092620210926B0210926D021092BF
:101700006C0210926F0210926E021093710200939D
:101710007002309273022092720284E090E0909303
:101720007502809374028DE090E09093770280932D
:101730007602409278025092790260927A02709218
:101740007B0280927C0290927D02A0927E02B092F7
:101750007F02C0928002D0928102E0928202F092D7
:1017600083021092840210928502109286021092D7
:101770008702109288021092890210928A021092B7
:101780008B0210928C0210928D0210928E02109297
:101790008F02109290021092910210929202109277
:1017A0009302109295021092940210929702109256
:1017B00096026AE070E085E392E00E94A409269612
:1017C0000FB6F894DEBF0FBECDBFDF91CF911F9152
:1017D0000F91FF90EF90DF90CF90BF90AF909F90D0
:1017E0008F907F906F905F904F903F902F900895D3
:1017F000789484B5826084BD84B5816084BD85B5EC
:10180000826085BD85B5816085BD80916E008160F7
:1018100080936E001092810080918100826080939D
:10182000810080918100816080938100809180009F
:10183000816080938000809191008260809391000C
:1018400080919100816080939100809190008160EF
:10185000809390008091C10084608093C10080914A
:10186000C10082608093C1008091C100816080933B
:10187000C1008091C30081608093C3008091C0004B
:1018800082608093C0008091C20081608093C2001A
:1018900080917A00846080937A0080917A008260DF
:1018A00080937A0080917A00816080937A008091A1
:1018B0007A00806880937A001092BB0110929001A8
:1018C00010928F018091D70081608093D70080EAC9
:1018D0008093D80089B5806189BD89B5826089BD52
:1018E00009B400FEFDCF0E9478028091D8008F7C61
:1018F00080618093D8008091E000807F8093E00039
:101900008091E1008E7E8093E1008DE08093E20083
:10191000559A209A8FEF9FEF9093CA018093C90147
:1019200085E691E00E941605F8941092C0008AE0C6
:101930008093C1001092C2001092C3002091330224
:1019400030913402A0E8BEE30E94320E29E0969561
:101950008795779567952A95D1F761507109862FFC
:10196000871B7093BF008093D10084E08093720046
:10197000789484E691E00E94160580E791E00E9449
:101980001605F89482EA8093800089E180938100B3
:1019900084EA91E0909387008093860010928900FA
:1019A0001092880010928B0010928A0010928D0085
:1019B00010928C00F89491E09093680080916B00F5
:1019C000806180936B002EE531E03093B30120936A
:1019D000B2019BBB8091BC018F7E8093BC0183B11F
:1019E0009091BC018071892B8093BC01789480E434
:1019F00091E0909315018093140180916A008F7C8F
:101A0000806180936A00EE9A78948FE691E00E945C
:101A100016052E98269A2A98229A8DE791E00E9420
:101A2000160524982C9A6A98729A8CB182FB8827A2
:101A300080F98093A90293B18091A9029295917047
:101A400089278093A8028CE791E00E9416052D98C3
:101A5000259A2998219A8DE791E00E9416056E98A3
:101A6000769A8098889A8FB181708093BB029CB1DE
:101A70008091BB0296FB992790F989278093BA023F
:101A80008CE791E00E94160561E0809172020E944D
:101A9000220261E0809174020E94220261E0809142
:101AA00076020E94220260E080E00E94220260E052
:101AB00081E00E94220288EA8093800081E1809385
:101AC000810080E991E090938700809386001092D6
:101AD0008D0010928C0087EA94E09093110180931E
:101AE0001001809169008F7C806180936900EA9A7F
:101AF000F894109291011092920110929301109219
:101B000094017894F894109291011092920110929D
:101B1000930110929401789486E191E00E948F04E1
:101B200080ED97E090931F0180931E01F8948091BF
:101B3000910190919201A0919301B09194017894B8
:101B40008B3C9740A105B105BCF460E08091760222
:101B50000E94F40161E0809174020E94F40188EC1B
:101B600090E090938D0080938C00C0E0D0E02097AF
:101B7000F1F30E940000FBCFF894809191019091C5
:101B80009201A0919301B09194017894863D974081
:101B9000A105B1053CF061E0809176020E94F4015C
:101BA00060E0D9CF60E0809176020E94F40161E0AC
:101BB000809174020E94F40110928D0010928C00AA
:101BC000D4CFCF93DF9385E392E00E943505C5E53E
:101BD000D1E0D093AB02C093AA028CEA92E00E94BB
:101BE0003505D0939902C09398028AE992E0DF917B
:101BF000CF910C9435052F923F924F925F926F9246
:101C00007F928F929F92AF92BF92CF92DF92EF928C
:101C1000FF920F931F93CF93DF93CDB7DEB7CA1B0D
:101C2000DB0B0FB6F894DEBF0FBECDBF09942A8838
:101C3000398848885F846E847D848C849B84AA84E0
:101C4000B984C884DF80EE80FD800C811B81AA816D
:101C5000B981CE0FD11D0FB6F894DEBF0FBECDBF38
:101C6000ED010895A29FB001B39FC001A39F700D25
:101C7000811D1124911DB29F700D811D1124911D94
:101C80000895EE0FFF1F0590F491E02D09940F9336
:101C90001F93CF93DF938230910510F482E090E0A0
:101CA000E091BE02F091BF0230E020E0B0E0A0E0A1
:101CB000309799F42115310509F44AC0281B390BD6
:101CC00024303105D8F58A819B816115710589F130
:101CD000FB0193838283FE0111C040815181028107
:101CE000138148175907E0F04817590799F41097DE
:101CF00061F012960C93129713961C933296CF01B3
:101D0000DF91CF911F910F9108950093BE02109320
:101D1000BF02F4CF2115310551F04217530738F0B7
:101D2000A901DB019A01BD01DF01F801C1CFEF017B
:101D3000F9CF9093BF028093BE02CDCFFE01E20F98
:101D4000F31F819391932250310939832883D7CF90
:101D50002091BC023091BD02232B41F4209124013B
:101D6000309125013093BD022093BC0220912201C5
:101D7000309123012115310541F42DB73EB7409133
:101D8000260150912701241B350BE091BC02F091F4
:101D9000BD02E217F307A0F42E1B3F0B28173907EB
:101DA00078F0AC014E5F5F4F2417350748F04E0FB7
:101DB0005F1F5093BD024093BC02819391939FCFCC
:101DC000F0E0E0E09CCFCF93DF930097E9F0FC01D7
:101DD000329713821282A091BE02B091BF02ED0130
:101DE00030E020E01097A1F420813181820F931F11
:101DF0002091BC023091BD022817390709F061C05B
:101E0000F093BD02E093BC02DF91CF910895EA0107
:101E1000CE17DF07E8F54A815B819E014115510528
:101E2000B1F7E901FB83EA8349915991C40FD51FAA
:101E3000EC17FD0761F4808191810296840F951F54
:101E4000E90199838883828193819B838A83F0E06F
:101E5000E0E012968D919C9113970097B9F52D9122
:101E60003C911197CD010296820F931F2091BC02E5
:101E70003091BD022817390739F6309751F5109285
:101E8000BF021092BE02B093BD02A093BC02BCCFB1
:101E9000D383C28340815181840F951FC817D9070E
:101EA00061F44E5F5F4F88819981480F591F5183BC
:101EB00040838A819B81938382832115310509F0B8
:101EC000B0CFF093BF02E093BE029ECFFD01DC01D4
:101ED000C0CF13821282D7CFB0E0A0E0E2E7FFE0EC
:101EE0000C94FD0D8C01009751F4CB010E94470E1C
:101EF0008C01C801CDB7DEB7E0E10C94190EFC01EE
:101F0000E60FF71F9C0122503109E217F30708F48E
:101F10009DC0D901CD91DC911197C617D70798F0D4
:101F2000C530D10530F3CE0104978617970708F323
:101F3000C61BD70B2297C193D1936D937C93CF018E
:101F40000E94E30ED6CF5B01AC1ABD0A4C018C0E89
:101F50009D1EA091BE02B091BF02512C412CF12CCC
:101F6000E12C109731F58091BC029091BD0288154B
:101F7000990509F05CC04616570608F058C08091D4
:101F8000220190912301009741F48DB79EB74091B3
:101F9000260150912701841B950BE817F90708F0DB
:101FA00055C0F093BD02E093BC02F90171836083D8
:101FB000A0CF8D919C91119712966C9012971396C9
:101FC0007C901397A815B90559F56C0142E0C40E31
:101FD000D11CCA14DB0420F1AC014A195B09DA01F7
:101FE0001296159780F06282738251834083D901E3
:101FF0006D937C93E114F10471F0D7011396FC9377
:10200000EE93129776CF22968C0F9D1FF901918344
:102010008083F301EFCFF093BF02E093BE0269CF5C
:102020004816590608F42C017D01D3019ACFCB0143
:102030000E94470E7C01009749F0AE01B8010E9452
:102040002E10C8010E94E30E870153CF10E000E07C
:1020500050CF81E090E0F8940C943E10FB01DC013D
:1020600002C001900D9241505040D8F70895FB01F5
:10207000DC0101900D920020E1F7089510E0CAED17
:10208000D0E004C0FE010E94410E2196CB3DD10755
:06209000C9F7F894FFCF30
:10209600FFFFFFFF00E10000000000009002900239
:1020A6009002900290022C01F401C409FF00DC05A5
:1020B600DC050000C0028000000000008F048204DE
:1020C600580400C1808100000000000000D70356BC
:1020D60003F803ED033E04FC031A0400000000E4C9
:1020E6000400000000330500000000FD040D0A0096
:1020F6004C0052002F496E697454696D6572002F49
:10210600496E69744D6F746F722829002F496E6984
:0821160074456E6328290000E6
:00000001FF
