:100000000C94BD000C940C070C94E5060C94BE06F1
:100010000C9497060C94E5000C94E5000C94700683
:100020000C94E5000C94F4050C947D070C94EC07FB
:100030000C94E5000C94E5000C94E5000C94E500AC
:100040000C94E5000C94E5000C94E5000C94E5009C
:100050000C94E5000C94E5000C94E5000C94330737
:100060000C94E5000C94E5000C94E5000C94E5007C
:100070000C94E5000C94E5000C94E5000C94E5006C
:100080000C94E5000C94E5000C94E5000C94E5005C
:100090000C94E5000C94E5000C94E5000C94E5004C
:1000A0000C94E5000C941E0A0C94E500084AD73B1A
:1000B0003BCE016E84BCBFFDC12F3D6C74319ABD37
:1000C00056833DDA3D00C77F11BED9E4BB4C3E915B
:1000D0006BAAAABE000000803F05A84CCDB2D44E4A
:1000E000B93836A9020C50B9918688083CA6AAAA4C
:1000F0002ABE000000803F00080B00020202000040
:10010000090400000102020000052400100105247A
:1001100001010104240206052406000107058103EC
:1001200010004009040100020A0000000705020255
:100130004000000705830240000004030904120187
:100140000002EF020140FB1F002300010102030136
:10015000506F6C6F6C7520436F72706F7261746951
:100160006F6E00506F6C6F6C7520412D537461720F
:10017000203332553400AE0A0A1011241FBECFEFCF
:10018000DAE0DEBFCDBF22E0A0EDB1E001C01D92FC
:10019000AF3DB207E1F711E0A0E0B1E0E2E7FCE239
:1001A00002C005900D92A03DB107D9F710E0CCEB4D
:1001B000D0E004C02197FE010E94B011CB3BD107D3
:1001C000C9F70E942B0C0C942C160C940000FC0117
:1001D0008091FF01882311F13FB7F89482E080936A
:1001E000E9002091F200822F90E01816190614F40D
:1001F00081E090E0882339F0289844E64093FE019E
:100200004091F1004083222339F02091F200211126
:1002100003C02BE62093E8003FBF08958FEF9FEFC8
:1002200008952FB7F89483E08093E9009091E80057
:10023000892F807295FF04C09091F20080E4891BA1
:100240002FBF089508953FB131702CB126FB2227AE
:1002500020F92327E9ECF2E08089418966857785DA
:10026000082E000C990B8327042E000C550B4227F7
:10027000841B950B860F971F97878687208B318B62
:100280000895CF93DF938CB1482F50E05595479553
:100290005595479593B1892F90E024E095958795E2
:1002A0002A95E1F784279527E7EBF2E06089A18999
:1002B000C685D7859A0121703327062E000C770B4F
:1002C00026273727BC01617077270A2E000CBB0B4D
:1002D0006A277B27261B370B2C0F3D1F3787268766
:1002E0008170808B4170418BDF91CF910895809117
:1002F000E60181110DC082E08093E20184E08093E9
:10030000E3011092E5011092E40181E08093E6019F
:1003100082EE91E008953FB7F8948091DE019091CC
:10032000DF01A091E001B091E10126B5A89B05C0D5
:100330002F3F19F00196A11DB11D3FBFBA2FA92F64
:10034000982F8827BC01CD01620F711D811D911D61
:1003500042E0660F771F881F991F4A95D1F70895CD
:10036000CF92DF92EF92FF920E948B016B017C0192
:100370000E948B016C197D098E099F09683E7340AC
:1003800081059105A8F3FF90EF90DF90CF9008953D
:100390004091D2015091D3012091D0013091D101EF
:1003A00042175307B4F49091E8009570E1F39091EF
:1003B000E80092FD19C08093F1008091D2019091E4
:1003C000D30101968F739927892B19F48EEF8093AF
:1003D000E8008091D2019091D30101969093D301CE
:1003E0008093D20181E0089580E00895EF92FF921A
:1003F0000F931F93CF93DF93F82E192FE62E042F20
:1004000081E0860F880F0E94C80183E00E94C80126
:10041000CF2DD12FEC0EFD2EF11CCE15DF05B9F03E
:1004200007FF13C0FE0184910E94C801182F80E0CD
:100430000E94C801812321968111EFCFDF91CF91D6
:100440001F910F91FF90EF9008958881EDCF81E08B
:10045000F5CFDF92EF92FF920F931F93CF93DF932D
:10046000D82E8A01EB017B01E40EF51ECE15DF05C7
:1004700059F0D7FE12C0FE0184910E94C801219656
:100480008111F4CF0FEF1FEFC801DF91CF911F91C2
:100490000F91FF90EF90DF9008958881EECF0F933A
:1004A0001F93CF93DF931F92CDB7DEB782E089838E
:1004B00042E450E068EF70E080E80E9429020E9468
:1004C0007701DC0112960D911C910115110589F03F
:1004D000D801ED91FC910280F381E02DBE016F5FA8
:1004E0007F4FC801099597FD04C0F801008511856B
:1004F000ECCF89810F90DF91CF911F910F910895DB
:10050000615030F02091F100FC0120830196F8CF7A
:10051000289884E68093FE0108958F929F92AF926F
:10052000BF92CF92DF92EF92FF920F931F93CF93E0
:10053000DF936C017B018A0180910B01882309F410
:1005400058C08091FF01882309F453C08091D601DF
:1005500080FF05C08091E00082608093E000E801A8
:10056000B12C8AEFA82E93E0892E2AE3922E2097B1
:1005700011F4BB20B9F10E941101811106C0AA94A7
:10058000AA20B9F10E94B001F2CF8C171D0611F01C
:100590000CF08C2F9FB7F8948092E9002091E8002E
:1005A00025FD02C09FBFE3CF282F30E0C21BD30B35
:1005B000F701815020F041914093F100FACFE20E13
:1005C000F31EBB2021F09092E800B12CEBCF80917C
:1005D000E80085FDE7CF9092E800BB24B394209714
:1005E00009F3F3CF5D9884E68093D50110161106C8
:1005F0003CF081E090E0F6019383828310E000E01C
:10060000C801DF91CF911F910F91FF90EF90DF9084
:10061000CF90BF90AF909F908F900895CF93DF932E
:100620001F92CDB7DEB76983DC01ED91FC910280AA
:10063000F381E02D41E050E0BE016F5F7F4F0995EF
:100640000F90DF91CF910895682F81E092E00C9494
:100650000E0383E08093E9008091F200882319F073
:100660008AE38093E80008950E94110190E00895C4
:10067000CF93DF931F92CDB7DEB7FC0184859585BC
:1006800097FD08C02FEF3FEF358724870F90DF914C
:10069000CF910895CE0101960E94E700019719F4C9
:1006A000898190E0F3CF8FEF9FEFF0CF0F931F93EF
:1006B000CF93DF931F92CDB7DEB78C01FC01848509
:1006C000958597FF0BC0CE0101960E94E700019728
:1006D00071F4898190E0F80195878487F801848519
:1006E00095850F90DF91CF911F910F9108958FEF16
:1006F0009FEFF1CFFC018485958597FD0BC09FB7D7
:10070000F89482E08093E9008091F2009FBF90E02E
:10071000019608959FB7F89482E08093E900809154
:10072000F2009FBF90E0089520E077FF04C071952C
:100730006195710921E0FC0182859385681779072D
:100740000CF4CB01222339F02A9A229A90938B0041
:1007500080938A0008952A98F8CF20E077FF04C09C
:1007600071956195710921E0FC0182859385681777
:1007700079070CF4CB01222339F0299A219A90931E
:1007800089008093880008952998F8CFCF93DF934C
:10079000EB01BC0187EB92E00E949403BE0189EC5F
:1007A00092E0DF91CF910C94AD03FC010190002009
:1007B000E9F73197AF01481B590BBC0181E092E08A
:1007C0000C948D028F929F92AF92BF920F931F93C2
:1007D000CF93DF93CDB7DEB7A1970FB6F894DEBF06
:1007E0000FBECDBF19A2423008F44AE08E010F5D62
:1007F0001F4F842E912CB12CA12CA50194010E9495
:100800008E11E62FB901CA01EA30F4F4E05DD80197
:10081000EE938D01232B242B252B79F790E080E09C
:10082000109719F0CD010E94D503A1960FB6F89448
:10083000DEBF0FBECDBFDF91CF911F910F91BF9053
:10084000AF909F908F900895E95CE1CFCF93DF93B5
:100850000E94D503EC0187E491E00E94D5038C0F40
:100860009D1FDF91CF9108958091B5029091B602BE
:100870004091B3025091B402841795072CF401966D
:100880009093B6028093B5022091B5023091B602E2
:1008900042175307E1F470E060E090E080E00E94CE
:1008A000C60310927A021092790270E060E090E044
:1008B00080E00E94C6038AE491E00E942604109220
:1008C0007A021092790282E591E00C94D50384E1DA
:1008D000829FF001839FF00D1124E954FD4FA7E999
:1008E000B2E001900D928A95E1F7EDCF8F929F9241
:1008F000AF92BF92CF92DF92EF92FF925C016A01BA
:100900007B018EE30E942403C5010E94D5038AE384
:100910000E942403A7019601C701B6010E94071493
:10092000882379F087E591E00E94D5038AE0FF9063
:10093000EF90DF90CF90BF90AF909F908F900C94EE
:10094000240346015701E894B7F82FEF3FEF4FE734
:100950005FE7C501B4010E94071481110DC02FEF9C
:100960003FEF4FE75FE7C501B4010E94241018165E
:100970001CF48BE591E0D8CF2FEF3FEF4FE75FE41A
:10098000C701B6010E94A81318161CF48FE591E068
:10099000CBCF2FEF3FEF4FE75FECC701B6010E94CF
:1009A000241087FDF3CF20E030E0A901C701B60194
:1009B0000E94241087FF07C08DE20E942403F7FAEB
:1009C000F094F7F8F0942AE037ED43EA5BE3C701CF
:1009D000B6010E94B7114B015C010E9413136B0119
:1009E0007C010E9429109B01AC01C501B4010E9449
:1009F000B6114B015C014AE0C701B6010E94E20357
:100A00008EE20E94240320E030E040E251E4C50180
:100A1000B4010E948A104B015C010E9413136B0108
:100A2000F12CE12C4AE0C701B6010E94E203C701A4
:100A3000B6010E9429109B01AC01C501B4010E94BE
:100A4000B61120E030E040E251E40E948A100E949A
:100A5000131390E080E04AE00E94E20367CF8F9298
:100A60009F92AF92BF92CF92DF92EF92FF928091CE
:100A7000790290917A028230910509F047C025E809
:100A80003BE642E852E460918F02709190028091BF
:100A90009102909192020E949A126B017C0125E8CA
:100AA0003BE642E852E46091930270919402809197
:100AB0009502909196020E949A129B01AC01C70187
:100AC000B6010E94B71120E030E040E05FE30E94F1
:100AD0008A109B01AC016091AB027091AC028091D5
:100AE000AD029091AE020E94B61120E030E0A90163
:100AF0000E942410881F8827881FFF90EF90DF90A6
:100B0000CF90BF90AF909F908F90089583309105C4
:100B1000C9F420EE3EE245E652E460918B0270910A
:100B20008C0280918D0290918E020E948A109B010E
:100B3000AC016091AF027091B0028091B1029091CE
:100B4000B202D1CF019709F043C0209183023091C6
:100B500084024091850250918602609197027091C3
:100B600098028091990290919A020E94B6114B01CD
:100B70005C01209187023091880240918902509156
:100B80008A0260919B0270919C0280919D029091DB
:100B90009E020E94B6116B017C01A5019401C50162
:100BA000B4010E948A104B015C01A7019601C701A4
:100BB000B6010E948A109B01AC01C501B4010E94DC
:100BC000B7110E94C31320E030E040EA50E490CF18
:100BD00080E093CF0E941716FC01808191810097DD
:100BE00011F00C94D11408951F920F920FB60F922A
:100BF00011242F933F934F935F936F937F938F9322
:100C00009F93AF93BF93EF93FF93CF93DF9300D066
:100C10001F92CDB7DEB783B189838981909100029D
:100C200089278A8380916B009A8189238B838B81AA
:100C300080FF05C0E091EE01F091EF0109958B81F5
:100C400081FF05C0E091F001F091F10109958B81E0
:100C500082FF05C0E091F201F091F30109958B81CB
:100C600083FF05C0E091F401F091F50109958B81B6
:100C700084FF05C0E091F601F091F70109958B81A1
:100C800085FF05C0E091F801F091F90109958B818C
:100C900086FF05C0E091FA01F091FB0109958B8177
:100CA00087FF05C0E091FC01F091FD010995898164
:100CB000809300020F900F900F90DF91CF91FF91E2
:100CC000EF91BF91AF919F918F917F916F915F91C4
:100CD0004F913F912F910F900FBE0F901F9018953D
:100CE0001F920F920FB60F9211242F933F934F93A1
:100CF0005F936F937F938F939F93AF93BF93EF9384
:100D0000FF93E0911401F09115010995FF91EF9186
:100D1000BF91AF919F918F917F916F915F914F9113
:100D20003F912F910F900FBE0F901F9018951F921B
:100D30000F920FB60F9211242F933F934F935F930F
:100D40006F937F938F939F93AF93BF93EF93FF9393
:100D5000E0911201F09113010995FF91EF91BF917C
:100D6000AF919F918F917F916F915F914F913F9143
:100D70002F910F900FBE0F901F9018951F920F92FA
:100D80000FB60F9211242F933F934F935F936F935E
:100D90007F938F939F93AF93BF93EF93FF93E091D4
:100DA0001001F09111010995FF91EF91BF91AF9161
:100DB0009F918F917F916F915F914F913F912F9173
:100DC0000F900FBE0F901F9018951F920F920FB6A5
:100DD0000F9211242F933F934F935F936F937F93C1
:100DE0008F939F93AF93BF93EF93FF93E0910E0187
:100DF000F0910F010995FF91EF91BF91AF919F91F4
:100E00008F917F916F915F914F913F912F910F90B3
:100E10000FBE0F901F9018951F920F920FB60F9252
:100E200011242F933F934F935F936F937F938F93EF
:100E30009F93AF93BF93EF93FF93E0910C01F091D9
:100E40000D010995FF91EF91BF91AF919F918F9106
:100E50007F916F915F914F913F912F910F900FBEB6
:100E60000F901F9018951F920F920FB60F9211249A
:100E70002F933F938F939F93AF93BF938091DA010A
:100E80009091DB01A091DC01B091DD013091D9019D
:100E900023E0230F2D3758F50196A11DB11D209396
:100EA000D9018093DA019093DB01A093DC01B09328
:100EB000DD018091DE019091DF01A091E001B09110
:100EC000E1010196A11DB11D8093DE019093DF0128
:100ED000A093E001B093E101BF91AF919F918F91F9
:100EE0003F912F910F900FBE0F901F90189526E8FD
:100EF000230F0296A11DB11DD2CF1F920F920FB6E4
:100F00000F9211248F939F938091E1009091E100C3
:100F1000937F9093E10083FF0FC01092E90091E06E
:100F20009093EB001092EC0092E39093ED001092FE
:100F3000FF0198E09093F00082FF22C093E090932D
:100F4000E9009091F200992319F09AE39093E80058
:100F50009091D501992341F09091D50191509093B2
:100F6000D501911101C05D9A9091FE01992341F044
:100F70009091FE0191509093FE01911101C0289A29
:100F800084FF18C08091E2008E7E81608093E20031
:100F90008091E1008F7E8093E1008091D6018E7E6A
:100FA00080618093D6019F918F910F900FBE0F901B
:100FB0001F90189580FFF7CF8091E2008E7E8061B0
:100FC0008093E2008091E1008E7E8093E100809129
:100FD000D6018E7E8160E5CF1F920F920FB60F92E1
:100FE0001124CF92DF92EF92FF920F931F932F93D2
:100FF0003F934F935F936F937F938F939F93AF93A1
:10100000BF93EF93FF93CF93DF93CDB7DEB76C978A
:10101000DEBFCDBF1092E9008091E80083FF25C0BC
:1010200068E0CE0145960E94800282EF8093E8003E
:101030008D8987FF39C09091E80090FFFCCF982FF1
:10104000907609F034C19E894F89588D2F89F88C8C
:10105000911131C0803861F58091D7018093F10002
:101060001092F1008EEF8093E8006C960FB6F89422
:10107000DEBF0FBECDBFDF91CF91FF91EF91BF914A
:10108000AF919F918F917F916F915F914F913F9120
:101090002F911F910F91FF90EF90DF90CF900F90C5
:1010A0000FBE0F901F9018959EEF9093E800C7CF4A
:1010B0001092F100D5CF913059F48111D3CF413046
:1010C000510581F68091D7018D7F8093D701CACFDA
:1010D000933049F48111C6CF4130510519F6809102
:1010E000D7018260F2CF953041F48091E80080FF13
:1010F000FCCF20682093E300B5CF963009F0A9C05B
:101100000B8D1C8D22E01092E9001092D3011092F9
:10111000D201F2122EC01092D1011092D0010E9481
:101120004F021F8299E09983FA8291E09E8390EAB0
:1011300098879AEF99872091D2013091D301275F48
:101140003F4F3C832B838D831092E9001092D30193
:101150001092D2011093D1010093D00149E050E0E8
:10116000BE016F5F7F4F80E00E9429020E944F0204
:1011700079CF1093D1010093D0010E947701DC0157
:1011800012960D911C910115110509F451C1D80158
:10119000ED91FC910480F581E02DBE016B5E7F4FE7
:1011A000C8010995009709F03EC1F8010085118535
:1011B000EACFF3E0FF120EC08F89882309F440C004
:1011C000823061F440E862E183E691E00E94F6013A
:1011D000811148CF81E28093EB0047CF813029F421
:1011E00040E862E180E591E0F1CF833099F70E9419
:1011F0007701DC011296ED90FC908E010F5F1F4F7E
:101200006801E114F10479F0D701ED91FC910680B9
:10121000F781E02DB801C7010995080F111DF701ED
:10122000E084F184EECFD8011C92F60101900020F9
:10123000E9F73197BF016C197D0940E0C601C6CFBF
:101240006AE371E0FB01449150E080E80E942902CA
:1012500009CF973009F4BECF983021F481E0809314
:10126000F10000CF993009F0FDCE837009F0B2CFC4
:10127000EDE1F1E081E031E096E32191222371F08C
:101280008093E9003093EB00DF0111972C912093BC
:10129000EC009093ED008F5F873079F78EE78093B5
:1012A000EA001092EA008F898093FF01DBCE8B8DDC
:1012B0009C8D1092E9001092D3011092D20190936C
:1012C000D1018093D001898D811192C08E899D8931
:1012D000913A49F4813209F07DCF47E050E064E073
:1012E00071E080E0B3CF913209F074CF833269F4BA
:1012F0008F89988DB0E0A0E0809300019093010168
:10130000A0930201B0930301ADCE803269F48091C5
:10131000E80082FFFCCF67E084E091E00E94800259
:101320008BEF8093E8009ECE823209F09BCE8F89AE
:1013300080930B01EEEFFFE7859194918B3F9C4DDD
:1013400051F1E0E0F8E08091040190910501A09155
:101350000601B0910701803B9440A105B105F1F46D
:1013600080910B0180FD1AC0EE3F8AE0F80789F5F5
:1013700087E797E791838083809160008093D40111
:1013800088E19BE00FB6F894A895809360000FBEAB
:101390009093600067CEEEEFFAE0D5CF8081918127
:1013A0008737974709F05ECEA895809160008861E5
:1013B000809360008091D40180936000EE3F2AE02A
:1013C000F20789F08091FE0A9091FF0A9183808351
:1013D00049CE808191818737980751F29093FF0A17
:1013E0008093FE0AC5CF1092FF0A1092FE0A3ACEF1
:1013F0000E947701DC0112960D911C9101151105D7
:1014000009F4E8CED801ED91FC910190F081E02D36
:10141000BE016B5E7F4FC8010995811123CEF80193
:1014200000851185EBCF181619060CF41BCED2CE11
:10143000F1E0FF12BECE6EE371E004CF1F920F9277
:101440000FB60F9211242F933F934F935F938F9377
:101450009F93EF93FF938091D8018F5F8093D80182
:10146000F894E7EBF2E086859785789424853585B6
:10147000AC01421B530B9587848751874087F894B2
:10148000E9ECF2E086859785789424853585AC0172
:10149000421B530B9587848751874087FF91EF91BB
:1014A0009F918F915F914F913F912F910F900FBE20
:1014B0000F901F9018950F931F93CF93DF93EC011C
:1014C00088819981009759F02A813B812617370737
:1014D00030F081E0DF91CF911F910F9108958B0142
:1014E0006F5F7F4F0E945A15009759F09983888348
:1014F0001B830A832C813D81232B59F7FC01108229
:10150000E8CF80E0E7CFEF92FF920F931F93CF9346
:10151000DF93EC017B018A01BA010E945B0A2881FA
:101520003981811114C02115310519F0C9010E94BA
:10153000D114198218821D821C821B821A82CE014C
:10154000DF91CF911F910F91FF90EF9008951D8330
:101550000C83B701C9010E942516F1CFCF93DF9309
:1015600000D000D000D0CDB7DEB783B180930002A9
:10157000109204021092030288EE93E0A0E0B0E023
:101580008093050290930602A0930702B09308028D
:1015900087E291E090930202809301028FEF9FEF28
:1015A00090930E0280930D021A8219821C821B8274
:1015B0001E821D8241E050E063E671E0CE0101969B
:1015C0000E94830A8FE391E09093B8028093B70260
:1015D0001092BA021092B9021092BC021092BB0291
:1015E0001092BE021092BD0269817A816115710567
:1015F00031F04D815E8189EB92E00E94830A109266
:10160000C0021092BF0284EA91E09093C2028093DC
:10161000C10289E391E09093B8028093B702CE01B2
:1016200001960E94EC051A8219821C821B821E827E
:101630001D8241E050E065E671E0CE0101960E9416
:10164000830A8FE391E09093CA028093C9021092BB
:10165000CC021092CB021092CE021092CD021092C8
:10166000D0021092CF0269817A816115710531F043
:101670004D815E818BEC92E00E94830A1092D2022F
:101680001092D10284EA91E09093D4028093D30225
:1016900085E491E09093CA028093C902CE0101963D
:1016A0000E94EC0510927A021092790284E190E097
:1016B00090937C0280937B0210927E0210927D02B6
:1016C0001092800210927F02109282021092810288
:1016D00050E040E069E471E08DE792E00E94830A07
:1016E0001092830210928402109285021092860258
:1016F00010928702109288021092890210928A0238
:1017000010928B0210928C0210928D0210928E0217
:1017100010928F02109290021092910210929202F7
:1017200010929302109294021092950210929602D7
:1017300010929702109298021092990210929A02B7
:1017400010929B0210929C0210929D0210929E0297
:1017500010929F021092A0021092A1021092A20277
:101760001092A3021092A4021092A5021092A60257
:101770001092A7021092A8021092A9021092AA0237
:101780001092B4021092B3021092B6021092B502F7
:101790006AE070E08DE792E00E945B0A80E090E0F2
:1017A000A8ECB2E48093510290935202A0935302AA
:1017B000B0935402109255021092560210925702A2
:1017C000109258021092590210925A0210925B0223
:1017D00010925C0210925D0210925E0210925F0203
:1017E00010926002109261021092620210926302E3
:1017F00010926402109265021092660210926702C3
:10180000109268021092690210926A0210926B02A2
:1018100010926C0210926D0210926E0210926F0282
:101820001092700210927102109272021092730262
:101830001092740210927502109276021092770242
:101840001092780226960FB6F894DEBF0FBECDBF79
:10185000DF91CF910895CF93DF9300D000D000D0D7
:10186000CDB7DEB7789484B5826084BD84B58160DD
:1018700084BD85B5826085BD85B5816085BD80915B
:101880006E00816080936E001092810080918100D3
:1018900082608093810080918100816080938100CB
:1018A00080918000816080938000809191008260AF
:1018B000809391008091910081608093910080914C
:1018C00090008160809390008091C100846080933B
:1018D000C1008091C10082608093C1008091C100ED
:1018E00081608093C1008091C30081608093C300B8
:1018F0008091C00082608093C0008091C2008160AE
:101900008093C20080917A00846080937A008091F5
:101910007A00826080937A0080917A00816080935F
:101920007A0080917A00806880937A001092FF019B
:101930001092D7011092D6018091D70081608093D8
:10194000D70080EA8093D80089B5806189BD89B5C8
:10195000826089BD09B400FEFDCF0E94B001809174
:10196000D8008F7C80618093D8008091E000807FD8
:101970008093E0008091E1008E7E8093E1008DE015
:101980008093E200559A209A8FEF9FEF90930E027A
:1019900080930D0288E691E00E942604F89410924C
:1019A000C0008AE08093C1001092C2001092C30070
:1019B00020917B0230917C02A0E8BEE30E947F115F
:1019C00029E096958795779567952A95D1F7615087
:1019D0007109862F871B7093BF008093D10084E02C
:1019E00080937200789487E691E00E94260483E752
:1019F00091E00E942604F89482EA8093800089E1B5
:101A00008093810084EA91E0909387008093860020
:101A1000109289001092880010928B0010928A0018
:101A200010928D0010928C00F89491E090936800D1
:101A300080916B00806180936B0021E431E03093F2
:101A4000F7012093F6019BBB809100028F7E80936B
:101A5000000283B1909100028071892B8093000273
:101A6000789483E291E09093150180931401809122
:101A70006A008F7C806180936A00EE9A789482E796
:101A800091E00E9426042E98269A2A98229A80E8AD
:101A900091E00E94260424982C9A6A98729A8CB13C
:101AA00082FB882780F98093C80293B18091C80295
:101AB0009295917089278093C7028FE791E00E94E9
:101AC00026042D98259A2998219A80E891E00E9471
:101AD00026046E98769A8098889A8FB18170809348
:101AE000DA029CB18091DA0296FB992790F9892756
:101AF0008093D9028FE791E00E94260430E0232EE4
:101B000030E0332E22E030E03093B4022093B30271
:101B10008091B5029091B60234E1389FF001399F6F
:101B2000F00D1124EF5AFD4FA7E9B2E084E10190D6
:101B30000D928A95E1F781E090E090937A0280938C
:101B400079028091D801882309F45DC2823020F0A7
:101B50008AE891E00E942604A091BF02B091C002E1
:101B6000BA83A98360917B0270917C0290E080E04F
:101B70000E94291020E030E04AE754E40E949A12C3
:101B80006B017C0129813A81B901330F880B990BD4
:101B90000E942B1025E83BE642E852E40E949A128C
:101BA000A70196010E949A122B013C016091D1027B
:101BB0007091D202072E000C880B990B0E942B10FB
:101BC00025E83BE642E852E40E949A12A7019601FA
:101BD0000E949A124B015C01AC019B01C301B2014E
:101BE0000E94B71120E030E040E05FE30E948A10DD
:101BF0006B017C01F8948091C5029091C6029E838E
:101C00008D837894F8940091D7021091D80278943B
:101C10001092D80180918B0290918C02A0918D023C
:101C2000B0918E0289839A83AB83BC83A301920116
:101C3000C501B4010E94B61120E030E040E651E455
:101C40000E949A122AE037ED43EA5CE30E948A1070
:101C500029813A814B815C810E94B7119B01AC01C3
:101C600020938B0230938C0240938D0250938E020E
:101C700069817A818B819C810E94B71120E030E0DC
:101C800040E05FE30E948A102B013C010E94951204
:101C90009B01AC01C701B6010E948A102AE037ED12
:101CA00043EA5CE30E948A1020918302309184020F
:101CB00040918502509186020E94B7114B015C0150
:101CC0008092830290928402A0928502B092860252
:101CD000C301B2010E94B5139B01AC01C701B6015B
:101CE0000E948A102AE037ED43EA5CE30E948A10E2
:101CF0009B01AC01609187027091880280918902FA
:101D000090918A020E94B7116093870270938802B3
:101D10008093890290938A02AD81BE81BD01BB0F81
:101D2000880B990B0E942B1060938F027093900286
:101D30008093910290939202B801110F880B990B36
:101D40000E942B10609393027093940280939502EB
:101D500090939602B501A40182EB91E00E94760473
:101D600040918702509188026091890270918A02A5
:101D700084EB91E00E94760420EE3EE245E652E4D8
:101D800060918B0270918C0280918D0290918E02F5
:101D90000E948A10AB01BC0186EB91E00E947604A0
:101DA0008091790290917A02019709F00AC12091FD
:101DB00083023091840240918502509186026091A5
:101DC0009702709198028091990290919A020E94D4
:101DD000B6112B013C01209187023091880240917D
:101DE000890250918A0260919B0270919C028091BD
:101DF0009D0290919E020E94B6116B017C01A3018D
:101E00009201C301B2010E948A104B015C01A7013B
:101E10009601C701B6010E948A109B01AC01C50161
:101E2000B4010E94B7110E94C3134B015C01A301CE
:101E30009201C701B6010E94361220EE3EE245E64D
:101E400052E40E948A106B017C0120EE3EE245E6DE
:101E500052E460918B0270918C0280918D0290917E
:101E60008E020E948A109B01AC01C701B6010E943C
:101E7000B6116B017C0120E030E044E353E40E94A2
:101E8000A81318162CF420E030E044EB53E4EDCF17
:101E900020E030E044E353ECC701B6010E94241077
:101EA00087FF0BC020E030E044EB53E4C701B601EC
:101EB0000E94B7116B017C01EBCF20E030E040EED7
:101EC00050E4C501B4010E94241087FF03C0C12C57
:101ED000D12C760120E030E040E850E4C501B401A7
:101EE0000E94241087FF03C0812C912C5401B5015E
:101EF000A4018CEB91E00E947604B701A60187EC67
:101F000091E00E94760420E030E048E452E4C5010C
:101F1000B4010E948A109F7720E030E048E452E448
:101F20000E94A813181634F4812C912C90EAA92E43
:101F300090E4B92E20E030E040E450E4C701B6015F
:101F40000E948A109F7720E030E048EC52E40E9423
:101F5000A813181634F4C12CD12C88E4E82E82E49E
:101F6000F82E20E030E040E251E4C501B4010E94C7
:101F70008A104B015C01A7019601C701B6010E94BE
:101F8000B711A50194010E94B7110E940C132B01F7
:101F900020E030E040E450E4C701B6010E948A101E
:101FA0009B01AC01C501B4010E94B6110E940C1343
:101FB000CB01B2010E94C6030E942F0581110E942D
:101FC00034048091790290917A02029759F464E680
:101FD00070E088E790E00E94C6030E942F058111FF
:101FE0000E9434048091790290917A02039759F407
:101FF00062E370E084EC9FEF0E94C6030E942F050D
:1020000081110E9434042114310409F47BCD0E9413
:10201000000078CDCF93DF938DE792E00E94EC052E
:10202000CFE3D1E0D093CA02C093C9028BEC92E017
:102030000E94EC05D093B802C093B70289EB92E0FE
:10204000DF91CF910C94EC050E94661008F481E0BA
:102050000895E89409C097FB3EF49095809570959B
:1020600061957F4F8F4F9F4F9923A9F0F92F96E9E4
:10207000BB279395F695879577956795B795F11159
:10208000F8CFFAF4BB0F11F460FF1BC06F5F7F4FF6
:102090008F4F9F4F16C0882311F096E911C0772308
:1020A00021F09EE8872F762F05C0662371F096E811
:1020B000862F70E060E02AF09A95660F771F881FE0
:1020C000DAF7880F9695879597F90895990F000884
:1020D000550FAA0BE0E8FEEF16161706E807F907FA
:1020E000C0F012161306E407F50798F0621B730B95
:1020F000840B950B39F40A2661F0232B242B252B16
:1021000021F408950A2609F4A140A6958FEF811DB8
:10211000811D08950E949D100C940E110E940011C3
:1021200038F00E94071120F0952311F00C94F7105D
:102130000C94FD1011240C9442110E941F1170F395
:10214000959FC1F3950F50E0551F629FF001729F5C
:10215000BB27F00DB11D639FAA27F00DB11DAA1F6B
:10216000649F6627B00DA11D661F829F2227B00DB8
:10217000A11D621F739FB00DA11D621F839FA00D43
:10218000611D221F749F3327A00D611D231F849F93
:10219000600D211D822F762F6A2F11249F575040EA
:1021A0009AF0F1F088234AF0EE0FFF1FBB1F661F65
:1021B000771F881F91505040A9F79E3F510580F02E
:1021C0000C94F7100C9442115F3FE4F3983ED4F363
:1021D000869577956795B795F795E7959F5FC1F7D2
:1021E000FE2B880F911D9695879597F9089597F97D
:1021F0009F6780E870E060E008959FEF80EC0895AD
:1022000000240A94161617061806090608950024D5
:102210000A9412161306140605060895092E03944F
:10222000000C11F4882352F0BB0F40F4BF2B11F4C3
:1022300060FF04C06F5F7F4F8F4F9F4F089557FD22
:102240009058440F551F59F05F3F71F04795880F24
:1022500097FB991F61F09F3F79F0879508951216BB
:1022600013061406551FF2CF4695F1DF08C0161667
:1022700017061806991FF1CF869571056105089418
:102280000895E894BB2766277727CB0197F908952F
:102290002F923F924F925F926F927F928F929F9276
:1022A000AF92BF92CF92DF92EF92FF920F931F9364
:1022B000CF93DF93CDB7DEB7CA1BDB0B0FB6F89415
:1022C000DEBF0FBECDBF09942A88398848885F8455
:1022D0006E847D848C849B84AA84B984C884DF80C6
:1022E000EE80FD800C811B81AA81B981CE0FD11DAA
:1022F0000FB6F894DEBF0FBECDBFED010895A29FCB
:10230000B001B39FC001A39F700D811D1124911DC9
:10231000B29F700D811D1124911D0895A1E21A2E06
:10232000AA1BBB1BFD010DC0AA1FBB1FEE1FFF1F79
:10233000A217B307E407F50720F0A21BB30BE40BC9
:10234000F50B661F771F881F991F1A9469F7609510
:102350007095809590959B01AC01BD01CF010895CA
:10236000EE0FFF1F0590F491E02D09945058BB2704
:10237000AA270E94CE110C940E110E94001138F071
:102380000E94071120F039F49F3F19F426F40C94B1
:10239000FD100EF4E095E7FB0C94F710E92F0E9476
:1023A0001F1158F3BA17620773078407950720F0C7
:1023B00079F4A6F50C9441110EF4E0950B2EBA2F8A
:1023C000A02D0B01B90190010C01CA01A00111243B
:1023D000FF27591B99F0593F50F4503E68F11A16E7
:1023E000F040A22F232F342F4427585FF3CF469578
:1023F00037952795A795F0405395C9F77EF41F169A
:10240000BA0B620B730B840BBAF09150A1F0FF0F63
:10241000BB1F661F771F881FC2F70EC0BA0F621F4F
:10242000731F841F48F4879577956795B795F7953F
:102430009E3F08F0B0CF9395880F08F09927EE0FD4
:102440009795879508950E94001160F080E891E0CB
:1024500009F49EEF0E94071128F040E851E071F462
:102460005EEF0CC00C94FD100C944111E92FE07844
:102470000E941F1140F3092E052AB1F326173707D2
:102480004807590738F00E2E07F8E02569F0E025D7
:10249000E0640AC0EF6307F8009407FADB01B901B2
:1024A0009D01DC01CA01AD01EF930E94B1120E94AF
:1024B0000E110E9466125F91552339F02BED3FE01B
:1024C00049E450FD49EC0C94B7110895DF93DD27E2
:1024D000B92FBF7740E85FE31616170648075B077A
:1024E00018F4D92F0E94AD139F938F937F936F930E
:1024F0000E940314ECEAF0E00E9442130E940E11C5
:102500002F913F914F915F910E949D10DD2351F0DB
:102510009058A2EA2AED3FE049EC5FE3D0785D27CE
:102520000E94CE11DF910C940E110E946B13E39563
:102530000C9494130E94AE120C940E110E94071179
:1025400058F00E94001140F029F45F3F29F00C94EC
:10255000F71051110C9442110C94FD100E941F11A0
:1025600068F39923B1F3552391F3951B550BBB27C2
:10257000AA2762177307840738F09F5F5F4F220F07
:10258000331F441FAA1FA9F335D00E2E3AF0E0E8FE
:1025900032D091505040E695001CCAF72BD0FE2F48
:1025A00029D0660F771F881FBB1F261737074807DC
:1025B000AB07B0E809F0BB0B802DBF01FF27935894
:1025C0005F4F3AF09E3F510578F00C94F7100C9451
:1025D00042115F3FE4F3983ED4F386957795679573
:1025E000B795F7959F5FC9F7880F911D96958795C9
:1025F00097F90895E1E0660F771F881FBB1F6217E8
:1026000073078407BA0720F0621B730B840BBA0BA5
:10261000EE1F88F7E09508950E9413136894B11196
:102620000C94421108950E94271188F09F5798F04A
:10263000B92F9927B751B0F0E1F0660F771F881FC7
:10264000991F1AF0BA95C9F714C0B13091F00E94E1
:102650004111B1E008950C944111672F782F88271C
:10266000B85F39F0B93FCCF3869577956795B39508
:10267000D9F73EF490958095709561957F4F8F4F77
:102680009F4F0895DF93CF931F930F93FF92EF9285
:10269000DF927B018C01689406C0DA2EEF010E9464
:1026A0009D10FE01E894A591259135914591559194
:1026B000A6F3EF010E94CE11FE019701A801DA9462
:1026C00069F7DF90EF90FF900F911F91CF91DF910D
:1026D00008950C94FD100E942711D8F3E894E0E0CF
:1026E000BB279F57F0F02AED3FE049EC06C0EE0F04
:1026F000BB0F661F771F881F28F0B23A6207730767
:10270000840728F0B25A620B730B840BE3959A95F9
:1027100072F7803830F49A95BB0F661F771F881FB9
:10272000D2F790480C940E14EF93E0FF07C0A2EA92
:102730002AED3FE049EC5FEB0E94CE110E940E11A2
:102740000F90039401FC9058E9EDF0E00C942114F3
:102750000E94661008F48FEF08959B01AC0160E0C1
:1027600070E080E89FE30C949A129F930E946B1391
:102770000F9007FCEE5F0C94941319F416F40C946C
:10278000FD100C940C140E942711B8F39923C9F37F
:10279000B6F39F57550B87FF0E941A140024A0E63A
:1027A00040EA900180585695979528F4805C660F12
:1027B000771F881F20F026173707480730F4621B61
:1027C000730B840B202931294A2BA6951794079463
:1027D000202531254A2758F7660F771F881F20F0DC
:1027E00026173707480730F4620B730B840B200D54
:1027F000311D411DA09581F7B901842F9158880F93
:102800009695879508959B01AC010C948A100E94BF
:102810006610880B990B08959F3F31F0915020F47A
:10282000879577956795B795880F911D96958795AC
:1028300097F9089591505040660F771F881FD2F77F
:1028400008959F938F937F936F93FF93EF939B01D3
:10285000AC010E948A10EF91FF910E9442132F91C8
:102860003F914F915F910C948A100F931F93CF93D8
:10287000DF938230910510F482E090E0E091DD0278
:10288000F091DE0230E020E0B0E0A0E0309799F473
:102890002115310509F44AC0281B390B24303105B4
:1028A000D8F58A819B816115710589F1FB019383BC
:1028B0008283FE0111C0408151810281138148173A
:1028C0005907E0F04817590799F4109761F01296EC
:1028D0000C93129713961C933296CF01DF91CF91F0
:1028E0001F910F9108950093DD021093DE02F4CF43
:1028F0002115310551F04217530738F0A901DB01CA
:102900009A01BD01DF01F801C1CFEF01F9CF90932A
:10291000DE028093DD02CDCFFE01E20FF31F819333
:1029200091932250310939832883D7CF2091DB023C
:102930003091DC02232B41F42091180130911901D0
:102940003093DC022093DB022091160130911701B5
:102950002115310541F42DB73EB740911A01509130
:102960001B01241B350BE091DB02F091DC02E21726
:10297000F307A0F42E1B3F0B2817390778F0AC01A2
:102980004E5F5F4F2417350748F04E0F5F1F50937F
:10299000DC024093DB02819391939FCFF0E0E0E073
:1029A0009CCFCF93DF930097E9F0FC01329713821D
:1029B0001282A091DD02B091DE02ED0130E020E054
:1029C0001097A1F420813181820F931F2091DB02A7
:1029D0003091DC022817390709F061C0F093DC025E
:1029E000E093DB02DF91CF910895EA01CE17DF0774
:1029F000E8F54A815B819E0141155105B1F7E90176
:102A0000FB83EA8349915991C40FD51FEC17FD0749
:102A100061F4808191810296840F951FE901998369
:102A20008883828193819B838A83F0E0E0E0129621
:102A30008D919C9113970097B9F52D913C91119729
:102A4000CD010296820F931F2091DB023091DC02B0
:102A50002817390739F6309751F51092DE02109297
:102A6000DD02B093DC02A093DB02BCCFD383C28330
:102A700040815181840F951FC817D90761F44E5FBB
:102A80005F4F88819981480F591F518340838A8104
:102A90009B81938382832115310509F0B0CFF09398
:102AA000DE02E093DD029ECFFD01DC01C0CF138288
:102AB0001282D7CFB0E0A0E0E0E6F5E10C944A1135
:102AC0008C01009751F4CB010E9435148C01C80190
:102AD000CDB7DEB7E0E10C946611FC01E60FF71FFD
:102AE0009C0122503109E217F30708F49DC0D90177
:102AF000CD91DC911197C617D70798F0C530D10555
:102B000030F3CE0104978617970708F3C61BD70B3F
:102B10002297C193D1936D937C93CF010E94D114DE
:102B2000D6CF5B01AC1ABD0A4C018C0E9D1EA09144
:102B3000DD02B091DE02512C412CF12CE12C1097DA
:102B400031F58091DB029091DC028815990509F03E
:102B50005CC04616570608F058C080911601909147
:102B60001701009741F48DB79EB740911A0150911B
:102B70001B01841B950BE817F90708F055C0F0936B
:102B8000DC02E093DB02F90171836083A0CF8D91B9
:102B90009C91119712966C90129713967C901397B4
:102BA000A815B90559F56C0142E0C40ED11CCA1430
:102BB000DB0420F1AC014A195B09DA011296159782
:102BC00080F06282738251834083D9016D937C933C
:102BD000E114F10471F0D7011396FC93EE93129770
:102BE00076CF22968C0F9D1FF90191838083F3018C
:102BF000EFCFF093DE02E093DD0269CF481659066D
:102C000008F42C017D01D3019ACFCB010E94351429
:102C10007C01009749F0AE01B8010E941C16C80162
:102C20000E94D114870153CF10E000E050CF81E023
:102C300090E0F8940C942C16FB01DC0102C001908A
:102C40000D9241505040D8F70895FB01DC010190EE
:102C50000D920020E1F7089510E0CCEBD0E004C025
:102C6000FE010E94B0112196CD3BD107C9F7F8941F
:022C7000FFCF94
:102C7200FFFFFFFF00E1000000000000220122012F
:102C82002201220122010000DF02800000C18081B6
:102C9200000000000000000E038D02340329037AB5
:102CA200033803560300000000940300000000EA0A
:102CB2000500000000AD030D0A002D3E2049444CE2
:102CC2004500446F6E65006E616E00696E66006F4E
:102CD2007666004C0052002F496E697454696D6526
:102CE20072002F496E69744D6F746F722829002F1C
:102CF200496E6974456E632829004D697373656472
:102D020020616E2075706461746520696E20526F57
:102D1200626F743A3A526F626F744C6F6F70282907
:102D220021007800790074686574610044697374E5
:102D3200616E63653A2000416E676C653A2000005F
:00000001FF
